{
	"BeggingContract.sol": {
		"BeggingContract": {
			"abi": [
				{
					"inputs": [
						{
							"internalType": "uint256",
							"name": "_startTime",
							"type": "uint256"
						},
						{
							"internalType": "uint256",
							"name": "_endTime",
							"type": "uint256"
						}
					],
					"stateMutability": "nonpayable",
					"type": "constructor"
				},
				{
					"inputs": [
						{
							"internalType": "address",
							"name": "owner",
							"type": "address"
						}
					],
					"name": "OwnableInvalidOwner",
					"type": "error"
				},
				{
					"inputs": [
						{
							"internalType": "address",
							"name": "account",
							"type": "address"
						}
					],
					"name": "OwnableUnauthorizedAccount",
					"type": "error"
				},
				{
					"anonymous": false,
					"inputs": [
						{
							"indexed": true,
							"internalType": "address",
							"name": "donor",
							"type": "address"
						},
						{
							"indexed": false,
							"internalType": "uint256",
							"name": "amount",
							"type": "uint256"
						},
						{
							"indexed": false,
							"internalType": "uint256",
							"name": "timestamp",
							"type": "uint256"
						}
					],
					"name": "Donation",
					"type": "event"
				},
				{
					"anonymous": false,
					"inputs": [
						{
							"indexed": true,
							"internalType": "address",
							"name": "previousOwner",
							"type": "address"
						},
						{
							"indexed": true,
							"internalType": "address",
							"name": "newOwner",
							"type": "address"
						}
					],
					"name": "OwnershipTransferred",
					"type": "event"
				},
				{
					"inputs": [],
					"name": "donate",
					"outputs": [],
					"stateMutability": "payable",
					"type": "function"
				},
				{
					"inputs": [],
					"name": "endTime",
					"outputs": [
						{
							"internalType": "uint256",
							"name": "",
							"type": "uint256"
						}
					],
					"stateMutability": "view",
					"type": "function"
				},
				{
					"inputs": [],
					"name": "getContractBalance",
					"outputs": [
						{
							"internalType": "uint256",
							"name": "",
							"type": "uint256"
						}
					],
					"stateMutability": "view",
					"type": "function"
				},
				{
					"inputs": [
						{
							"internalType": "address",
							"name": "donor",
							"type": "address"
						}
					],
					"name": "getDonation",
					"outputs": [
						{
							"internalType": "uint256",
							"name": "",
							"type": "uint256"
						}
					],
					"stateMutability": "view",
					"type": "function"
				},
				{
					"inputs": [],
					"name": "getTopDonors",
					"outputs": [
						{
							"internalType": "address[3]",
							"name": "",
							"type": "address[3]"
						},
						{
							"internalType": "uint256[3]",
							"name": "",
							"type": "uint256[3]"
						}
					],
					"stateMutability": "view",
					"type": "function"
				},
				{
					"inputs": [],
					"name": "owner",
					"outputs": [
						{
							"internalType": "address",
							"name": "",
							"type": "address"
						}
					],
					"stateMutability": "view",
					"type": "function"
				},
				{
					"inputs": [],
					"name": "renounceOwnership",
					"outputs": [],
					"stateMutability": "nonpayable",
					"type": "function"
				},
				{
					"inputs": [],
					"name": "startTime",
					"outputs": [
						{
							"internalType": "uint256",
							"name": "",
							"type": "uint256"
						}
					],
					"stateMutability": "view",
					"type": "function"
				},
				{
					"inputs": [
						{
							"internalType": "address",
							"name": "newOwner",
							"type": "address"
						}
					],
					"name": "transferOwnership",
					"outputs": [],
					"stateMutability": "nonpayable",
					"type": "function"
				},
				{
					"inputs": [],
					"name": "withdraw",
					"outputs": [],
					"stateMutability": "nonpayable",
					"type": "function"
				},
				{
					"stateMutability": "payable",
					"type": "receive"
				}
			],
			"devdoc": {
				"errors": {
					"OwnableInvalidOwner(address)": [
						{
							"details": "The owner is not a valid owner account. (eg. `address(0)`)"
						}
					],
					"OwnableUnauthorizedAccount(address)": [
						{
							"details": "The caller account is not authorized to perform an operation."
						}
					]
				},
				"events": {
					"Donation(address,uint256,uint256)": {
						"details": "捐赠事件：记录捐赠者、捐赠金额、捐赠时间"
					}
				},
				"kind": "dev",
				"methods": {
					"constructor": {
						"details": "初始化合约：设置所有者（部署者）、捐赠时间范围",
						"params": {
							"_endTime": "捐赠结束时间（时间戳，如 1757740800 = 2025-09-12 00:00:00）",
							"_startTime": "捐赠开始时间（时间戳，如 1755062400 = 2025-08-12 00:00:00）"
						}
					},
					"donate()": {
						"details": "捐赠函数：用户向合约发送ETH，自动记录捐赠信息 要求：在设定的时间范围内捐赠，且捐赠金额>0"
					},
					"getContractBalance()": {
						"details": "获取合约当前余额（供测试查看）"
					},
					"getDonation(address)": {
						"details": "查询捐赠金额：查询指定地址的累计捐赠额",
						"params": {
							"donor": "要查询的捐赠者地址"
						},
						"returns": {
							"_0": "累计捐赠金额（wei）"
						}
					},
					"getTopDonors()": {
						"details": "获取捐赠前3名：返回地址和对应捐赠金额（按金额降序）",
						"returns": {
							"_0": "前3名地址数组、前3名金额数组（未填满时地址为0x0，金额为0）"
						}
					},
					"owner()": {
						"details": "Returns the address of the current owner."
					},
					"renounceOwnership()": {
						"details": "Leaves the contract without owner. It will not be possible to call `onlyOwner` functions. Can only be called by the current owner. NOTE: Renouncing ownership will leave the contract without an owner, thereby disabling any functionality that is only available to the owner."
					},
					"transferOwnership(address)": {
						"details": "Transfers ownership of the contract to a new account (`newOwner`). Can only be called by the current owner."
					},
					"withdraw()": {
						"details": "提款函数：仅所有者可提取合约内所有ETH"
					}
				},
				"version": 1
			},
			"evm": {
				"assembly": "    /* \"BeggingContract.sol\":142:5122  contract BeggingContract is Ownable {... */\n  mstore(0x40, 0xc0)\n    /* \"BeggingContract.sol\":1262:1673  constructor(uint256 _startTime, uint256 _endTime) Ownable(msg.sender) {... */\n  callvalue\n  dup1\n  iszero\n  tag_1\n  jumpi\n  0x00\n  dup1\n  revert\ntag_1:\n  pop\n  mload(0x40)\n  sub(codesize, bytecodeSize)\n  dup1\n  bytecodeSize\n  dup4\n  codecopy\n  dup2\n  dup2\n  add\n  0x40\n  mstore\n  dup2\n  add\n  swap1\n  tag_2\n  swap2\n  swap1\n  tag_3\n  jump\t// in\ntag_2:\n    /* \"BeggingContract.sol\":1320:1330  msg.sender */\n  caller\n    /* \"@openzeppelin/contracts/access/Ownable.sol\":1297:1298  0 */\n  0x00\n    /* \"@openzeppelin/contracts/access/Ownable.sol\":1273:1299  initialOwner == address(0) */\n  0xffffffffffffffffffffffffffffffffffffffff\n  and\n    /* \"@openzeppelin/contracts/access/Ownable.sol\":1273:1285  initialOwner */\n  dup2\n    /* \"@openzeppelin/contracts/access/Ownable.sol\":1273:1299  initialOwner == address(0) */\n  0xffffffffffffffffffffffffffffffffffffffff\n  and\n  sub\n    /* \"@openzeppelin/contracts/access/Ownable.sol\":1269:1364  if (initialOwner == address(0)) {... */\n  tag_7\n  jumpi\n    /* \"@openzeppelin/contracts/access/Ownable.sol\":1350:1351  0 */\n  0x00\n    /* \"@openzeppelin/contracts/access/Ownable.sol\":1322:1353  OwnableInvalidOwner(address(0)) */\n  mload(0x40)\n  0x1e4fbdf700000000000000000000000000000000000000000000000000000000\n  dup2\n  mstore\n  0x04\n  add\n  tag_8\n  swap2\n  swap1\n  tag_9\n  jump\t// in\ntag_8:\n  mload(0x40)\n  dup1\n  swap2\n  sub\n  swap1\n  revert\n    /* \"@openzeppelin/contracts/access/Ownable.sol\":1269:1364  if (initialOwner == address(0)) {... */\ntag_7:\n    /* \"@openzeppelin/contracts/access/Ownable.sol\":1373:1405  _transferOwnership(initialOwner) */\n  tag_10\n    /* \"@openzeppelin/contracts/access/Ownable.sol\":1392:1404  initialOwner */\n  dup2\n    /* \"@openzeppelin/contracts/access/Ownable.sol\":1373:1391  _transferOwnership */\n  shl(0x20, tag_11)\n    /* \"@openzeppelin/contracts/access/Ownable.sol\":1373:1405  _transferOwnership(initialOwner) */\n  0x20\n  shr\n  jump\t// in\ntag_10:\n    /* \"@openzeppelin/contracts/access/Ownable.sol\":1225:1412  constructor(address initialOwner) {... */\n  pop\n    /* \"BeggingContract.sol\":1364:1379  block.timestamp */\n  timestamp\n    /* \"BeggingContract.sol\":1351:1361  _startTime */\n  dup3\n    /* \"BeggingContract.sol\":1351:1379  _startTime > block.timestamp */\n  gt\n    /* \"BeggingContract.sol\":1343:1435  require(_startTime > block.timestamp, \"The start time must be later than the current time.\") */\n  tag_13\n  jumpi\n  mload(0x40)\n  0x08c379a000000000000000000000000000000000000000000000000000000000\n  dup2\n  mstore\n  0x04\n  add\n  tag_14\n  swap1\n  tag_15\n  jump\t// in\ntag_14:\n  mload(0x40)\n  dup1\n  swap2\n  sub\n  swap1\n  revert\ntag_13:\n    /* \"BeggingContract.sol\":1503:1513  _startTime */\n  dup2\n    /* \"BeggingContract.sol\":1492:1500  _endTime */\n  dup2\n    /* \"BeggingContract.sol\":1492:1513  _endTime > _startTime */\n  gt\n    /* \"BeggingContract.sol\":1484:1565  require(_endTime > _startTime, \"The end time must be later than the start time.\") */\n  tag_16\n  jumpi\n  mload(0x40)\n  0x08c379a000000000000000000000000000000000000000000000000000000000\n  dup2\n  mstore\n  0x04\n  add\n  tag_17\n  swap1\n  tag_18\n  jump\t// in\ntag_17:\n  mload(0x40)\n  dup1\n  swap2\n  sub\n  swap1\n  revert\ntag_16:\n    /* \"BeggingContract.sol\":1626:1636  _startTime */\n  dup2\n    /* \"BeggingContract.sol\":1614:1636  startTime = _startTime */\n  0x80\n  dup2\n  dup2\n  mstore\n  pop\n  pop\n    /* \"BeggingContract.sol\":1657:1665  _endTime */\n  dup1\n    /* \"BeggingContract.sol\":1647:1665  endTime = _endTime */\n  0xa0\n  dup2\n  dup2\n  mstore\n  pop\n  pop\n    /* \"BeggingContract.sol\":1262:1673  constructor(uint256 _startTime, uint256 _endTime) Ownable(msg.sender) {... */\n  pop\n  pop\n    /* \"BeggingContract.sol\":142:5122  contract BeggingContract is Ownable {... */\n  jump(tag_19)\n    /* \"@openzeppelin/contracts/access/Ownable.sol\":2912:3099  function _transferOwnership(address newOwner) internal virtual {... */\ntag_11:\n    /* \"@openzeppelin/contracts/access/Ownable.sol\":2985:3001  address oldOwner */\n  0x00\n    /* \"@openzeppelin/contracts/access/Ownable.sol\":3004:3010  _owner */\n  dup1\n  0x00\n  swap1\n  sload\n  swap1\n  0x0100\n  exp\n  swap1\n  div\n  0xffffffffffffffffffffffffffffffffffffffff\n  and\n    /* \"@openzeppelin/contracts/access/Ownable.sol\":2985:3010  address oldOwner = _owner */\n  swap1\n  pop\n    /* \"@openzeppelin/contracts/access/Ownable.sol\":3029:3037  newOwner */\n  dup2\n    /* \"@openzeppelin/contracts/access/Ownable.sol\":3020:3026  _owner */\n  0x00\n  dup1\n    /* \"@openzeppelin/contracts/access/Ownable.sol\":3020:3037  _owner = newOwner */\n  0x0100\n  exp\n  dup2\n  sload\n  dup2\n  0xffffffffffffffffffffffffffffffffffffffff\n  mul\n  not\n  and\n  swap1\n  dup4\n  0xffffffffffffffffffffffffffffffffffffffff\n  and\n  mul\n  or\n  swap1\n  sstore\n  pop\n    /* \"@openzeppelin/contracts/access/Ownable.sol\":3083:3091  newOwner */\n  dup2\n    /* \"@openzeppelin/contracts/access/Ownable.sol\":3052:3092  OwnershipTransferred(oldOwner, newOwner) */\n  0xffffffffffffffffffffffffffffffffffffffff\n  and\n    /* \"@openzeppelin/contracts/access/Ownable.sol\":3073:3081  oldOwner */\n  dup2\n    /* \"@openzeppelin/contracts/access/Ownable.sol\":3052:3092  OwnershipTransferred(oldOwner, newOwner) */\n  0xffffffffffffffffffffffffffffffffffffffff\n  and\n  0x8be0079c531659141344cd1fd0a4f28419497f9722a3daafe3b4186f6b6457e0\n  mload(0x40)\n  mload(0x40)\n  dup1\n  swap2\n  sub\n  swap1\n  log3\n    /* \"@openzeppelin/contracts/access/Ownable.sol\":2975:3099  {... */\n  pop\n    /* \"@openzeppelin/contracts/access/Ownable.sol\":2912:3099  function _transferOwnership(address newOwner) internal virtual {... */\n  pop\n  jump\t// out\n    /* \"#utility.yul\":88:205   */\ntag_22:\n    /* \"#utility.yul\":197:198   */\n  0x00\n    /* \"#utility.yul\":194:195   */\n  dup1\n    /* \"#utility.yul\":187:199   */\n  revert\n    /* \"#utility.yul\":334:411   */\ntag_24:\n    /* \"#utility.yul\":371:378   */\n  0x00\n    /* \"#utility.yul\":400:405   */\n  dup2\n    /* \"#utility.yul\":389:405   */\n  swap1\n  pop\n    /* \"#utility.yul\":334:411   */\n  swap2\n  swap1\n  pop\n  jump\t// out\n    /* \"#utility.yul\":417:539   */\ntag_25:\n    /* \"#utility.yul\":490:514   */\n  tag_41\n    /* \"#utility.yul\":508:513   */\n  dup2\n    /* \"#utility.yul\":490:514   */\n  tag_24\n  jump\t// in\ntag_41:\n    /* \"#utility.yul\":483:488   */\n  dup2\n    /* \"#utility.yul\":480:515   */\n  eq\n    /* \"#utility.yul\":470:533   */\n  tag_42\n  jumpi\n    /* \"#utility.yul\":529:530   */\n  0x00\n    /* \"#utility.yul\":526:527   */\n  dup1\n    /* \"#utility.yul\":519:531   */\n  revert\n    /* \"#utility.yul\":470:533   */\ntag_42:\n    /* \"#utility.yul\":417:539   */\n  pop\n  jump\t// out\n    /* \"#utility.yul\":545:688   */\ntag_26:\n    /* \"#utility.yul\":602:607   */\n  0x00\n    /* \"#utility.yul\":633:639   */\n  dup2\n    /* \"#utility.yul\":627:640   */\n  mload\n    /* \"#utility.yul\":618:640   */\n  swap1\n  pop\n    /* \"#utility.yul\":649:682   */\n  tag_44\n    /* \"#utility.yul\":676:681   */\n  dup2\n    /* \"#utility.yul\":649:682   */\n  tag_25\n  jump\t// in\ntag_44:\n    /* \"#utility.yul\":545:688   */\n  swap3\n  swap2\n  pop\n  pop\n  jump\t// out\n    /* \"#utility.yul\":694:1201   */\ntag_3:\n    /* \"#utility.yul\":773:779   */\n  0x00\n    /* \"#utility.yul\":781:787   */\n  dup1\n    /* \"#utility.yul\":830:832   */\n  0x40\n    /* \"#utility.yul\":818:827   */\n  dup4\n    /* \"#utility.yul\":809:816   */\n  dup6\n    /* \"#utility.yul\":805:828   */\n  sub\n    /* \"#utility.yul\":801:833   */\n  slt\n    /* \"#utility.yul\":798:917   */\n  iszero\n  tag_46\n  jumpi\n    /* \"#utility.yul\":836:915   */\n  tag_47\n  tag_22\n  jump\t// in\ntag_47:\n    /* \"#utility.yul\":798:917   */\ntag_46:\n    /* \"#utility.yul\":956:957   */\n  0x00\n    /* \"#utility.yul\":981:1045   */\n  tag_48\n    /* \"#utility.yul\":1037:1044   */\n  dup6\n    /* \"#utility.yul\":1028:1034   */\n  dup3\n    /* \"#utility.yul\":1017:1026   */\n  dup7\n    /* \"#utility.yul\":1013:1035   */\n  add\n    /* \"#utility.yul\":981:1045   */\n  tag_26\n  jump\t// in\ntag_48:\n    /* \"#utility.yul\":971:1045   */\n  swap3\n  pop\n    /* \"#utility.yul\":927:1055   */\n  pop\n    /* \"#utility.yul\":1094:1096   */\n  0x20\n    /* \"#utility.yul\":1120:1184   */\n  tag_49\n    /* \"#utility.yul\":1176:1183   */\n  dup6\n    /* \"#utility.yul\":1167:1173   */\n  dup3\n    /* \"#utility.yul\":1156:1165   */\n  dup7\n    /* \"#utility.yul\":1152:1174   */\n  add\n    /* \"#utility.yul\":1120:1184   */\n  tag_26\n  jump\t// in\ntag_49:\n    /* \"#utility.yul\":1110:1184   */\n  swap2\n  pop\n    /* \"#utility.yul\":1065:1194   */\n  pop\n    /* \"#utility.yul\":694:1201   */\n  swap3\n  pop\n  swap3\n  swap1\n  pop\n  jump\t// out\n    /* \"#utility.yul\":1207:1333   */\ntag_27:\n    /* \"#utility.yul\":1244:1251   */\n  0x00\n    /* \"#utility.yul\":1284:1326   */\n  0xffffffffffffffffffffffffffffffffffffffff\n    /* \"#utility.yul\":1277:1282   */\n  dup3\n    /* \"#utility.yul\":1273:1327   */\n  and\n    /* \"#utility.yul\":1262:1327   */\n  swap1\n  pop\n    /* \"#utility.yul\":1207:1333   */\n  swap2\n  swap1\n  pop\n  jump\t// out\n    /* \"#utility.yul\":1339:1435   */\ntag_28:\n    /* \"#utility.yul\":1376:1383   */\n  0x00\n    /* \"#utility.yul\":1405:1429   */\n  tag_52\n    /* \"#utility.yul\":1423:1428   */\n  dup3\n    /* \"#utility.yul\":1405:1429   */\n  tag_27\n  jump\t// in\ntag_52:\n    /* \"#utility.yul\":1394:1429   */\n  swap1\n  pop\n    /* \"#utility.yul\":1339:1435   */\n  swap2\n  swap1\n  pop\n  jump\t// out\n    /* \"#utility.yul\":1441:1559   */\ntag_29:\n    /* \"#utility.yul\":1528:1552   */\n  tag_54\n    /* \"#utility.yul\":1546:1551   */\n  dup2\n    /* \"#utility.yul\":1528:1552   */\n  tag_28\n  jump\t// in\ntag_54:\n    /* \"#utility.yul\":1523:1526   */\n  dup3\n    /* \"#utility.yul\":1516:1553   */\n  mstore\n    /* \"#utility.yul\":1441:1559   */\n  pop\n  pop\n  jump\t// out\n    /* \"#utility.yul\":1565:1787   */\ntag_9:\n    /* \"#utility.yul\":1658:1662   */\n  0x00\n    /* \"#utility.yul\":1696:1698   */\n  0x20\n    /* \"#utility.yul\":1685:1694   */\n  dup3\n    /* \"#utility.yul\":1681:1699   */\n  add\n    /* \"#utility.yul\":1673:1699   */\n  swap1\n  pop\n    /* \"#utility.yul\":1709:1780   */\n  tag_56\n    /* \"#utility.yul\":1777:1778   */\n  0x00\n    /* \"#utility.yul\":1766:1775   */\n  dup4\n    /* \"#utility.yul\":1762:1779   */\n  add\n    /* \"#utility.yul\":1753:1759   */\n  dup5\n    /* \"#utility.yul\":1709:1780   */\n  tag_29\n  jump\t// in\ntag_56:\n    /* \"#utility.yul\":1565:1787   */\n  swap3\n  swap2\n  pop\n  pop\n  jump\t// out\n    /* \"#utility.yul\":1793:1962   */\ntag_30:\n    /* \"#utility.yul\":1877:1888   */\n  0x00\n    /* \"#utility.yul\":1911:1917   */\n  dup3\n    /* \"#utility.yul\":1906:1909   */\n  dup3\n    /* \"#utility.yul\":1899:1918   */\n  mstore\n    /* \"#utility.yul\":1951:1955   */\n  0x20\n    /* \"#utility.yul\":1946:1949   */\n  dup3\n    /* \"#utility.yul\":1942:1956   */\n  add\n    /* \"#utility.yul\":1927:1956   */\n  swap1\n  pop\n    /* \"#utility.yul\":1793:1962   */\n  swap3\n  swap2\n  pop\n  pop\n  jump\t// out\n    /* \"#utility.yul\":1968:2206   */\ntag_31:\n    /* \"#utility.yul\":2108:2142   */\n  0x5468652073746172742074696d65206d757374206265206c6174657220746861\n    /* \"#utility.yul\":2104:2105   */\n  0x00\n    /* \"#utility.yul\":2096:2102   */\n  dup3\n    /* \"#utility.yul\":2092:2106   */\n  add\n    /* \"#utility.yul\":2085:2143   */\n  mstore\n    /* \"#utility.yul\":2177:2198   */\n  0x6e207468652063757272656e742074696d652e00000000000000000000000000\n    /* \"#utility.yul\":2172:2174   */\n  0x20\n    /* \"#utility.yul\":2164:2170   */\n  dup3\n    /* \"#utility.yul\":2160:2175   */\n  add\n    /* \"#utility.yul\":2153:2199   */\n  mstore\n    /* \"#utility.yul\":1968:2206   */\n  pop\n  jump\t// out\n    /* \"#utility.yul\":2212:2578   */\ntag_32:\n    /* \"#utility.yul\":2354:2357   */\n  0x00\n    /* \"#utility.yul\":2375:2442   */\n  tag_60\n    /* \"#utility.yul\":2439:2441   */\n  0x33\n    /* \"#utility.yul\":2434:2437   */\n  dup4\n    /* \"#utility.yul\":2375:2442   */\n  tag_30\n  jump\t// in\ntag_60:\n    /* \"#utility.yul\":2368:2442   */\n  swap2\n  pop\n    /* \"#utility.yul\":2451:2544   */\n  tag_61\n    /* \"#utility.yul\":2540:2543   */\n  dup3\n    /* \"#utility.yul\":2451:2544   */\n  tag_31\n  jump\t// in\ntag_61:\n    /* \"#utility.yul\":2569:2571   */\n  0x40\n    /* \"#utility.yul\":2564:2567   */\n  dup3\n    /* \"#utility.yul\":2560:2572   */\n  add\n    /* \"#utility.yul\":2553:2572   */\n  swap1\n  pop\n    /* \"#utility.yul\":2212:2578   */\n  swap2\n  swap1\n  pop\n  jump\t// out\n    /* \"#utility.yul\":2584:3003   */\ntag_15:\n    /* \"#utility.yul\":2750:2754   */\n  0x00\n    /* \"#utility.yul\":2788:2790   */\n  0x20\n    /* \"#utility.yul\":2777:2786   */\n  dup3\n    /* \"#utility.yul\":2773:2791   */\n  add\n    /* \"#utility.yul\":2765:2791   */\n  swap1\n  pop\n    /* \"#utility.yul\":2837:2846   */\n  dup2\n    /* \"#utility.yul\":2831:2835   */\n  dup2\n    /* \"#utility.yul\":2827:2847   */\n  sub\n    /* \"#utility.yul\":2823:2824   */\n  0x00\n    /* \"#utility.yul\":2812:2821   */\n  dup4\n    /* \"#utility.yul\":2808:2825   */\n  add\n    /* \"#utility.yul\":2801:2848   */\n  mstore\n    /* \"#utility.yul\":2865:2996   */\n  tag_63\n    /* \"#utility.yul\":2991:2995   */\n  dup2\n    /* \"#utility.yul\":2865:2996   */\n  tag_32\n  jump\t// in\ntag_63:\n    /* \"#utility.yul\":2857:2996   */\n  swap1\n  pop\n    /* \"#utility.yul\":2584:3003   */\n  swap2\n  swap1\n  pop\n  jump\t// out\n    /* \"#utility.yul\":3009:3243   */\ntag_33:\n    /* \"#utility.yul\":3149:3183   */\n  0x54686520656e642074696d65206d757374206265206c61746572207468616e20\n    /* \"#utility.yul\":3145:3146   */\n  0x00\n    /* \"#utility.yul\":3137:3143   */\n  dup3\n    /* \"#utility.yul\":3133:3147   */\n  add\n    /* \"#utility.yul\":3126:3184   */\n  mstore\n    /* \"#utility.yul\":3218:3235   */\n  0x7468652073746172742074696d652e0000000000000000000000000000000000\n    /* \"#utility.yul\":3213:3215   */\n  0x20\n    /* \"#utility.yul\":3205:3211   */\n  dup3\n    /* \"#utility.yul\":3201:3216   */\n  add\n    /* \"#utility.yul\":3194:3236   */\n  mstore\n    /* \"#utility.yul\":3009:3243   */\n  pop\n  jump\t// out\n    /* \"#utility.yul\":3249:3615   */\ntag_34:\n    /* \"#utility.yul\":3391:3394   */\n  0x00\n    /* \"#utility.yul\":3412:3479   */\n  tag_66\n    /* \"#utility.yul\":3476:3478   */\n  0x2f\n    /* \"#utility.yul\":3471:3474   */\n  dup4\n    /* \"#utility.yul\":3412:3479   */\n  tag_30\n  jump\t// in\ntag_66:\n    /* \"#utility.yul\":3405:3479   */\n  swap2\n  pop\n    /* \"#utility.yul\":3488:3581   */\n  tag_67\n    /* \"#utility.yul\":3577:3580   */\n  dup3\n    /* \"#utility.yul\":3488:3581   */\n  tag_33\n  jump\t// in\ntag_67:\n    /* \"#utility.yul\":3606:3608   */\n  0x40\n    /* \"#utility.yul\":3601:3604   */\n  dup3\n    /* \"#utility.yul\":3597:3609   */\n  add\n    /* \"#utility.yul\":3590:3609   */\n  swap1\n  pop\n    /* \"#utility.yul\":3249:3615   */\n  swap2\n  swap1\n  pop\n  jump\t// out\n    /* \"#utility.yul\":3621:4040   */\ntag_18:\n    /* \"#utility.yul\":3787:3791   */\n  0x00\n    /* \"#utility.yul\":3825:3827   */\n  0x20\n    /* \"#utility.yul\":3814:3823   */\n  dup3\n    /* \"#utility.yul\":3810:3828   */\n  add\n    /* \"#utility.yul\":3802:3828   */\n  swap1\n  pop\n    /* \"#utility.yul\":3874:3883   */\n  dup2\n    /* \"#utility.yul\":3868:3872   */\n  dup2\n    /* \"#utility.yul\":3864:3884   */\n  sub\n    /* \"#utility.yul\":3860:3861   */\n  0x00\n    /* \"#utility.yul\":3849:3858   */\n  dup4\n    /* \"#utility.yul\":3845:3862   */\n  add\n    /* \"#utility.yul\":3838:3885   */\n  mstore\n    /* \"#utility.yul\":3902:4033   */\n  tag_69\n    /* \"#utility.yul\":4028:4032   */\n  dup2\n    /* \"#utility.yul\":3902:4033   */\n  tag_34\n  jump\t// in\ntag_69:\n    /* \"#utility.yul\":3894:4033   */\n  swap1\n  pop\n    /* \"#utility.yul\":3621:4040   */\n  swap2\n  swap1\n  pop\n  jump\t// out\n    /* \"BeggingContract.sol\":142:5122  contract BeggingContract is Ownable {... */\ntag_19:\n  mload(0x80)\n  mload(0xa0)\n  codecopy(0x00, dataOffset(sub_0), dataSize(sub_0))\n  0x00\n  assignImmutable(\"0x69e3c6522a2f8bf12e780ae53c30e69d48d224ea00c92026278c398148e8df91\")\n  0x00\n  assignImmutable(\"0x9fedcbae656b90e3e39f47fe3fd17358f7efaa811276fa71a4f7681cc9e0c00a\")\n  return(0x00, dataSize(sub_0))\nstop\n\nsub_0: assembly {\n        /* \"BeggingContract.sol\":142:5122  contract BeggingContract is Ownable {... */\n      mstore(0x40, 0x80)\n      jumpi(tag_1, lt(calldatasize, 0x04))\n      shr(0xe0, calldataload(0x00))\n      dup1\n      0x78e97925\n      gt\n      tag_13\n      jumpi\n      dup1\n      0x78e97925\n      eq\n      tag_8\n      jumpi\n      dup1\n      0x8da5cb5b\n      eq\n      tag_9\n      jumpi\n      dup1\n      0xd6387ed8\n      eq\n      tag_10\n      jumpi\n      dup1\n      0xed88c68e\n      eq\n      tag_11\n      jumpi\n      dup1\n      0xf2fde38b\n      eq\n      tag_12\n      jumpi\n      jump(tag_2)\n    tag_13:\n      dup1\n      0x3197cbb6\n      eq\n      tag_3\n      jumpi\n      dup1\n      0x3ccfd60b\n      eq\n      tag_4\n      jumpi\n      dup1\n      0x410a1d32\n      eq\n      tag_5\n      jumpi\n      dup1\n      0x6f9fb98a\n      eq\n      tag_6\n      jumpi\n      dup1\n      0x715018a6\n      eq\n      tag_7\n      jumpi\n      jump(tag_2)\n    tag_1:\n      jumpi(tag_2, calldatasize)\n      stop\n    tag_2:\n      0x00\n      dup1\n      revert\n        /* \"BeggingContract.sol\":647:679  uint256 public immutable endTime */\n    tag_3:\n      callvalue\n      dup1\n      iszero\n      tag_16\n      jumpi\n      0x00\n      dup1\n      revert\n    tag_16:\n      pop\n      tag_17\n      tag_18\n      jump\t// in\n    tag_17:\n      mload(0x40)\n      tag_19\n      swap2\n      swap1\n      tag_20\n      jump\t// in\n    tag_19:\n      mload(0x40)\n      dup1\n      swap2\n      sub\n      swap1\n      return\n        /* \"BeggingContract.sol\":2699:3048  function withdraw() public onlyOwner {... */\n    tag_4:\n      callvalue\n      dup1\n      iszero\n      tag_21\n      jumpi\n      0x00\n      dup1\n      revert\n    tag_21:\n      pop\n      tag_22\n      tag_23\n      jump\t// in\n    tag_22:\n      stop\n        /* \"BeggingContract.sol\":3238:3464  function getDonation(address donor) public view returns (uint256) {... */\n    tag_5:\n      callvalue\n      dup1\n      iszero\n      tag_24\n      jumpi\n      0x00\n      dup1\n      revert\n    tag_24:\n      pop\n      tag_25\n      0x04\n      dup1\n      calldatasize\n      sub\n      dup2\n      add\n      swap1\n      tag_26\n      swap2\n      swap1\n      tag_27\n      jump\t// in\n    tag_26:\n      tag_28\n      jump\t// in\n    tag_25:\n      mload(0x40)\n      tag_29\n      swap2\n      swap1\n      tag_20\n      jump\t// in\n    tag_29:\n      mload(0x40)\n      dup1\n      swap2\n      sub\n      swap1\n      return\n        /* \"BeggingContract.sol\":4786:4893  function getContractBalance() public view returns (uint256) {... */\n    tag_6:\n      callvalue\n      dup1\n      iszero\n      tag_30\n      jumpi\n      0x00\n      dup1\n      revert\n    tag_30:\n      pop\n      tag_31\n      tag_32\n      jump\t// in\n    tag_31:\n      mload(0x40)\n      tag_33\n      swap2\n      swap1\n      tag_20\n      jump\t// in\n    tag_33:\n      mload(0x40)\n      dup1\n      swap2\n      sub\n      swap1\n      return\n        /* \"@openzeppelin/contracts/access/Ownable.sol\":2293:2394  function renounceOwnership() public virtual onlyOwner {... */\n    tag_7:\n      callvalue\n      dup1\n      iszero\n      tag_34\n      jumpi\n      0x00\n      dup1\n      revert\n    tag_34:\n      pop\n      tag_35\n      tag_36\n      jump\t// in\n    tag_35:\n      stop\n        /* \"BeggingContract.sol\":606:640  uint256 public immutable startTime */\n    tag_8:\n      callvalue\n      dup1\n      iszero\n      tag_37\n      jumpi\n      0x00\n      dup1\n      revert\n    tag_37:\n      pop\n      tag_38\n      tag_39\n      jump\t// in\n    tag_38:\n      mload(0x40)\n      tag_40\n      swap2\n      swap1\n      tag_20\n      jump\t// in\n    tag_40:\n      mload(0x40)\n      dup1\n      swap2\n      sub\n      swap1\n      return\n        /* \"@openzeppelin/contracts/access/Ownable.sol\":1638:1723  function owner() public view virtual returns (address) {... */\n    tag_9:\n      callvalue\n      dup1\n      iszero\n      tag_41\n      jumpi\n      0x00\n      dup1\n      revert\n    tag_41:\n      pop\n      tag_42\n      tag_43\n      jump\t// in\n    tag_42:\n      mload(0x40)\n      tag_44\n      swap2\n      swap1\n      tag_45\n      jump\t// in\n    tag_44:\n      mload(0x40)\n      dup1\n      swap2\n      sub\n      swap1\n      return\n        /* \"BeggingContract.sol\":3748:3884  function getTopDonors() public view returns (address[3] memory, uint256[3] memory) {... */\n    tag_10:\n      callvalue\n      dup1\n      iszero\n      tag_46\n      jumpi\n      0x00\n      dup1\n      revert\n    tag_46:\n      pop\n      tag_47\n      tag_48\n      jump\t// in\n    tag_47:\n      mload(0x40)\n      tag_49\n      swap3\n      swap2\n      swap1\n      tag_50\n      jump\t// in\n    tag_49:\n      mload(0x40)\n      dup1\n      swap2\n      sub\n      swap1\n      return\n        /* \"BeggingContract.sol\":1893:2605  function donate() public payable {... */\n    tag_11:\n      tag_51\n      tag_52\n      jump\t// in\n    tag_51:\n      stop\n        /* \"@openzeppelin/contracts/access/Ownable.sol\":2543:2758  function transferOwnership(address newOwner) public virtual onlyOwner {... */\n    tag_12:\n      callvalue\n      dup1\n      iszero\n      tag_53\n      jumpi\n      0x00\n      dup1\n      revert\n    tag_53:\n      pop\n      tag_54\n      0x04\n      dup1\n      calldatasize\n      sub\n      dup2\n      add\n      swap1\n      tag_55\n      swap2\n      swap1\n      tag_27\n      jump\t// in\n    tag_55:\n      tag_56\n      jump\t// in\n    tag_54:\n      stop\n        /* \"BeggingContract.sol\":647:679  uint256 public immutable endTime */\n    tag_18:\n      immutable(\"0x69e3c6522a2f8bf12e780ae53c30e69d48d224ea00c92026278c398148e8df91\")\n      dup2\n      jump\t// out\n        /* \"BeggingContract.sol\":2699:3048  function withdraw() public onlyOwner {... */\n    tag_23:\n        /* \"@openzeppelin/contracts/access/Ownable.sol\":1531:1544  _checkOwner() */\n      tag_58\n        /* \"@openzeppelin/contracts/access/Ownable.sol\":1531:1542  _checkOwner */\n      tag_59\n        /* \"@openzeppelin/contracts/access/Ownable.sol\":1531:1544  _checkOwner() */\n      jump\t// in\n    tag_58:\n        /* \"BeggingContract.sol\":2819:2820  0 */\n      0x00\n        /* \"BeggingContract.sol\":2795:2816  address(this).balance */\n      selfbalance\n        /* \"BeggingContract.sol\":2795:2820  address(this).balance > 0 */\n      gt\n        /* \"BeggingContract.sol\":2787:2870  require(address(this).balance > 0, \"There are no available funds in the contract.\") */\n      tag_61\n      jumpi\n      mload(0x40)\n      0x08c379a000000000000000000000000000000000000000000000000000000000\n      dup2\n      mstore\n      0x04\n      add\n      tag_62\n      swap1\n      tag_63\n      jump\t// in\n    tag_62:\n      mload(0x40)\n      dup1\n      swap2\n      sub\n      swap1\n      revert\n    tag_61:\n        /* \"BeggingContract.sol\":3000:3007  owner() */\n      tag_64\n        /* \"BeggingContract.sol\":3000:3005  owner */\n      tag_43\n        /* \"BeggingContract.sol\":3000:3007  owner() */\n      jump\t// in\n    tag_64:\n        /* \"BeggingContract.sol\":2992:3017  payable(owner()).transfer */\n      0xffffffffffffffffffffffffffffffffffffffff\n      and\n        /* \"BeggingContract.sol\":2992:3040  payable(owner()).transfer(address(this).balance) */\n      0x08fc\n        /* \"BeggingContract.sol\":3018:3039  address(this).balance */\n      selfbalance\n        /* \"BeggingContract.sol\":2992:3040  payable(owner()).transfer(address(this).balance) */\n      swap1\n      dup2\n      iszero\n      mul\n      swap1\n      mload(0x40)\n      0x00\n      mload(0x40)\n      dup1\n      dup4\n      sub\n      dup2\n      dup6\n      dup9\n      dup9\n      call\n      swap4\n      pop\n      pop\n      pop\n      pop\n      iszero\n      dup1\n      iszero\n      tag_66\n      jumpi\n      returndatasize\n      0x00\n      dup1\n      returndatacopy\n      revert(0x00, returndatasize)\n    tag_66:\n      pop\n        /* \"BeggingContract.sol\":2699:3048  function withdraw() public onlyOwner {... */\n      jump\t// out\n        /* \"BeggingContract.sol\":3238:3464  function getDonation(address donor) public view returns (uint256) {... */\n    tag_28:\n        /* \"BeggingContract.sol\":3295:3302  uint256 */\n      0x00\n        /* \"BeggingContract.sol\":3340:3341  0 */\n      dup1\n        /* \"BeggingContract.sol\":3323:3342  donor != address(0) */\n      0xffffffffffffffffffffffffffffffffffffffff\n      and\n        /* \"BeggingContract.sol\":3323:3328  donor */\n      dup3\n        /* \"BeggingContract.sol\":3323:3342  donor != address(0) */\n      0xffffffffffffffffffffffffffffffffffffffff\n      and\n      sub\n        /* \"BeggingContract.sol\":3315:3392  require(donor != address(0), \"Unable to query donations from zero addresses\") */\n      tag_68\n      jumpi\n      mload(0x40)\n      0x08c379a000000000000000000000000000000000000000000000000000000000\n      dup2\n      mstore\n      0x04\n      add\n      tag_69\n      swap1\n      tag_70\n      jump\t// in\n    tag_69:\n      mload(0x40)\n      dup1\n      swap2\n      sub\n      swap1\n      revert\n    tag_68:\n        /* \"BeggingContract.sol\":3439:3449  _donations */\n      0x01\n        /* \"BeggingContract.sol\":3439:3456  _donations[donor] */\n      0x00\n        /* \"BeggingContract.sol\":3450:3455  donor */\n      dup4\n        /* \"BeggingContract.sol\":3439:3456  _donations[donor] */\n      0xffffffffffffffffffffffffffffffffffffffff\n      and\n      0xffffffffffffffffffffffffffffffffffffffff\n      and\n      dup2\n      mstore\n      0x20\n      add\n      swap1\n      dup2\n      mstore\n      0x20\n      add\n      0x00\n      keccak256\n      sload\n        /* \"BeggingContract.sol\":3432:3456  return _donations[donor] */\n      swap1\n      pop\n        /* \"BeggingContract.sol\":3238:3464  function getDonation(address donor) public view returns (uint256) {... */\n      swap2\n      swap1\n      pop\n      jump\t// out\n        /* \"BeggingContract.sol\":4786:4893  function getContractBalance() public view returns (uint256) {... */\n    tag_32:\n        /* \"BeggingContract.sol\":4837:4844  uint256 */\n      0x00\n        /* \"BeggingContract.sol\":4864:4885  address(this).balance */\n      selfbalance\n        /* \"BeggingContract.sol\":4857:4885  return address(this).balance */\n      swap1\n      pop\n        /* \"BeggingContract.sol\":4786:4893  function getContractBalance() public view returns (uint256) {... */\n      swap1\n      jump\t// out\n        /* \"@openzeppelin/contracts/access/Ownable.sol\":2293:2394  function renounceOwnership() public virtual onlyOwner {... */\n    tag_36:\n        /* \"@openzeppelin/contracts/access/Ownable.sol\":1531:1544  _checkOwner() */\n      tag_73\n        /* \"@openzeppelin/contracts/access/Ownable.sol\":1531:1542  _checkOwner */\n      tag_59\n        /* \"@openzeppelin/contracts/access/Ownable.sol\":1531:1544  _checkOwner() */\n      jump\t// in\n    tag_73:\n        /* \"@openzeppelin/contracts/access/Ownable.sol\":2357:2387  _transferOwnership(address(0)) */\n      tag_75\n        /* \"@openzeppelin/contracts/access/Ownable.sol\":2384:2385  0 */\n      0x00\n        /* \"@openzeppelin/contracts/access/Ownable.sol\":2357:2375  _transferOwnership */\n      tag_76\n        /* \"@openzeppelin/contracts/access/Ownable.sol\":2357:2387  _transferOwnership(address(0)) */\n      jump\t// in\n    tag_75:\n        /* \"@openzeppelin/contracts/access/Ownable.sol\":2293:2394  function renounceOwnership() public virtual onlyOwner {... */\n      jump\t// out\n        /* \"BeggingContract.sol\":606:640  uint256 public immutable startTime */\n    tag_39:\n      immutable(\"0x9fedcbae656b90e3e39f47fe3fd17358f7efaa811276fa71a4f7681cc9e0c00a\")\n      dup2\n      jump\t// out\n        /* \"@openzeppelin/contracts/access/Ownable.sol\":1638:1723  function owner() public view virtual returns (address) {... */\n    tag_43:\n        /* \"@openzeppelin/contracts/access/Ownable.sol\":1684:1691  address */\n      0x00\n        /* \"@openzeppelin/contracts/access/Ownable.sol\":1710:1716  _owner */\n      dup1\n      0x00\n      swap1\n      sload\n      swap1\n      0x0100\n      exp\n      swap1\n      div\n      0xffffffffffffffffffffffffffffffffffffffff\n      and\n        /* \"@openzeppelin/contracts/access/Ownable.sol\":1703:1716  return _owner */\n      swap1\n      pop\n        /* \"@openzeppelin/contracts/access/Ownable.sol\":1638:1723  function owner() public view virtual returns (address) {... */\n      swap1\n      jump\t// out\n        /* \"BeggingContract.sol\":3748:3884  function getTopDonors() public view returns (address[3] memory, uint256[3] memory) {... */\n    tag_48:\n        /* \"BeggingContract.sol\":3793:3810  address[3] memory */\n      tag_78\n      tag_79\n      jump\t// in\n    tag_78:\n        /* \"BeggingContract.sol\":3812:3829  uint256[3] memory */\n      tag_80\n      tag_81\n      jump\t// in\n    tag_80:\n        /* \"BeggingContract.sol\":3850:3860  _topDonors */\n      0x02\n        /* \"BeggingContract.sol\":3862:3875  _topDonations */\n      0x05\n        /* \"BeggingContract.sol\":3842:3876  return (_topDonors, _topDonations) */\n      dup2\n      0x03\n      dup1\n      0x20\n      mul\n      mload(0x40)\n      swap1\n      dup2\n      add\n      0x40\n      mstore\n      dup1\n      swap3\n      swap2\n      swap1\n      dup3\n      0x03\n      dup1\n      iszero\n      tag_83\n      jumpi\n      0x20\n      mul\n      dup3\n      add\n      swap2\n    tag_84:\n      dup2\n      0x00\n      swap1\n      sload\n      swap1\n      0x0100\n      exp\n      swap1\n      div\n      0xffffffffffffffffffffffffffffffffffffffff\n      and\n      0xffffffffffffffffffffffffffffffffffffffff\n      and\n      dup2\n      mstore\n      0x20\n      add\n      swap1\n      0x01\n      add\n      swap1\n      dup1\n      dup4\n      gt\n      tag_84\n      jumpi\n    tag_83:\n      pop\n      pop\n      pop\n      pop\n      pop\n      swap2\n      pop\n      dup1\n      0x03\n      dup1\n      0x20\n      mul\n      mload(0x40)\n      swap1\n      dup2\n      add\n      0x40\n      mstore\n      dup1\n      swap3\n      swap2\n      swap1\n      dup3\n      0x03\n      dup1\n      iszero\n      tag_85\n      jumpi\n      0x20\n      mul\n      dup3\n      add\n      swap2\n    tag_86:\n      dup2\n      sload\n      dup2\n      mstore\n      0x20\n      add\n      swap1\n      0x01\n      add\n      swap1\n      dup1\n      dup4\n      gt\n      tag_86\n      jumpi\n    tag_85:\n      pop\n      pop\n      pop\n      pop\n      pop\n      swap1\n      pop\n      swap2\n      pop\n      swap2\n      pop\n        /* \"BeggingContract.sol\":3748:3884  function getTopDonors() public view returns (address[3] memory, uint256[3] memory) {... */\n      swap1\n      swap2\n      jump\t// out\n        /* \"BeggingContract.sol\":1893:2605  function donate() public payable {... */\n    tag_52:\n        /* \"BeggingContract.sol\":2010:2019  startTime */\n      immutable(\"0x9fedcbae656b90e3e39f47fe3fd17358f7efaa811276fa71a4f7681cc9e0c00a\")\n        /* \"BeggingContract.sol\":1991:2006  block.timestamp */\n      timestamp\n        /* \"BeggingContract.sol\":1991:2019  block.timestamp >= startTime */\n      lt\n      iszero\n        /* \"BeggingContract.sol\":1991:2049  block.timestamp >= startTime && block.timestamp <= endTime */\n      dup1\n      iszero\n      tag_88\n      jumpi\n      pop\n        /* \"BeggingContract.sol\":2042:2049  endTime */\n      immutable(\"0x69e3c6522a2f8bf12e780ae53c30e69d48d224ea00c92026278c398148e8df91\")\n        /* \"BeggingContract.sol\":2023:2038  block.timestamp */\n      timestamp\n        /* \"BeggingContract.sol\":2023:2049  block.timestamp <= endTime */\n      gt\n      iszero\n        /* \"BeggingContract.sol\":1991:2049  block.timestamp >= startTime && block.timestamp <= endTime */\n    tag_88:\n        /* \"BeggingContract.sol\":1983:2091  require(block.timestamp >= startTime && block.timestamp <= endTime, \"Currently outside the donation period\") */\n      tag_89\n      jumpi\n      mload(0x40)\n      0x08c379a000000000000000000000000000000000000000000000000000000000\n      dup2\n      mstore\n      0x04\n      add\n      tag_90\n      swap1\n      tag_91\n      jump\t// in\n    tag_90:\n      mload(0x40)\n      dup1\n      swap2\n      sub\n      swap1\n      revert\n    tag_89:\n        /* \"BeggingContract.sol\":2193:2194  0 */\n      0x00\n        /* \"BeggingContract.sol\":2181:2190  msg.value */\n      callvalue\n        /* \"BeggingContract.sol\":2181:2194  msg.value > 0 */\n      gt\n        /* \"BeggingContract.sol\":2173:2231  require(msg.value > 0, \"The donation amount cannot be 0.\") */\n      tag_92\n      jumpi\n      mload(0x40)\n      0x08c379a000000000000000000000000000000000000000000000000000000000\n      dup2\n      mstore\n      0x04\n      add\n      tag_93\n      swap1\n      tag_94\n      jump\t// in\n    tag_93:\n      mload(0x40)\n      dup1\n      swap2\n      sub\n      swap1\n      revert\n    tag_92:\n        /* \"BeggingContract.sol\":2268:2281  address donor */\n      0x00\n        /* \"BeggingContract.sol\":2284:2294  msg.sender */\n      caller\n        /* \"BeggingContract.sol\":2268:2294  address donor = msg.sender */\n      swap1\n      pop\n        /* \"BeggingContract.sol\":2305:2319  uint256 amount */\n      0x00\n        /* \"BeggingContract.sol\":2322:2331  msg.value */\n      callvalue\n        /* \"BeggingContract.sol\":2305:2331  uint256 amount = msg.value */\n      swap1\n      pop\n        /* \"BeggingContract.sol\":2396:2402  amount */\n      dup1\n        /* \"BeggingContract.sol\":2375:2385  _donations */\n      0x01\n        /* \"BeggingContract.sol\":2375:2392  _donations[donor] */\n      0x00\n        /* \"BeggingContract.sol\":2386:2391  donor */\n      dup5\n        /* \"BeggingContract.sol\":2375:2392  _donations[donor] */\n      0xffffffffffffffffffffffffffffffffffffffff\n      and\n      0xffffffffffffffffffffffffffffffffffffffff\n      and\n      dup2\n      mstore\n      0x20\n      add\n      swap1\n      dup2\n      mstore\n      0x20\n      add\n      0x00\n      keccak256\n      0x00\n        /* \"BeggingContract.sol\":2375:2402  _donations[donor] += amount */\n      dup3\n      dup3\n      sload\n      tag_95\n      swap2\n      swap1\n      tag_96\n      jump\t// in\n    tag_95:\n      swap3\n      pop\n      pop\n      dup2\n      swap1\n      sstore\n      pop\n        /* \"BeggingContract.sol\":2467:2508  updateTopDonors(donor, _donations[donor]) */\n      tag_97\n        /* \"BeggingContract.sol\":2483:2488  donor */\n      dup3\n        /* \"BeggingContract.sol\":2490:2500  _donations */\n      0x01\n        /* \"BeggingContract.sol\":2490:2507  _donations[donor] */\n      0x00\n        /* \"BeggingContract.sol\":2501:2506  donor */\n      dup6\n        /* \"BeggingContract.sol\":2490:2507  _donations[donor] */\n      0xffffffffffffffffffffffffffffffffffffffff\n      and\n      0xffffffffffffffffffffffffffffffffffffffff\n      and\n      dup2\n      mstore\n      0x20\n      add\n      swap1\n      dup2\n      mstore\n      0x20\n      add\n      0x00\n      keccak256\n      sload\n        /* \"BeggingContract.sol\":2467:2482  updateTopDonors */\n      tag_98\n        /* \"BeggingContract.sol\":2467:2508  updateTopDonors(donor, _donations[donor]) */\n      jump\t// in\n    tag_97:\n        /* \"BeggingContract.sol\":2566:2571  donor */\n      dup2\n        /* \"BeggingContract.sol\":2557:2597  Donation(donor, amount, block.timestamp) */\n      0xffffffffffffffffffffffffffffffffffffffff\n      and\n      0x106aac375bbcf013d1e52338bbf9e740009a1a3a6869f8daa1b72aa1620f5fec\n        /* \"BeggingContract.sol\":2573:2579  amount */\n      dup3\n        /* \"BeggingContract.sol\":2581:2596  block.timestamp */\n      timestamp\n        /* \"BeggingContract.sol\":2557:2597  Donation(donor, amount, block.timestamp) */\n      mload(0x40)\n      tag_99\n      swap3\n      swap2\n      swap1\n      tag_100\n      jump\t// in\n    tag_99:\n      mload(0x40)\n      dup1\n      swap2\n      sub\n      swap1\n      log2\n        /* \"BeggingContract.sol\":1926:2605  {... */\n      pop\n      pop\n        /* \"BeggingContract.sol\":1893:2605  function donate() public payable {... */\n      jump\t// out\n        /* \"@openzeppelin/contracts/access/Ownable.sol\":2543:2758  function transferOwnership(address newOwner) public virtual onlyOwner {... */\n    tag_56:\n        /* \"@openzeppelin/contracts/access/Ownable.sol\":1531:1544  _checkOwner() */\n      tag_102\n        /* \"@openzeppelin/contracts/access/Ownable.sol\":1531:1542  _checkOwner */\n      tag_59\n        /* \"@openzeppelin/contracts/access/Ownable.sol\":1531:1544  _checkOwner() */\n      jump\t// in\n    tag_102:\n        /* \"@openzeppelin/contracts/access/Ownable.sol\":2647:2648  0 */\n      0x00\n        /* \"@openzeppelin/contracts/access/Ownable.sol\":2627:2649  newOwner == address(0) */\n      0xffffffffffffffffffffffffffffffffffffffff\n      and\n        /* \"@openzeppelin/contracts/access/Ownable.sol\":2627:2635  newOwner */\n      dup2\n        /* \"@openzeppelin/contracts/access/Ownable.sol\":2627:2649  newOwner == address(0) */\n      0xffffffffffffffffffffffffffffffffffffffff\n      and\n      sub\n        /* \"@openzeppelin/contracts/access/Ownable.sol\":2623:2714  if (newOwner == address(0)) {... */\n      tag_104\n      jumpi\n        /* \"@openzeppelin/contracts/access/Ownable.sol\":2700:2701  0 */\n      0x00\n        /* \"@openzeppelin/contracts/access/Ownable.sol\":2672:2703  OwnableInvalidOwner(address(0)) */\n      mload(0x40)\n      0x1e4fbdf700000000000000000000000000000000000000000000000000000000\n      dup2\n      mstore\n      0x04\n      add\n      tag_105\n      swap2\n      swap1\n      tag_45\n      jump\t// in\n    tag_105:\n      mload(0x40)\n      dup1\n      swap2\n      sub\n      swap1\n      revert\n        /* \"@openzeppelin/contracts/access/Ownable.sol\":2623:2714  if (newOwner == address(0)) {... */\n    tag_104:\n        /* \"@openzeppelin/contracts/access/Ownable.sol\":2723:2751  _transferOwnership(newOwner) */\n      tag_106\n        /* \"@openzeppelin/contracts/access/Ownable.sol\":2742:2750  newOwner */\n      dup2\n        /* \"@openzeppelin/contracts/access/Ownable.sol\":2723:2741  _transferOwnership */\n      tag_76\n        /* \"@openzeppelin/contracts/access/Ownable.sol\":2723:2751  _transferOwnership(newOwner) */\n      jump\t// in\n    tag_106:\n        /* \"@openzeppelin/contracts/access/Ownable.sol\":2543:2758  function transferOwnership(address newOwner) public virtual onlyOwner {... */\n      pop\n      jump\t// out\n        /* \"@openzeppelin/contracts/access/Ownable.sol\":1796:1958  function _checkOwner() internal view virtual {... */\n    tag_59:\n        /* \"@openzeppelin/contracts/access/Ownable.sol\":1866:1878  _msgSender() */\n      tag_108\n        /* \"@openzeppelin/contracts/access/Ownable.sol\":1866:1876  _msgSender */\n      tag_109\n        /* \"@openzeppelin/contracts/access/Ownable.sol\":1866:1878  _msgSender() */\n      jump\t// in\n    tag_108:\n        /* \"@openzeppelin/contracts/access/Ownable.sol\":1855:1878  owner() != _msgSender() */\n      0xffffffffffffffffffffffffffffffffffffffff\n      and\n        /* \"@openzeppelin/contracts/access/Ownable.sol\":1855:1862  owner() */\n      tag_110\n        /* \"@openzeppelin/contracts/access/Ownable.sol\":1855:1860  owner */\n      tag_43\n        /* \"@openzeppelin/contracts/access/Ownable.sol\":1855:1862  owner() */\n      jump\t// in\n    tag_110:\n        /* \"@openzeppelin/contracts/access/Ownable.sol\":1855:1878  owner() != _msgSender() */\n      0xffffffffffffffffffffffffffffffffffffffff\n      and\n      eq\n        /* \"@openzeppelin/contracts/access/Ownable.sol\":1851:1952  if (owner() != _msgSender()) {... */\n      tag_111\n      jumpi\n        /* \"@openzeppelin/contracts/access/Ownable.sol\":1928:1940  _msgSender() */\n      tag_112\n        /* \"@openzeppelin/contracts/access/Ownable.sol\":1928:1938  _msgSender */\n      tag_109\n        /* \"@openzeppelin/contracts/access/Ownable.sol\":1928:1940  _msgSender() */\n      jump\t// in\n    tag_112:\n        /* \"@openzeppelin/contracts/access/Ownable.sol\":1901:1941  OwnableUnauthorizedAccount(_msgSender()) */\n      mload(0x40)\n      0x118cdaa700000000000000000000000000000000000000000000000000000000\n      dup2\n      mstore\n      0x04\n      add\n      tag_113\n      swap2\n      swap1\n      tag_45\n      jump\t// in\n    tag_113:\n      mload(0x40)\n      dup1\n      swap2\n      sub\n      swap1\n      revert\n        /* \"@openzeppelin/contracts/access/Ownable.sol\":1851:1952  if (owner() != _msgSender()) {... */\n    tag_111:\n        /* \"@openzeppelin/contracts/access/Ownable.sol\":1796:1958  function _checkOwner() internal view virtual {... */\n      jump\t// out\n        /* \"@openzeppelin/contracts/access/Ownable.sol\":2912:3099  function _transferOwnership(address newOwner) internal virtual {... */\n    tag_76:\n        /* \"@openzeppelin/contracts/access/Ownable.sol\":2985:3001  address oldOwner */\n      0x00\n        /* \"@openzeppelin/contracts/access/Ownable.sol\":3004:3010  _owner */\n      dup1\n      0x00\n      swap1\n      sload\n      swap1\n      0x0100\n      exp\n      swap1\n      div\n      0xffffffffffffffffffffffffffffffffffffffff\n      and\n        /* \"@openzeppelin/contracts/access/Ownable.sol\":2985:3010  address oldOwner = _owner */\n      swap1\n      pop\n        /* \"@openzeppelin/contracts/access/Ownable.sol\":3029:3037  newOwner */\n      dup2\n        /* \"@openzeppelin/contracts/access/Ownable.sol\":3020:3026  _owner */\n      0x00\n      dup1\n        /* \"@openzeppelin/contracts/access/Ownable.sol\":3020:3037  _owner = newOwner */\n      0x0100\n      exp\n      dup2\n      sload\n      dup2\n      0xffffffffffffffffffffffffffffffffffffffff\n      mul\n      not\n      and\n      swap1\n      dup4\n      0xffffffffffffffffffffffffffffffffffffffff\n      and\n      mul\n      or\n      swap1\n      sstore\n      pop\n        /* \"@openzeppelin/contracts/access/Ownable.sol\":3083:3091  newOwner */\n      dup2\n        /* \"@openzeppelin/contracts/access/Ownable.sol\":3052:3092  OwnershipTransferred(oldOwner, newOwner) */\n      0xffffffffffffffffffffffffffffffffffffffff\n      and\n        /* \"@openzeppelin/contracts/access/Ownable.sol\":3073:3081  oldOwner */\n      dup2\n        /* \"@openzeppelin/contracts/access/Ownable.sol\":3052:3092  OwnershipTransferred(oldOwner, newOwner) */\n      0xffffffffffffffffffffffffffffffffffffffff\n      and\n      0x8be0079c531659141344cd1fd0a4f28419497f9722a3daafe3b4186f6b6457e0\n      mload(0x40)\n      mload(0x40)\n      dup1\n      swap2\n      sub\n      swap1\n      log3\n        /* \"@openzeppelin/contracts/access/Ownable.sol\":2975:3099  {... */\n      pop\n        /* \"@openzeppelin/contracts/access/Ownable.sol\":2912:3099  function _transferOwnership(address newOwner) internal virtual {... */\n      pop\n      jump\t// out\n        /* \"BeggingContract.sol\":3960:4658  function updateTopDonors(address donor, uint256 totalDonation) internal {... */\n    tag_98:\n        /* \"BeggingContract.sol\":4107:4116  uint256 i */\n      0x00\n        /* \"BeggingContract.sol\":4102:4651  for (uint256 i = 0; i < 3; i++) {... */\n    tag_116:\n        /* \"BeggingContract.sol\":4126:4127  3 */\n      0x03\n        /* \"BeggingContract.sol\":4122:4123  i */\n      dup2\n        /* \"BeggingContract.sol\":4122:4127  i < 3 */\n      lt\n        /* \"BeggingContract.sol\":4102:4651  for (uint256 i = 0; i < 3; i++) {... */\n      iszero\n      tag_117\n      jumpi\n        /* \"BeggingContract.sol\":4169:4182  _topDonations */\n      0x05\n        /* \"BeggingContract.sol\":4183:4184  i */\n      dup2\n        /* \"BeggingContract.sol\":4169:4185  _topDonations[i] */\n      0x03\n      dup2\n      lt\n      tag_119\n      jumpi\n      tag_120\n      tag_121\n      jump\t// in\n    tag_120:\n    tag_119:\n      add\n      sload\n        /* \"BeggingContract.sol\":4153:4166  totalDonation */\n      dup3\n        /* \"BeggingContract.sol\":4153:4185  totalDonation > _topDonations[i] */\n      gt\n        /* \"BeggingContract.sol\":4149:4640  if (totalDonation > _topDonations[i]) {... */\n      iszero\n      tag_123\n      jumpi\n        /* \"BeggingContract.sol\":4287:4288  2 */\n      0x02\n        /* \"BeggingContract.sol\":4283:4284  i */\n      dup2\n        /* \"BeggingContract.sol\":4283:4288  i < 2 */\n      lt\n        /* \"BeggingContract.sol\":4279:4424  if (i < 2) {... */\n      iszero\n      tag_124\n      jumpi\n        /* \"BeggingContract.sol\":4331:4341  _topDonors */\n      0x02\n        /* \"BeggingContract.sol\":4342:4343  i */\n      dup2\n        /* \"BeggingContract.sol\":4331:4344  _topDonors[i] */\n      0x03\n      dup2\n      lt\n      tag_125\n      jumpi\n      tag_126\n      tag_121\n      jump\t// in\n    tag_126:\n    tag_125:\n      add\n      0x00\n      swap1\n      sload\n      swap1\n      0x0100\n      exp\n      swap1\n      div\n      0xffffffffffffffffffffffffffffffffffffffff\n      and\n        /* \"BeggingContract.sol\":4313:4323  _topDonors */\n      0x02\n        /* \"BeggingContract.sol\":4326:4327  1 */\n      0x01\n        /* \"BeggingContract.sol\":4324:4325  i */\n      dup4\n        /* \"BeggingContract.sol\":4324:4327  i+1 */\n      tag_128\n      swap2\n      swap1\n      tag_96\n      jump\t// in\n    tag_128:\n        /* \"BeggingContract.sol\":4313:4328  _topDonors[i+1] */\n      0x03\n      dup2\n      lt\n      tag_129\n      jumpi\n      tag_130\n      tag_121\n      jump\t// in\n    tag_130:\n    tag_129:\n      add\n      0x00\n        /* \"BeggingContract.sol\":4313:4344  _topDonors[i+1] = _topDonors[i] */\n      0x0100\n      exp\n      dup2\n      sload\n      dup2\n      0xffffffffffffffffffffffffffffffffffffffff\n      mul\n      not\n      and\n      swap1\n      dup4\n      0xffffffffffffffffffffffffffffffffffffffff\n      and\n      mul\n      or\n      swap1\n      sstore\n      pop\n        /* \"BeggingContract.sol\":4388:4401  _topDonations */\n      0x05\n        /* \"BeggingContract.sol\":4402:4403  i */\n      dup2\n        /* \"BeggingContract.sol\":4388:4404  _topDonations[i] */\n      0x03\n      dup2\n      lt\n      tag_132\n      jumpi\n      tag_133\n      tag_121\n      jump\t// in\n    tag_133:\n    tag_132:\n      add\n      sload\n        /* \"BeggingContract.sol\":4367:4380  _topDonations */\n      0x05\n        /* \"BeggingContract.sol\":4383:4384  1 */\n      0x01\n        /* \"BeggingContract.sol\":4381:4382  i */\n      dup4\n        /* \"BeggingContract.sol\":4381:4384  i+1 */\n      tag_135\n      swap2\n      swap1\n      tag_96\n      jump\t// in\n    tag_135:\n        /* \"BeggingContract.sol\":4367:4385  _topDonations[i+1] */\n      0x03\n      dup2\n      lt\n      tag_136\n      jumpi\n      tag_137\n      tag_121\n      jump\t// in\n    tag_137:\n    tag_136:\n      add\n        /* \"BeggingContract.sol\":4367:4404  _topDonations[i+1] = _topDonations[i] */\n      dup2\n      swap1\n      sstore\n      pop\n        /* \"BeggingContract.sol\":4279:4424  if (i < 2) {... */\n    tag_124:\n        /* \"BeggingContract.sol\":4510:4515  donor */\n      dup3\n        /* \"BeggingContract.sol\":4494:4504  _topDonors */\n      0x02\n        /* \"BeggingContract.sol\":4505:4506  i */\n      dup3\n        /* \"BeggingContract.sol\":4494:4507  _topDonors[i] */\n      0x03\n      dup2\n      lt\n      tag_139\n      jumpi\n      tag_140\n      tag_121\n      jump\t// in\n    tag_140:\n    tag_139:\n      add\n      0x00\n        /* \"BeggingContract.sol\":4494:4515  _topDonors[i] = donor */\n      0x0100\n      exp\n      dup2\n      sload\n      dup2\n      0xffffffffffffffffffffffffffffffffffffffff\n      mul\n      not\n      and\n      swap1\n      dup4\n      0xffffffffffffffffffffffffffffffffffffffff\n      and\n      mul\n      or\n      swap1\n      sstore\n      pop\n        /* \"BeggingContract.sol\":4553:4566  totalDonation */\n      dup2\n        /* \"BeggingContract.sol\":4534:4547  _topDonations */\n      0x05\n        /* \"BeggingContract.sol\":4548:4549  i */\n      dup3\n        /* \"BeggingContract.sol\":4534:4550  _topDonations[i] */\n      0x03\n      dup2\n      lt\n      tag_142\n      jumpi\n      tag_143\n      tag_121\n      jump\t// in\n    tag_143:\n    tag_142:\n      add\n        /* \"BeggingContract.sol\":4534:4566  _topDonations[i] = totalDonation */\n      dup2\n      swap1\n      sstore\n      pop\n        /* \"BeggingContract.sol\":4585:4590  break */\n      jump(tag_117)\n        /* \"BeggingContract.sol\":4149:4640  if (totalDonation > _topDonations[i]) {... */\n    tag_123:\n        /* \"BeggingContract.sol\":4129:4132  i++ */\n      dup1\n      dup1\n      tag_145\n      swap1\n      tag_146\n      jump\t// in\n    tag_145:\n      swap2\n      pop\n      pop\n        /* \"BeggingContract.sol\":4102:4651  for (uint256 i = 0; i < 3; i++) {... */\n      jump(tag_116)\n    tag_117:\n      pop\n        /* \"BeggingContract.sol\":3960:4658  function updateTopDonors(address donor, uint256 totalDonation) internal {... */\n      pop\n      pop\n      jump\t// out\n        /* \"@openzeppelin/contracts/utils/Context.sol\":656:752  function _msgSender() internal view virtual returns (address) {... */\n    tag_109:\n        /* \"@openzeppelin/contracts/utils/Context.sol\":709:716  address */\n      0x00\n        /* \"@openzeppelin/contracts/utils/Context.sol\":735:745  msg.sender */\n      caller\n        /* \"@openzeppelin/contracts/utils/Context.sol\":728:745  return msg.sender */\n      swap1\n      pop\n        /* \"@openzeppelin/contracts/utils/Context.sol\":656:752  function _msgSender() internal view virtual returns (address) {... */\n      swap1\n      jump\t// out\n    tag_79:\n      mload(0x40)\n      dup1\n      0x60\n      add\n      0x40\n      mstore\n      dup1\n      0x03\n      swap1\n      0x20\n      dup3\n      mul\n      dup1\n      calldatasize\n      dup4\n      calldatacopy\n      dup1\n      dup3\n      add\n      swap2\n      pop\n      pop\n      swap1\n      pop\n      pop\n      swap1\n      jump\t// out\n    tag_81:\n      mload(0x40)\n      dup1\n      0x60\n      add\n      0x40\n      mstore\n      dup1\n      0x03\n      swap1\n      0x20\n      dup3\n      mul\n      dup1\n      calldatasize\n      dup4\n      calldatacopy\n      dup1\n      dup3\n      add\n      swap2\n      pop\n      pop\n      swap1\n      pop\n      pop\n      swap1\n      jump\t// out\n        /* \"#utility.yul\":7:84   */\n    tag_148:\n        /* \"#utility.yul\":44:51   */\n      0x00\n        /* \"#utility.yul\":73:78   */\n      dup2\n        /* \"#utility.yul\":62:78   */\n      swap1\n      pop\n        /* \"#utility.yul\":7:84   */\n      swap2\n      swap1\n      pop\n      jump\t// out\n        /* \"#utility.yul\":90:208   */\n    tag_149:\n        /* \"#utility.yul\":177:201   */\n      tag_185\n        /* \"#utility.yul\":195:200   */\n      dup2\n        /* \"#utility.yul\":177:201   */\n      tag_148\n      jump\t// in\n    tag_185:\n        /* \"#utility.yul\":172:175   */\n      dup3\n        /* \"#utility.yul\":165:202   */\n      mstore\n        /* \"#utility.yul\":90:208   */\n      pop\n      pop\n      jump\t// out\n        /* \"#utility.yul\":214:436   */\n    tag_20:\n        /* \"#utility.yul\":307:311   */\n      0x00\n        /* \"#utility.yul\":345:347   */\n      0x20\n        /* \"#utility.yul\":334:343   */\n      dup3\n        /* \"#utility.yul\":330:348   */\n      add\n        /* \"#utility.yul\":322:348   */\n      swap1\n      pop\n        /* \"#utility.yul\":358:429   */\n      tag_187\n        /* \"#utility.yul\":426:427   */\n      0x00\n        /* \"#utility.yul\":415:424   */\n      dup4\n        /* \"#utility.yul\":411:428   */\n      add\n        /* \"#utility.yul\":402:408   */\n      dup5\n        /* \"#utility.yul\":358:429   */\n      tag_149\n      jump\t// in\n    tag_187:\n        /* \"#utility.yul\":214:436   */\n      swap3\n      swap2\n      pop\n      pop\n      jump\t// out\n        /* \"#utility.yul\":523:640   */\n    tag_151:\n        /* \"#utility.yul\":632:633   */\n      0x00\n        /* \"#utility.yul\":629:630   */\n      dup1\n        /* \"#utility.yul\":622:634   */\n      revert\n        /* \"#utility.yul\":769:895   */\n    tag_153:\n        /* \"#utility.yul\":806:813   */\n      0x00\n        /* \"#utility.yul\":846:888   */\n      0xffffffffffffffffffffffffffffffffffffffff\n        /* \"#utility.yul\":839:844   */\n      dup3\n        /* \"#utility.yul\":835:889   */\n      and\n        /* \"#utility.yul\":824:889   */\n      swap1\n      pop\n        /* \"#utility.yul\":769:895   */\n      swap2\n      swap1\n      pop\n      jump\t// out\n        /* \"#utility.yul\":901:997   */\n    tag_154:\n        /* \"#utility.yul\":938:945   */\n      0x00\n        /* \"#utility.yul\":967:991   */\n      tag_193\n        /* \"#utility.yul\":985:990   */\n      dup3\n        /* \"#utility.yul\":967:991   */\n      tag_153\n      jump\t// in\n    tag_193:\n        /* \"#utility.yul\":956:991   */\n      swap1\n      pop\n        /* \"#utility.yul\":901:997   */\n      swap2\n      swap1\n      pop\n      jump\t// out\n        /* \"#utility.yul\":1003:1125   */\n    tag_155:\n        /* \"#utility.yul\":1076:1100   */\n      tag_195\n        /* \"#utility.yul\":1094:1099   */\n      dup2\n        /* \"#utility.yul\":1076:1100   */\n      tag_154\n      jump\t// in\n    tag_195:\n        /* \"#utility.yul\":1069:1074   */\n      dup2\n        /* \"#utility.yul\":1066:1101   */\n      eq\n        /* \"#utility.yul\":1056:1119   */\n      tag_196\n      jumpi\n        /* \"#utility.yul\":1115:1116   */\n      0x00\n        /* \"#utility.yul\":1112:1113   */\n      dup1\n        /* \"#utility.yul\":1105:1117   */\n      revert\n        /* \"#utility.yul\":1056:1119   */\n    tag_196:\n        /* \"#utility.yul\":1003:1125   */\n      pop\n      jump\t// out\n        /* \"#utility.yul\":1131:1270   */\n    tag_156:\n        /* \"#utility.yul\":1177:1182   */\n      0x00\n        /* \"#utility.yul\":1215:1221   */\n      dup2\n        /* \"#utility.yul\":1202:1222   */\n      calldataload\n        /* \"#utility.yul\":1193:1222   */\n      swap1\n      pop\n        /* \"#utility.yul\":1231:1264   */\n      tag_198\n        /* \"#utility.yul\":1258:1263   */\n      dup2\n        /* \"#utility.yul\":1231:1264   */\n      tag_155\n      jump\t// in\n    tag_198:\n        /* \"#utility.yul\":1131:1270   */\n      swap3\n      swap2\n      pop\n      pop\n      jump\t// out\n        /* \"#utility.yul\":1276:1605   */\n    tag_27:\n        /* \"#utility.yul\":1335:1341   */\n      0x00\n        /* \"#utility.yul\":1384:1386   */\n      0x20\n        /* \"#utility.yul\":1372:1381   */\n      dup3\n        /* \"#utility.yul\":1363:1370   */\n      dup5\n        /* \"#utility.yul\":1359:1382   */\n      sub\n        /* \"#utility.yul\":1355:1387   */\n      slt\n        /* \"#utility.yul\":1352:1471   */\n      iszero\n      tag_200\n      jumpi\n        /* \"#utility.yul\":1390:1469   */\n      tag_201\n      tag_151\n      jump\t// in\n    tag_201:\n        /* \"#utility.yul\":1352:1471   */\n    tag_200:\n        /* \"#utility.yul\":1510:1511   */\n      0x00\n        /* \"#utility.yul\":1535:1588   */\n      tag_202\n        /* \"#utility.yul\":1580:1587   */\n      dup5\n        /* \"#utility.yul\":1571:1577   */\n      dup3\n        /* \"#utility.yul\":1560:1569   */\n      dup6\n        /* \"#utility.yul\":1556:1578   */\n      add\n        /* \"#utility.yul\":1535:1588   */\n      tag_156\n      jump\t// in\n    tag_202:\n        /* \"#utility.yul\":1525:1588   */\n      swap2\n      pop\n        /* \"#utility.yul\":1481:1598   */\n      pop\n        /* \"#utility.yul\":1276:1605   */\n      swap3\n      swap2\n      pop\n      pop\n      jump\t// out\n        /* \"#utility.yul\":1611:1729   */\n    tag_157:\n        /* \"#utility.yul\":1698:1722   */\n      tag_204\n        /* \"#utility.yul\":1716:1721   */\n      dup2\n        /* \"#utility.yul\":1698:1722   */\n      tag_154\n      jump\t// in\n    tag_204:\n        /* \"#utility.yul\":1693:1696   */\n      dup3\n        /* \"#utility.yul\":1686:1723   */\n      mstore\n        /* \"#utility.yul\":1611:1729   */\n      pop\n      pop\n      jump\t// out\n        /* \"#utility.yul\":1735:1957   */\n    tag_45:\n        /* \"#utility.yul\":1828:1832   */\n      0x00\n        /* \"#utility.yul\":1866:1868   */\n      0x20\n        /* \"#utility.yul\":1855:1864   */\n      dup3\n        /* \"#utility.yul\":1851:1869   */\n      add\n        /* \"#utility.yul\":1843:1869   */\n      swap1\n      pop\n        /* \"#utility.yul\":1879:1950   */\n      tag_206\n        /* \"#utility.yul\":1947:1948   */\n      0x00\n        /* \"#utility.yul\":1936:1945   */\n      dup4\n        /* \"#utility.yul\":1932:1949   */\n      add\n        /* \"#utility.yul\":1923:1929   */\n      dup5\n        /* \"#utility.yul\":1879:1950   */\n      tag_157\n      jump\t// in\n    tag_206:\n        /* \"#utility.yul\":1735:1957   */\n      swap3\n      swap2\n      pop\n      pop\n      jump\t// out\n        /* \"#utility.yul\":1963:2067   */\n    tag_158:\n        /* \"#utility.yul\":2028:2034   */\n      0x00\n        /* \"#utility.yul\":2056:2060   */\n      0x03\n        /* \"#utility.yul\":2046:2060   */\n      swap1\n      pop\n        /* \"#utility.yul\":1963:2067   */\n      swap2\n      swap1\n      pop\n      jump\t// out\n        /* \"#utility.yul\":2073:2216   */\n    tag_159:\n        /* \"#utility.yul\":2170:2181   */\n      0x00\n        /* \"#utility.yul\":2207:2210   */\n      dup2\n        /* \"#utility.yul\":2192:2210   */\n      swap1\n      pop\n        /* \"#utility.yul\":2073:2216   */\n      swap3\n      swap2\n      pop\n      pop\n      jump\t// out\n        /* \"#utility.yul\":2222:2320   */\n    tag_160:\n        /* \"#utility.yul\":2287:2291   */\n      0x00\n        /* \"#utility.yul\":2310:2313   */\n      dup2\n        /* \"#utility.yul\":2302:2313   */\n      swap1\n      pop\n        /* \"#utility.yul\":2222:2320   */\n      swap2\n      swap1\n      pop\n      jump\t// out\n        /* \"#utility.yul\":2326:2434   */\n    tag_161:\n        /* \"#utility.yul\":2403:2427   */\n      tag_211\n        /* \"#utility.yul\":2421:2426   */\n      dup2\n        /* \"#utility.yul\":2403:2427   */\n      tag_154\n      jump\t// in\n    tag_211:\n        /* \"#utility.yul\":2398:2401   */\n      dup3\n        /* \"#utility.yul\":2391:2428   */\n      mstore\n        /* \"#utility.yul\":2326:2434   */\n      pop\n      pop\n      jump\t// out\n        /* \"#utility.yul\":2440:2619   */\n    tag_162:\n        /* \"#utility.yul\":2509:2519   */\n      0x00\n        /* \"#utility.yul\":2530:2576   */\n      tag_213\n        /* \"#utility.yul\":2572:2575   */\n      dup4\n        /* \"#utility.yul\":2564:2570   */\n      dup4\n        /* \"#utility.yul\":2530:2576   */\n      tag_161\n      jump\t// in\n    tag_213:\n        /* \"#utility.yul\":2608:2612   */\n      0x20\n        /* \"#utility.yul\":2603:2606   */\n      dup4\n        /* \"#utility.yul\":2599:2613   */\n      add\n        /* \"#utility.yul\":2585:2613   */\n      swap1\n      pop\n        /* \"#utility.yul\":2440:2619   */\n      swap3\n      swap2\n      pop\n      pop\n      jump\t// out\n        /* \"#utility.yul\":2625:2736   */\n    tag_163:\n        /* \"#utility.yul\":2693:2697   */\n      0x00\n        /* \"#utility.yul\":2725:2729   */\n      0x20\n        /* \"#utility.yul\":2720:2723   */\n      dup3\n        /* \"#utility.yul\":2716:2730   */\n      add\n        /* \"#utility.yul\":2708:2730   */\n      swap1\n      pop\n        /* \"#utility.yul\":2625:2736   */\n      swap2\n      swap1\n      pop\n      jump\t// out\n        /* \"#utility.yul\":2774:3468   */\n    tag_164:\n        /* \"#utility.yul\":2910:2962   */\n      tag_216\n        /* \"#utility.yul\":2956:2961   */\n      dup2\n        /* \"#utility.yul\":2910:2962   */\n      tag_158\n      jump\t// in\n    tag_216:\n        /* \"#utility.yul\":2978:3062   */\n      tag_217\n        /* \"#utility.yul\":3055:3061   */\n      dup2\n        /* \"#utility.yul\":3050:3053   */\n      dup5\n        /* \"#utility.yul\":2978:3062   */\n      tag_159\n      jump\t// in\n    tag_217:\n        /* \"#utility.yul\":2971:3062   */\n      swap3\n      pop\n        /* \"#utility.yul\":3086:3140   */\n      tag_218\n        /* \"#utility.yul\":3134:3139   */\n      dup3\n        /* \"#utility.yul\":3086:3140   */\n      tag_160\n      jump\t// in\n    tag_218:\n        /* \"#utility.yul\":3163:3170   */\n      dup1\n        /* \"#utility.yul\":3194:3195   */\n      0x00\n        /* \"#utility.yul\":3179:3461   */\n    tag_219:\n        /* \"#utility.yul\":3204:3210   */\n      dup4\n        /* \"#utility.yul\":3201:3202   */\n      dup2\n        /* \"#utility.yul\":3198:3211   */\n      lt\n        /* \"#utility.yul\":3179:3461   */\n      iszero\n      tag_221\n      jumpi\n        /* \"#utility.yul\":3280:3286   */\n      dup2\n        /* \"#utility.yul\":3274:3287   */\n      mload\n        /* \"#utility.yul\":3307:3370   */\n      tag_222\n        /* \"#utility.yul\":3366:3369   */\n      dup8\n        /* \"#utility.yul\":3351:3364   */\n      dup3\n        /* \"#utility.yul\":3307:3370   */\n      tag_162\n      jump\t// in\n    tag_222:\n        /* \"#utility.yul\":3300:3370   */\n      swap7\n      pop\n        /* \"#utility.yul\":3393:3451   */\n      tag_223\n        /* \"#utility.yul\":3444:3450   */\n      dup4\n        /* \"#utility.yul\":3393:3451   */\n      tag_163\n      jump\t// in\n    tag_223:\n        /* \"#utility.yul\":3383:3451   */\n      swap3\n      pop\n        /* \"#utility.yul\":3239:3461   */\n      pop\n        /* \"#utility.yul\":3226:3227   */\n      0x01\n        /* \"#utility.yul\":3223:3224   */\n      dup2\n        /* \"#utility.yul\":3219:3228   */\n      add\n        /* \"#utility.yul\":3214:3228   */\n      swap1\n      pop\n        /* \"#utility.yul\":3179:3461   */\n      jump(tag_219)\n    tag_221:\n        /* \"#utility.yul\":3183:3197   */\n      pop\n        /* \"#utility.yul\":2886:3468   */\n      pop\n      pop\n      pop\n        /* \"#utility.yul\":2774:3468   */\n      pop\n      pop\n      jump\t// out\n        /* \"#utility.yul\":3474:3578   */\n    tag_165:\n        /* \"#utility.yul\":3539:3545   */\n      0x00\n        /* \"#utility.yul\":3567:3571   */\n      0x03\n        /* \"#utility.yul\":3557:3571   */\n      swap1\n      pop\n        /* \"#utility.yul\":3474:3578   */\n      swap2\n      swap1\n      pop\n      jump\t// out\n        /* \"#utility.yul\":3584:3727   */\n    tag_166:\n        /* \"#utility.yul\":3681:3692   */\n      0x00\n        /* \"#utility.yul\":3718:3721   */\n      dup2\n        /* \"#utility.yul\":3703:3721   */\n      swap1\n      pop\n        /* \"#utility.yul\":3584:3727   */\n      swap3\n      swap2\n      pop\n      pop\n      jump\t// out\n        /* \"#utility.yul\":3733:3831   */\n    tag_167:\n        /* \"#utility.yul\":3798:3802   */\n      0x00\n        /* \"#utility.yul\":3821:3824   */\n      dup2\n        /* \"#utility.yul\":3813:3824   */\n      swap1\n      pop\n        /* \"#utility.yul\":3733:3831   */\n      swap2\n      swap1\n      pop\n      jump\t// out\n        /* \"#utility.yul\":3837:3945   */\n    tag_168:\n        /* \"#utility.yul\":3914:3938   */\n      tag_228\n        /* \"#utility.yul\":3932:3937   */\n      dup2\n        /* \"#utility.yul\":3914:3938   */\n      tag_148\n      jump\t// in\n    tag_228:\n        /* \"#utility.yul\":3909:3912   */\n      dup3\n        /* \"#utility.yul\":3902:3939   */\n      mstore\n        /* \"#utility.yul\":3837:3945   */\n      pop\n      pop\n      jump\t// out\n        /* \"#utility.yul\":3951:4130   */\n    tag_169:\n        /* \"#utility.yul\":4020:4030   */\n      0x00\n        /* \"#utility.yul\":4041:4087   */\n      tag_230\n        /* \"#utility.yul\":4083:4086   */\n      dup4\n        /* \"#utility.yul\":4075:4081   */\n      dup4\n        /* \"#utility.yul\":4041:4087   */\n      tag_168\n      jump\t// in\n    tag_230:\n        /* \"#utility.yul\":4119:4123   */\n      0x20\n        /* \"#utility.yul\":4114:4117   */\n      dup4\n        /* \"#utility.yul\":4110:4124   */\n      add\n        /* \"#utility.yul\":4096:4124   */\n      swap1\n      pop\n        /* \"#utility.yul\":3951:4130   */\n      swap3\n      swap2\n      pop\n      pop\n      jump\t// out\n        /* \"#utility.yul\":4136:4247   */\n    tag_170:\n        /* \"#utility.yul\":4204:4208   */\n      0x00\n        /* \"#utility.yul\":4236:4240   */\n      0x20\n        /* \"#utility.yul\":4231:4234   */\n      dup3\n        /* \"#utility.yul\":4227:4241   */\n      add\n        /* \"#utility.yul\":4219:4241   */\n      swap1\n      pop\n        /* \"#utility.yul\":4136:4247   */\n      swap2\n      swap1\n      pop\n      jump\t// out\n        /* \"#utility.yul\":4285:4979   */\n    tag_171:\n        /* \"#utility.yul\":4421:4473   */\n      tag_233\n        /* \"#utility.yul\":4467:4472   */\n      dup2\n        /* \"#utility.yul\":4421:4473   */\n      tag_165\n      jump\t// in\n    tag_233:\n        /* \"#utility.yul\":4489:4573   */\n      tag_234\n        /* \"#utility.yul\":4566:4572   */\n      dup2\n        /* \"#utility.yul\":4561:4564   */\n      dup5\n        /* \"#utility.yul\":4489:4573   */\n      tag_166\n      jump\t// in\n    tag_234:\n        /* \"#utility.yul\":4482:4573   */\n      swap3\n      pop\n        /* \"#utility.yul\":4597:4651   */\n      tag_235\n        /* \"#utility.yul\":4645:4650   */\n      dup3\n        /* \"#utility.yul\":4597:4651   */\n      tag_167\n      jump\t// in\n    tag_235:\n        /* \"#utility.yul\":4674:4681   */\n      dup1\n        /* \"#utility.yul\":4705:4706   */\n      0x00\n        /* \"#utility.yul\":4690:4972   */\n    tag_236:\n        /* \"#utility.yul\":4715:4721   */\n      dup4\n        /* \"#utility.yul\":4712:4713   */\n      dup2\n        /* \"#utility.yul\":4709:4722   */\n      lt\n        /* \"#utility.yul\":4690:4972   */\n      iszero\n      tag_238\n      jumpi\n        /* \"#utility.yul\":4791:4797   */\n      dup2\n        /* \"#utility.yul\":4785:4798   */\n      mload\n        /* \"#utility.yul\":4818:4881   */\n      tag_239\n        /* \"#utility.yul\":4877:4880   */\n      dup8\n        /* \"#utility.yul\":4862:4875   */\n      dup3\n        /* \"#utility.yul\":4818:4881   */\n      tag_169\n      jump\t// in\n    tag_239:\n        /* \"#utility.yul\":4811:4881   */\n      swap7\n      pop\n        /* \"#utility.yul\":4904:4962   */\n      tag_240\n        /* \"#utility.yul\":4955:4961   */\n      dup4\n        /* \"#utility.yul\":4904:4962   */\n      tag_170\n      jump\t// in\n    tag_240:\n        /* \"#utility.yul\":4894:4962   */\n      swap3\n      pop\n        /* \"#utility.yul\":4750:4972   */\n      pop\n        /* \"#utility.yul\":4737:4738   */\n      0x01\n        /* \"#utility.yul\":4734:4735   */\n      dup2\n        /* \"#utility.yul\":4730:4739   */\n      add\n        /* \"#utility.yul\":4725:4739   */\n      swap1\n      pop\n        /* \"#utility.yul\":4690:4972   */\n      jump(tag_236)\n    tag_238:\n        /* \"#utility.yul\":4694:4708   */\n      pop\n        /* \"#utility.yul\":4397:4979   */\n      pop\n      pop\n      pop\n        /* \"#utility.yul\":4285:4979   */\n      pop\n      pop\n      jump\t// out\n        /* \"#utility.yul\":4985:5502   */\n    tag_50:\n        /* \"#utility.yul\":5198:5202   */\n      0x00\n        /* \"#utility.yul\":5236:5239   */\n      0xc0\n        /* \"#utility.yul\":5225:5234   */\n      dup3\n        /* \"#utility.yul\":5221:5240   */\n      add\n        /* \"#utility.yul\":5213:5240   */\n      swap1\n      pop\n        /* \"#utility.yul\":5250:5367   */\n      tag_242\n        /* \"#utility.yul\":5364:5365   */\n      0x00\n        /* \"#utility.yul\":5353:5362   */\n      dup4\n        /* \"#utility.yul\":5349:5366   */\n      add\n        /* \"#utility.yul\":5340:5346   */\n      dup6\n        /* \"#utility.yul\":5250:5367   */\n      tag_164\n      jump\t// in\n    tag_242:\n        /* \"#utility.yul\":5377:5495   */\n      tag_243\n        /* \"#utility.yul\":5491:5493   */\n      0x60\n        /* \"#utility.yul\":5480:5489   */\n      dup4\n        /* \"#utility.yul\":5476:5494   */\n      add\n        /* \"#utility.yul\":5467:5473   */\n      dup5\n        /* \"#utility.yul\":5377:5495   */\n      tag_171\n      jump\t// in\n    tag_243:\n        /* \"#utility.yul\":4985:5502   */\n      swap4\n      swap3\n      pop\n      pop\n      pop\n      jump\t// out\n        /* \"#utility.yul\":5508:5677   */\n    tag_172:\n        /* \"#utility.yul\":5592:5603   */\n      0x00\n        /* \"#utility.yul\":5626:5632   */\n      dup3\n        /* \"#utility.yul\":5621:5624   */\n      dup3\n        /* \"#utility.yul\":5614:5633   */\n      mstore\n        /* \"#utility.yul\":5666:5670   */\n      0x20\n        /* \"#utility.yul\":5661:5664   */\n      dup3\n        /* \"#utility.yul\":5657:5671   */\n      add\n        /* \"#utility.yul\":5642:5671   */\n      swap1\n      pop\n        /* \"#utility.yul\":5508:5677   */\n      swap3\n      swap2\n      pop\n      pop\n      jump\t// out\n        /* \"#utility.yul\":5683:5915   */\n    tag_173:\n        /* \"#utility.yul\":5823:5857   */\n      0x546865726520617265206e6f20617661696c61626c652066756e647320696e20\n        /* \"#utility.yul\":5819:5820   */\n      0x00\n        /* \"#utility.yul\":5811:5817   */\n      dup3\n        /* \"#utility.yul\":5807:5821   */\n      add\n        /* \"#utility.yul\":5800:5858   */\n      mstore\n        /* \"#utility.yul\":5892:5907   */\n      0x74686520636f6e74726163742e00000000000000000000000000000000000000\n        /* \"#utility.yul\":5887:5889   */\n      0x20\n        /* \"#utility.yul\":5879:5885   */\n      dup3\n        /* \"#utility.yul\":5875:5890   */\n      add\n        /* \"#utility.yul\":5868:5908   */\n      mstore\n        /* \"#utility.yul\":5683:5915   */\n      pop\n      jump\t// out\n        /* \"#utility.yul\":5921:6287   */\n    tag_174:\n        /* \"#utility.yul\":6063:6066   */\n      0x00\n        /* \"#utility.yul\":6084:6151   */\n      tag_247\n        /* \"#utility.yul\":6148:6150   */\n      0x2d\n        /* \"#utility.yul\":6143:6146   */\n      dup4\n        /* \"#utility.yul\":6084:6151   */\n      tag_172\n      jump\t// in\n    tag_247:\n        /* \"#utility.yul\":6077:6151   */\n      swap2\n      pop\n        /* \"#utility.yul\":6160:6253   */\n      tag_248\n        /* \"#utility.yul\":6249:6252   */\n      dup3\n        /* \"#utility.yul\":6160:6253   */\n      tag_173\n      jump\t// in\n    tag_248:\n        /* \"#utility.yul\":6278:6280   */\n      0x40\n        /* \"#utility.yul\":6273:6276   */\n      dup3\n        /* \"#utility.yul\":6269:6281   */\n      add\n        /* \"#utility.yul\":6262:6281   */\n      swap1\n      pop\n        /* \"#utility.yul\":5921:6287   */\n      swap2\n      swap1\n      pop\n      jump\t// out\n        /* \"#utility.yul\":6293:6712   */\n    tag_63:\n        /* \"#utility.yul\":6459:6463   */\n      0x00\n        /* \"#utility.yul\":6497:6499   */\n      0x20\n        /* \"#utility.yul\":6486:6495   */\n      dup3\n        /* \"#utility.yul\":6482:6500   */\n      add\n        /* \"#utility.yul\":6474:6500   */\n      swap1\n      pop\n        /* \"#utility.yul\":6546:6555   */\n      dup2\n        /* \"#utility.yul\":6540:6544   */\n      dup2\n        /* \"#utility.yul\":6536:6556   */\n      sub\n        /* \"#utility.yul\":6532:6533   */\n      0x00\n        /* \"#utility.yul\":6521:6530   */\n      dup4\n        /* \"#utility.yul\":6517:6534   */\n      add\n        /* \"#utility.yul\":6510:6557   */\n      mstore\n        /* \"#utility.yul\":6574:6705   */\n      tag_250\n        /* \"#utility.yul\":6700:6704   */\n      dup2\n        /* \"#utility.yul\":6574:6705   */\n      tag_174\n      jump\t// in\n    tag_250:\n        /* \"#utility.yul\":6566:6705   */\n      swap1\n      pop\n        /* \"#utility.yul\":6293:6712   */\n      swap2\n      swap1\n      pop\n      jump\t// out\n        /* \"#utility.yul\":6718:6950   */\n    tag_175:\n        /* \"#utility.yul\":6858:6892   */\n      0x556e61626c6520746f20717565727920646f6e6174696f6e732066726f6d207a\n        /* \"#utility.yul\":6854:6855   */\n      0x00\n        /* \"#utility.yul\":6846:6852   */\n      dup3\n        /* \"#utility.yul\":6842:6856   */\n      add\n        /* \"#utility.yul\":6835:6893   */\n      mstore\n        /* \"#utility.yul\":6927:6942   */\n      0x65726f2061646472657373657300000000000000000000000000000000000000\n        /* \"#utility.yul\":6922:6924   */\n      0x20\n        /* \"#utility.yul\":6914:6920   */\n      dup3\n        /* \"#utility.yul\":6910:6925   */\n      add\n        /* \"#utility.yul\":6903:6943   */\n      mstore\n        /* \"#utility.yul\":6718:6950   */\n      pop\n      jump\t// out\n        /* \"#utility.yul\":6956:7322   */\n    tag_176:\n        /* \"#utility.yul\":7098:7101   */\n      0x00\n        /* \"#utility.yul\":7119:7186   */\n      tag_253\n        /* \"#utility.yul\":7183:7185   */\n      0x2d\n        /* \"#utility.yul\":7178:7181   */\n      dup4\n        /* \"#utility.yul\":7119:7186   */\n      tag_172\n      jump\t// in\n    tag_253:\n        /* \"#utility.yul\":7112:7186   */\n      swap2\n      pop\n        /* \"#utility.yul\":7195:7288   */\n      tag_254\n        /* \"#utility.yul\":7284:7287   */\n      dup3\n        /* \"#utility.yul\":7195:7288   */\n      tag_175\n      jump\t// in\n    tag_254:\n        /* \"#utility.yul\":7313:7315   */\n      0x40\n        /* \"#utility.yul\":7308:7311   */\n      dup3\n        /* \"#utility.yul\":7304:7316   */\n      add\n        /* \"#utility.yul\":7297:7316   */\n      swap1\n      pop\n        /* \"#utility.yul\":6956:7322   */\n      swap2\n      swap1\n      pop\n      jump\t// out\n        /* \"#utility.yul\":7328:7747   */\n    tag_70:\n        /* \"#utility.yul\":7494:7498   */\n      0x00\n        /* \"#utility.yul\":7532:7534   */\n      0x20\n        /* \"#utility.yul\":7521:7530   */\n      dup3\n        /* \"#utility.yul\":7517:7535   */\n      add\n        /* \"#utility.yul\":7509:7535   */\n      swap1\n      pop\n        /* \"#utility.yul\":7581:7590   */\n      dup2\n        /* \"#utility.yul\":7575:7579   */\n      dup2\n        /* \"#utility.yul\":7571:7591   */\n      sub\n        /* \"#utility.yul\":7567:7568   */\n      0x00\n        /* \"#utility.yul\":7556:7565   */\n      dup4\n        /* \"#utility.yul\":7552:7569   */\n      add\n        /* \"#utility.yul\":7545:7592   */\n      mstore\n        /* \"#utility.yul\":7609:7740   */\n      tag_256\n        /* \"#utility.yul\":7735:7739   */\n      dup2\n        /* \"#utility.yul\":7609:7740   */\n      tag_176\n      jump\t// in\n    tag_256:\n        /* \"#utility.yul\":7601:7740   */\n      swap1\n      pop\n        /* \"#utility.yul\":7328:7747   */\n      swap2\n      swap1\n      pop\n      jump\t// out\n        /* \"#utility.yul\":7753:7977   */\n    tag_177:\n        /* \"#utility.yul\":7893:7927   */\n      0x43757272656e746c79206f7574736964652074686520646f6e6174696f6e2070\n        /* \"#utility.yul\":7889:7890   */\n      0x00\n        /* \"#utility.yul\":7881:7887   */\n      dup3\n        /* \"#utility.yul\":7877:7891   */\n      add\n        /* \"#utility.yul\":7870:7928   */\n      mstore\n        /* \"#utility.yul\":7962:7969   */\n      0x6572696f64000000000000000000000000000000000000000000000000000000\n        /* \"#utility.yul\":7957:7959   */\n      0x20\n        /* \"#utility.yul\":7949:7955   */\n      dup3\n        /* \"#utility.yul\":7945:7960   */\n      add\n        /* \"#utility.yul\":7938:7970   */\n      mstore\n        /* \"#utility.yul\":7753:7977   */\n      pop\n      jump\t// out\n        /* \"#utility.yul\":7983:8349   */\n    tag_178:\n        /* \"#utility.yul\":8125:8128   */\n      0x00\n        /* \"#utility.yul\":8146:8213   */\n      tag_259\n        /* \"#utility.yul\":8210:8212   */\n      0x25\n        /* \"#utility.yul\":8205:8208   */\n      dup4\n        /* \"#utility.yul\":8146:8213   */\n      tag_172\n      jump\t// in\n    tag_259:\n        /* \"#utility.yul\":8139:8213   */\n      swap2\n      pop\n        /* \"#utility.yul\":8222:8315   */\n      tag_260\n        /* \"#utility.yul\":8311:8314   */\n      dup3\n        /* \"#utility.yul\":8222:8315   */\n      tag_177\n      jump\t// in\n    tag_260:\n        /* \"#utility.yul\":8340:8342   */\n      0x40\n        /* \"#utility.yul\":8335:8338   */\n      dup3\n        /* \"#utility.yul\":8331:8343   */\n      add\n        /* \"#utility.yul\":8324:8343   */\n      swap1\n      pop\n        /* \"#utility.yul\":7983:8349   */\n      swap2\n      swap1\n      pop\n      jump\t// out\n        /* \"#utility.yul\":8355:8774   */\n    tag_91:\n        /* \"#utility.yul\":8521:8525   */\n      0x00\n        /* \"#utility.yul\":8559:8561   */\n      0x20\n        /* \"#utility.yul\":8548:8557   */\n      dup3\n        /* \"#utility.yul\":8544:8562   */\n      add\n        /* \"#utility.yul\":8536:8562   */\n      swap1\n      pop\n        /* \"#utility.yul\":8608:8617   */\n      dup2\n        /* \"#utility.yul\":8602:8606   */\n      dup2\n        /* \"#utility.yul\":8598:8618   */\n      sub\n        /* \"#utility.yul\":8594:8595   */\n      0x00\n        /* \"#utility.yul\":8583:8592   */\n      dup4\n        /* \"#utility.yul\":8579:8596   */\n      add\n        /* \"#utility.yul\":8572:8619   */\n      mstore\n        /* \"#utility.yul\":8636:8767   */\n      tag_262\n        /* \"#utility.yul\":8762:8766   */\n      dup2\n        /* \"#utility.yul\":8636:8767   */\n      tag_178\n      jump\t// in\n    tag_262:\n        /* \"#utility.yul\":8628:8767   */\n      swap1\n      pop\n        /* \"#utility.yul\":8355:8774   */\n      swap2\n      swap1\n      pop\n      jump\t// out\n        /* \"#utility.yul\":8780:8962   */\n    tag_179:\n        /* \"#utility.yul\":8920:8954   */\n      0x54686520646f6e6174696f6e20616d6f756e742063616e6e6f7420626520302e\n        /* \"#utility.yul\":8916:8917   */\n      0x00\n        /* \"#utility.yul\":8908:8914   */\n      dup3\n        /* \"#utility.yul\":8904:8918   */\n      add\n        /* \"#utility.yul\":8897:8955   */\n      mstore\n        /* \"#utility.yul\":8780:8962   */\n      pop\n      jump\t// out\n        /* \"#utility.yul\":8968:9334   */\n    tag_180:\n        /* \"#utility.yul\":9110:9113   */\n      0x00\n        /* \"#utility.yul\":9131:9198   */\n      tag_265\n        /* \"#utility.yul\":9195:9197   */\n      0x20\n        /* \"#utility.yul\":9190:9193   */\n      dup4\n        /* \"#utility.yul\":9131:9198   */\n      tag_172\n      jump\t// in\n    tag_265:\n        /* \"#utility.yul\":9124:9198   */\n      swap2\n      pop\n        /* \"#utility.yul\":9207:9300   */\n      tag_266\n        /* \"#utility.yul\":9296:9299   */\n      dup3\n        /* \"#utility.yul\":9207:9300   */\n      tag_179\n      jump\t// in\n    tag_266:\n        /* \"#utility.yul\":9325:9327   */\n      0x20\n        /* \"#utility.yul\":9320:9323   */\n      dup3\n        /* \"#utility.yul\":9316:9328   */\n      add\n        /* \"#utility.yul\":9309:9328   */\n      swap1\n      pop\n        /* \"#utility.yul\":8968:9334   */\n      swap2\n      swap1\n      pop\n      jump\t// out\n        /* \"#utility.yul\":9340:9759   */\n    tag_94:\n        /* \"#utility.yul\":9506:9510   */\n      0x00\n        /* \"#utility.yul\":9544:9546   */\n      0x20\n        /* \"#utility.yul\":9533:9542   */\n      dup3\n        /* \"#utility.yul\":9529:9547   */\n      add\n        /* \"#utility.yul\":9521:9547   */\n      swap1\n      pop\n        /* \"#utility.yul\":9593:9602   */\n      dup2\n        /* \"#utility.yul\":9587:9591   */\n      dup2\n        /* \"#utility.yul\":9583:9603   */\n      sub\n        /* \"#utility.yul\":9579:9580   */\n      0x00\n        /* \"#utility.yul\":9568:9577   */\n      dup4\n        /* \"#utility.yul\":9564:9581   */\n      add\n        /* \"#utility.yul\":9557:9604   */\n      mstore\n        /* \"#utility.yul\":9621:9752   */\n      tag_268\n        /* \"#utility.yul\":9747:9751   */\n      dup2\n        /* \"#utility.yul\":9621:9752   */\n      tag_180\n      jump\t// in\n    tag_268:\n        /* \"#utility.yul\":9613:9752   */\n      swap1\n      pop\n        /* \"#utility.yul\":9340:9759   */\n      swap2\n      swap1\n      pop\n      jump\t// out\n        /* \"#utility.yul\":9765:9945   */\n    tag_181:\n        /* \"#utility.yul\":9813:9890   */\n      0x4e487b7100000000000000000000000000000000000000000000000000000000\n        /* \"#utility.yul\":9810:9811   */\n      0x00\n        /* \"#utility.yul\":9803:9891   */\n      mstore\n        /* \"#utility.yul\":9910:9914   */\n      0x11\n        /* \"#utility.yul\":9907:9908   */\n      0x04\n        /* \"#utility.yul\":9900:9915   */\n      mstore\n        /* \"#utility.yul\":9934:9938   */\n      0x24\n        /* \"#utility.yul\":9931:9932   */\n      0x00\n        /* \"#utility.yul\":9924:9939   */\n      revert\n        /* \"#utility.yul\":9951:10142   */\n    tag_96:\n        /* \"#utility.yul\":9991:9994   */\n      0x00\n        /* \"#utility.yul\":10010:10030   */\n      tag_271\n        /* \"#utility.yul\":10028:10029   */\n      dup3\n        /* \"#utility.yul\":10010:10030   */\n      tag_148\n      jump\t// in\n    tag_271:\n        /* \"#utility.yul\":10005:10030   */\n      swap2\n      pop\n        /* \"#utility.yul\":10044:10064   */\n      tag_272\n        /* \"#utility.yul\":10062:10063   */\n      dup4\n        /* \"#utility.yul\":10044:10064   */\n      tag_148\n      jump\t// in\n    tag_272:\n        /* \"#utility.yul\":10039:10064   */\n      swap3\n      pop\n        /* \"#utility.yul\":10087:10088   */\n      dup3\n        /* \"#utility.yul\":10084:10085   */\n      dup3\n        /* \"#utility.yul\":10080:10089   */\n      add\n        /* \"#utility.yul\":10073:10089   */\n      swap1\n      pop\n        /* \"#utility.yul\":10108:10111   */\n      dup1\n        /* \"#utility.yul\":10105:10106   */\n      dup3\n        /* \"#utility.yul\":10102:10112   */\n      gt\n        /* \"#utility.yul\":10099:10135   */\n      iszero\n      tag_273\n      jumpi\n        /* \"#utility.yul\":10115:10133   */\n      tag_274\n      tag_181\n      jump\t// in\n    tag_274:\n        /* \"#utility.yul\":10099:10135   */\n    tag_273:\n        /* \"#utility.yul\":9951:10142   */\n      swap3\n      swap2\n      pop\n      pop\n      jump\t// out\n        /* \"#utility.yul\":10148:10480   */\n    tag_100:\n        /* \"#utility.yul\":10269:10273   */\n      0x00\n        /* \"#utility.yul\":10307:10309   */\n      0x40\n        /* \"#utility.yul\":10296:10305   */\n      dup3\n        /* \"#utility.yul\":10292:10310   */\n      add\n        /* \"#utility.yul\":10284:10310   */\n      swap1\n      pop\n        /* \"#utility.yul\":10320:10391   */\n      tag_276\n        /* \"#utility.yul\":10388:10389   */\n      0x00\n        /* \"#utility.yul\":10377:10386   */\n      dup4\n        /* \"#utility.yul\":10373:10390   */\n      add\n        /* \"#utility.yul\":10364:10370   */\n      dup6\n        /* \"#utility.yul\":10320:10391   */\n      tag_149\n      jump\t// in\n    tag_276:\n        /* \"#utility.yul\":10401:10473   */\n      tag_277\n        /* \"#utility.yul\":10469:10471   */\n      0x20\n        /* \"#utility.yul\":10458:10467   */\n      dup4\n        /* \"#utility.yul\":10454:10472   */\n      add\n        /* \"#utility.yul\":10445:10451   */\n      dup5\n        /* \"#utility.yul\":10401:10473   */\n      tag_149\n      jump\t// in\n    tag_277:\n        /* \"#utility.yul\":10148:10480   */\n      swap4\n      swap3\n      pop\n      pop\n      pop\n      jump\t// out\n        /* \"#utility.yul\":10486:10666   */\n    tag_121:\n        /* \"#utility.yul\":10534:10611   */\n      0x4e487b7100000000000000000000000000000000000000000000000000000000\n        /* \"#utility.yul\":10531:10532   */\n      0x00\n        /* \"#utility.yul\":10524:10612   */\n      mstore\n        /* \"#utility.yul\":10631:10635   */\n      0x32\n        /* \"#utility.yul\":10628:10629   */\n      0x04\n        /* \"#utility.yul\":10621:10636   */\n      mstore\n        /* \"#utility.yul\":10655:10659   */\n      0x24\n        /* \"#utility.yul\":10652:10653   */\n      0x00\n        /* \"#utility.yul\":10645:10660   */\n      revert\n        /* \"#utility.yul\":10672:10905   */\n    tag_146:\n        /* \"#utility.yul\":10711:10714   */\n      0x00\n        /* \"#utility.yul\":10734:10758   */\n      tag_280\n        /* \"#utility.yul\":10752:10757   */\n      dup3\n        /* \"#utility.yul\":10734:10758   */\n      tag_148\n      jump\t// in\n    tag_280:\n        /* \"#utility.yul\":10725:10758   */\n      swap2\n      pop\n        /* \"#utility.yul\":10780:10846   */\n      0xffffffffffffffffffffffffffffffffffffffffffffffffffffffffffffffff\n        /* \"#utility.yul\":10773:10778   */\n      dup3\n        /* \"#utility.yul\":10770:10847   */\n      sub\n        /* \"#utility.yul\":10767:10870   */\n      tag_281\n      jumpi\n        /* \"#utility.yul\":10850:10868   */\n      tag_282\n      tag_181\n      jump\t// in\n    tag_282:\n        /* \"#utility.yul\":10767:10870   */\n    tag_281:\n        /* \"#utility.yul\":10897:10898   */\n      0x01\n        /* \"#utility.yul\":10890:10895   */\n      dup3\n        /* \"#utility.yul\":10886:10899   */\n      add\n        /* \"#utility.yul\":10879:10899   */\n      swap1\n      pop\n        /* \"#utility.yul\":10672:10905   */\n      swap2\n      swap1\n      pop\n      jump\t// out\n\n    auxdata: 0xa264697066735822122011801cf99e8d2df8f511653a82686a225b6350004ffd2f0e8141b2e23f24c7bc64736f6c63430008140033\n}\n",
				"bytecode": {
					"linkReferences": {},
					"object": "60c060405234801562000010575f80fd5b50604051620014233803806200142383398181016040528101906200003691906200025b565b335f73ffffffffffffffffffffffffffffffffffffffff168173ffffffffffffffffffffffffffffffffffffffff1603620000aa575f6040517f1e4fbdf7000000000000000000000000000000000000000000000000000000008152600401620000a19190620002e3565b60405180910390fd5b620000bb816200015e60201b60201c565b5042821162000101576040517f08c379a0000000000000000000000000000000000000000000000000000000008152600401620000f89062000382565b60405180910390fd5b81811162000146576040517f08c379a00000000000000000000000000000000000000000000000000000000081526004016200013d9062000416565b60405180910390fd5b81608081815250508060a08181525050505062000436565b5f805f9054906101000a900473ffffffffffffffffffffffffffffffffffffffff169050815f806101000a81548173ffffffffffffffffffffffffffffffffffffffff021916908373ffffffffffffffffffffffffffffffffffffffff1602179055508173ffffffffffffffffffffffffffffffffffffffff168173ffffffffffffffffffffffffffffffffffffffff167f8be0079c531659141344cd1fd0a4f28419497f9722a3daafe3b4186f6b6457e060405160405180910390a35050565b5f80fd5b5f819050919050565b620002378162000223565b811462000242575f80fd5b50565b5f8151905062000255816200022c565b92915050565b5f80604083850312156200027457620002736200021f565b5b5f620002838582860162000245565b9250506020620002968582860162000245565b9150509250929050565b5f73ffffffffffffffffffffffffffffffffffffffff82169050919050565b5f620002cb82620002a0565b9050919050565b620002dd81620002bf565b82525050565b5f602082019050620002f85f830184620002d2565b92915050565b5f82825260208201905092915050565b7f5468652073746172742074696d65206d757374206265206c61746572207468615f8201527f6e207468652063757272656e742074696d652e00000000000000000000000000602082015250565b5f6200036a603383620002fe565b915062000377826200030e565b604082019050919050565b5f6020820190508181035f8301526200039b816200035c565b9050919050565b7f54686520656e642074696d65206d757374206265206c61746572207468616e205f8201527f7468652073746172742074696d652e0000000000000000000000000000000000602082015250565b5f620003fe602f83620002fe565b91506200040b82620003a2565b604082019050919050565b5f6020820190508181035f8301526200042f81620003f0565b9050919050565b60805160a051610fbd620004665f395f818161020e01526104dc01525f818161039701526104b10152610fbd5ff3fe608060405260043610610094575f3560e01c806378e979251161005857806378e979251461015b5780638da5cb5b14610185578063d6387ed8146101af578063ed88c68e146101da578063f2fde38b146101e45761009b565b80633197cbb61461009f5780633ccfd60b146100c9578063410a1d32146100df5780636f9fb98a1461011b578063715018a6146101455761009b565b3661009b57005b5f80fd5b3480156100aa575f80fd5b506100b361020c565b6040516100c09190610a2f565b60405180910390f35b3480156100d4575f80fd5b506100dd610230565b005b3480156100ea575f80fd5b5061010560048036038101906101009190610aa6565b6102c7565b6040516101129190610a2f565b60405180910390f35b348015610126575f80fd5b5061012f61037b565b60405161013c9190610a2f565b60405180910390f35b348015610150575f80fd5b50610159610382565b005b348015610166575f80fd5b5061016f610395565b60405161017c9190610a2f565b60405180910390f35b348015610190575f80fd5b506101996103b9565b6040516101a69190610ae0565b60405180910390f35b3480156101ba575f80fd5b506101c36103e0565b6040516101d1929190610c43565b60405180910390f35b6101e26104af565b005b3480156101ef575f80fd5b5061020a60048036038101906102059190610aa6565b610676565b005b7f000000000000000000000000000000000000000000000000000000000000000081565b6102386106fa565b5f471161027a576040517f08c379a000000000000000000000000000000000000000000000000000000000815260040161027190610cea565b60405180910390fd5b6102826103b9565b73ffffffffffffffffffffffffffffffffffffffff166108fc4790811502906040515f60405180830381858888f193505050501580156102c4573d5f803e3d5ffd5b50565b5f8073ffffffffffffffffffffffffffffffffffffffff168273ffffffffffffffffffffffffffffffffffffffff1603610336576040517f08c379a000000000000000000000000000000000000000000000000000000000815260040161032d90610d78565b60405180910390fd5b60015f8373ffffffffffffffffffffffffffffffffffffffff1673ffffffffffffffffffffffffffffffffffffffff1681526020019081526020015f20549050919050565b5f47905090565b61038a6106fa565b6103935f610781565b565b7f000000000000000000000000000000000000000000000000000000000000000081565b5f805f9054906101000a900473ffffffffffffffffffffffffffffffffffffffff16905090565b6103e86109d3565b6103f06109f5565b6002600581600380602002604051908101604052809291908260038015610461576020028201915b815f9054906101000a900473ffffffffffffffffffffffffffffffffffffffff1673ffffffffffffffffffffffffffffffffffffffff1681526020019060010190808311610418575b50505050509150806003806020026040519081016040528092919082600380156104a0576020028201915b81548152602001906001019080831161048c575b50505050509050915091509091565b7f000000000000000000000000000000000000000000000000000000000000000042101580156104ff57507f00000000000000000000000000000000000000000000000000000000000000004211155b61053e576040517f08c379a000000000000000000000000000000000000000000000000000000000815260040161053590610e06565b60405180910390fd5b5f3411610580576040517f08c379a000000000000000000000000000000000000000000000000000000000815260040161057790610e6e565b60405180910390fd5b5f3390505f3490508060015f8473ffffffffffffffffffffffffffffffffffffffff1673ffffffffffffffffffffffffffffffffffffffff1681526020019081526020015f205f8282546105d49190610eb9565b925050819055506106228260015f8573ffffffffffffffffffffffffffffffffffffffff1673ffffffffffffffffffffffffffffffffffffffff1681526020019081526020015f2054610842565b8173ffffffffffffffffffffffffffffffffffffffff167f106aac375bbcf013d1e52338bbf9e740009a1a3a6869f8daa1b72aa1620f5fec824260405161066a929190610eec565b60405180910390a25050565b61067e6106fa565b5f73ffffffffffffffffffffffffffffffffffffffff168173ffffffffffffffffffffffffffffffffffffffff16036106ee575f6040517f1e4fbdf70000000000000000000000000000000000000000000000000000000081526004016106e59190610ae0565b60405180910390fd5b6106f781610781565b50565b6107026109cc565b73ffffffffffffffffffffffffffffffffffffffff166107206103b9565b73ffffffffffffffffffffffffffffffffffffffff161461077f576107436109cc565b6040517f118cdaa70000000000000000000000000000000000000000000000000000000081526004016107769190610ae0565b60405180910390fd5b565b5f805f9054906101000a900473ffffffffffffffffffffffffffffffffffffffff169050815f806101000a81548173ffffffffffffffffffffffffffffffffffffffff021916908373ffffffffffffffffffffffffffffffffffffffff1602179055508173ffffffffffffffffffffffffffffffffffffffff168173ffffffffffffffffffffffffffffffffffffffff167f8be0079c531659141344cd1fd0a4f28419497f9722a3daafe3b4186f6b6457e060405160405180910390a35050565b5f5b60038110156109c7576005816003811061086157610860610f13565b5b01548211156109b4576002811015610942576002816003811061088757610886610f13565b5b015f9054906101000a900473ffffffffffffffffffffffffffffffffffffffff1660026001836108b79190610eb9565b600381106108c8576108c7610f13565b5b015f6101000a81548173ffffffffffffffffffffffffffffffffffffffff021916908373ffffffffffffffffffffffffffffffffffffffff1602179055506005816003811061091a57610919610f13565b5b0154600560018361092b9190610eb9565b6003811061093c5761093b610f13565b5b01819055505b826002826003811061095757610956610f13565b5b015f6101000a81548173ffffffffffffffffffffffffffffffffffffffff021916908373ffffffffffffffffffffffffffffffffffffffff16021790555081600582600381106109aa576109a9610f13565b5b01819055506109c7565b80806109bf90610f40565b915050610844565b505050565b5f33905090565b6040518060600160405280600390602082028036833780820191505090505090565b6040518060600160405280600390602082028036833780820191505090505090565b5f819050919050565b610a2981610a17565b82525050565b5f602082019050610a425f830184610a20565b92915050565b5f80fd5b5f73ffffffffffffffffffffffffffffffffffffffff82169050919050565b5f610a7582610a4c565b9050919050565b610a8581610a6b565b8114610a8f575f80fd5b50565b5f81359050610aa081610a7c565b92915050565b5f60208284031215610abb57610aba610a48565b5b5f610ac884828501610a92565b91505092915050565b610ada81610a6b565b82525050565b5f602082019050610af35f830184610ad1565b92915050565b5f60039050919050565b5f81905092915050565b5f819050919050565b610b1f81610a6b565b82525050565b5f610b308383610b16565b60208301905092915050565b5f602082019050919050565b610b5181610af9565b610b5b8184610b03565b9250610b6682610b0d565b805f5b83811015610b96578151610b7d8782610b25565b9650610b8883610b3c565b925050600181019050610b69565b505050505050565b5f60039050919050565b5f81905092915050565b5f819050919050565b610bc481610a17565b82525050565b5f610bd58383610bbb565b60208301905092915050565b5f602082019050919050565b610bf681610b9e565b610c008184610ba8565b9250610c0b82610bb2565b805f5b83811015610c3b578151610c228782610bca565b9650610c2d83610be1565b925050600181019050610c0e565b505050505050565b5f60c082019050610c565f830185610b48565b610c636060830184610bed565b9392505050565b5f82825260208201905092915050565b7f546865726520617265206e6f20617661696c61626c652066756e647320696e205f8201527f74686520636f6e74726163742e00000000000000000000000000000000000000602082015250565b5f610cd4602d83610c6a565b9150610cdf82610c7a565b604082019050919050565b5f6020820190508181035f830152610d0181610cc8565b9050919050565b7f556e61626c6520746f20717565727920646f6e6174696f6e732066726f6d207a5f8201527f65726f2061646472657373657300000000000000000000000000000000000000602082015250565b5f610d62602d83610c6a565b9150610d6d82610d08565b604082019050919050565b5f6020820190508181035f830152610d8f81610d56565b9050919050565b7f43757272656e746c79206f7574736964652074686520646f6e6174696f6e20705f8201527f6572696f64000000000000000000000000000000000000000000000000000000602082015250565b5f610df0602583610c6a565b9150610dfb82610d96565b604082019050919050565b5f6020820190508181035f830152610e1d81610de4565b9050919050565b7f54686520646f6e6174696f6e20616d6f756e742063616e6e6f7420626520302e5f82015250565b5f610e58602083610c6a565b9150610e6382610e24565b602082019050919050565b5f6020820190508181035f830152610e8581610e4c565b9050919050565b7f4e487b71000000000000000000000000000000000000000000000000000000005f52601160045260245ffd5b5f610ec382610a17565b9150610ece83610a17565b9250828201905080821115610ee657610ee5610e8c565b5b92915050565b5f604082019050610eff5f830185610a20565b610f0c6020830184610a20565b9392505050565b7f4e487b71000000000000000000000000000000000000000000000000000000005f52603260045260245ffd5b5f610f4a82610a17565b91507fffffffffffffffffffffffffffffffffffffffffffffffffffffffffffffffff8203610f7c57610f7b610e8c565b5b60018201905091905056fea264697066735822122011801cf99e8d2df8f511653a82686a225b6350004ffd2f0e8141b2e23f24c7bc64736f6c63430008140033",
					"opcodes": "PUSH1 0xC0 PUSH1 0x40 MSTORE CALLVALUE DUP1 ISZERO PUSH3 0x10 JUMPI PUSH0 DUP1 REVERT JUMPDEST POP PUSH1 0x40 MLOAD PUSH3 0x1423 CODESIZE SUB DUP1 PUSH3 0x1423 DUP4 CODECOPY DUP2 DUP2 ADD PUSH1 0x40 MSTORE DUP2 ADD SWAP1 PUSH3 0x36 SWAP2 SWAP1 PUSH3 0x25B JUMP JUMPDEST CALLER PUSH0 PUSH20 0xFFFFFFFFFFFFFFFFFFFFFFFFFFFFFFFFFFFFFFFF AND DUP2 PUSH20 0xFFFFFFFFFFFFFFFFFFFFFFFFFFFFFFFFFFFFFFFF AND SUB PUSH3 0xAA JUMPI PUSH0 PUSH1 0x40 MLOAD PUSH32 0x1E4FBDF700000000000000000000000000000000000000000000000000000000 DUP2 MSTORE PUSH1 0x4 ADD PUSH3 0xA1 SWAP2 SWAP1 PUSH3 0x2E3 JUMP JUMPDEST PUSH1 0x40 MLOAD DUP1 SWAP2 SUB SWAP1 REVERT JUMPDEST PUSH3 0xBB DUP2 PUSH3 0x15E PUSH1 0x20 SHL PUSH1 0x20 SHR JUMP JUMPDEST POP TIMESTAMP DUP3 GT PUSH3 0x101 JUMPI PUSH1 0x40 MLOAD PUSH32 0x8C379A000000000000000000000000000000000000000000000000000000000 DUP2 MSTORE PUSH1 0x4 ADD PUSH3 0xF8 SWAP1 PUSH3 0x382 JUMP JUMPDEST PUSH1 0x40 MLOAD DUP1 SWAP2 SUB SWAP1 REVERT JUMPDEST DUP2 DUP2 GT PUSH3 0x146 JUMPI PUSH1 0x40 MLOAD PUSH32 0x8C379A000000000000000000000000000000000000000000000000000000000 DUP2 MSTORE PUSH1 0x4 ADD PUSH3 0x13D SWAP1 PUSH3 0x416 JUMP JUMPDEST PUSH1 0x40 MLOAD DUP1 SWAP2 SUB SWAP1 REVERT JUMPDEST DUP2 PUSH1 0x80 DUP2 DUP2 MSTORE POP POP DUP1 PUSH1 0xA0 DUP2 DUP2 MSTORE POP POP POP POP PUSH3 0x436 JUMP JUMPDEST PUSH0 DUP1 PUSH0 SWAP1 SLOAD SWAP1 PUSH2 0x100 EXP SWAP1 DIV PUSH20 0xFFFFFFFFFFFFFFFFFFFFFFFFFFFFFFFFFFFFFFFF AND SWAP1 POP DUP2 PUSH0 DUP1 PUSH2 0x100 EXP DUP2 SLOAD DUP2 PUSH20 0xFFFFFFFFFFFFFFFFFFFFFFFFFFFFFFFFFFFFFFFF MUL NOT AND SWAP1 DUP4 PUSH20 0xFFFFFFFFFFFFFFFFFFFFFFFFFFFFFFFFFFFFFFFF AND MUL OR SWAP1 SSTORE POP DUP2 PUSH20 0xFFFFFFFFFFFFFFFFFFFFFFFFFFFFFFFFFFFFFFFF AND DUP2 PUSH20 0xFFFFFFFFFFFFFFFFFFFFFFFFFFFFFFFFFFFFFFFF AND PUSH32 0x8BE0079C531659141344CD1FD0A4F28419497F9722A3DAAFE3B4186F6B6457E0 PUSH1 0x40 MLOAD PUSH1 0x40 MLOAD DUP1 SWAP2 SUB SWAP1 LOG3 POP POP JUMP JUMPDEST PUSH0 DUP1 REVERT JUMPDEST PUSH0 DUP2 SWAP1 POP SWAP2 SWAP1 POP JUMP JUMPDEST PUSH3 0x237 DUP2 PUSH3 0x223 JUMP JUMPDEST DUP2 EQ PUSH3 0x242 JUMPI PUSH0 DUP1 REVERT JUMPDEST POP JUMP JUMPDEST PUSH0 DUP2 MLOAD SWAP1 POP PUSH3 0x255 DUP2 PUSH3 0x22C JUMP JUMPDEST SWAP3 SWAP2 POP POP JUMP JUMPDEST PUSH0 DUP1 PUSH1 0x40 DUP4 DUP6 SUB SLT ISZERO PUSH3 0x274 JUMPI PUSH3 0x273 PUSH3 0x21F JUMP JUMPDEST JUMPDEST PUSH0 PUSH3 0x283 DUP6 DUP3 DUP7 ADD PUSH3 0x245 JUMP JUMPDEST SWAP3 POP POP PUSH1 0x20 PUSH3 0x296 DUP6 DUP3 DUP7 ADD PUSH3 0x245 JUMP JUMPDEST SWAP2 POP POP SWAP3 POP SWAP3 SWAP1 POP JUMP JUMPDEST PUSH0 PUSH20 0xFFFFFFFFFFFFFFFFFFFFFFFFFFFFFFFFFFFFFFFF DUP3 AND SWAP1 POP SWAP2 SWAP1 POP JUMP JUMPDEST PUSH0 PUSH3 0x2CB DUP3 PUSH3 0x2A0 JUMP JUMPDEST SWAP1 POP SWAP2 SWAP1 POP JUMP JUMPDEST PUSH3 0x2DD DUP2 PUSH3 0x2BF JUMP JUMPDEST DUP3 MSTORE POP POP JUMP JUMPDEST PUSH0 PUSH1 0x20 DUP3 ADD SWAP1 POP PUSH3 0x2F8 PUSH0 DUP4 ADD DUP5 PUSH3 0x2D2 JUMP JUMPDEST SWAP3 SWAP2 POP POP JUMP JUMPDEST PUSH0 DUP3 DUP3 MSTORE PUSH1 0x20 DUP3 ADD SWAP1 POP SWAP3 SWAP2 POP POP JUMP JUMPDEST PUSH32 0x5468652073746172742074696D65206D757374206265206C6174657220746861 PUSH0 DUP3 ADD MSTORE PUSH32 0x6E207468652063757272656E742074696D652E00000000000000000000000000 PUSH1 0x20 DUP3 ADD MSTORE POP JUMP JUMPDEST PUSH0 PUSH3 0x36A PUSH1 0x33 DUP4 PUSH3 0x2FE JUMP JUMPDEST SWAP2 POP PUSH3 0x377 DUP3 PUSH3 0x30E JUMP JUMPDEST PUSH1 0x40 DUP3 ADD SWAP1 POP SWAP2 SWAP1 POP JUMP JUMPDEST PUSH0 PUSH1 0x20 DUP3 ADD SWAP1 POP DUP2 DUP2 SUB PUSH0 DUP4 ADD MSTORE PUSH3 0x39B DUP2 PUSH3 0x35C JUMP JUMPDEST SWAP1 POP SWAP2 SWAP1 POP JUMP JUMPDEST PUSH32 0x54686520656E642074696D65206D757374206265206C61746572207468616E20 PUSH0 DUP3 ADD MSTORE PUSH32 0x7468652073746172742074696D652E0000000000000000000000000000000000 PUSH1 0x20 DUP3 ADD MSTORE POP JUMP JUMPDEST PUSH0 PUSH3 0x3FE PUSH1 0x2F DUP4 PUSH3 0x2FE JUMP JUMPDEST SWAP2 POP PUSH3 0x40B DUP3 PUSH3 0x3A2 JUMP JUMPDEST PUSH1 0x40 DUP3 ADD SWAP1 POP SWAP2 SWAP1 POP JUMP JUMPDEST PUSH0 PUSH1 0x20 DUP3 ADD SWAP1 POP DUP2 DUP2 SUB PUSH0 DUP4 ADD MSTORE PUSH3 0x42F DUP2 PUSH3 0x3F0 JUMP JUMPDEST SWAP1 POP SWAP2 SWAP1 POP JUMP JUMPDEST PUSH1 0x80 MLOAD PUSH1 0xA0 MLOAD PUSH2 0xFBD PUSH3 0x466 PUSH0 CODECOPY PUSH0 DUP2 DUP2 PUSH2 0x20E ADD MSTORE PUSH2 0x4DC ADD MSTORE PUSH0 DUP2 DUP2 PUSH2 0x397 ADD MSTORE PUSH2 0x4B1 ADD MSTORE PUSH2 0xFBD PUSH0 RETURN INVALID PUSH1 0x80 PUSH1 0x40 MSTORE PUSH1 0x4 CALLDATASIZE LT PUSH2 0x94 JUMPI PUSH0 CALLDATALOAD PUSH1 0xE0 SHR DUP1 PUSH4 0x78E97925 GT PUSH2 0x58 JUMPI DUP1 PUSH4 0x78E97925 EQ PUSH2 0x15B JUMPI DUP1 PUSH4 0x8DA5CB5B EQ PUSH2 0x185 JUMPI DUP1 PUSH4 0xD6387ED8 EQ PUSH2 0x1AF JUMPI DUP1 PUSH4 0xED88C68E EQ PUSH2 0x1DA JUMPI DUP1 PUSH4 0xF2FDE38B EQ PUSH2 0x1E4 JUMPI PUSH2 0x9B JUMP JUMPDEST DUP1 PUSH4 0x3197CBB6 EQ PUSH2 0x9F JUMPI DUP1 PUSH4 0x3CCFD60B EQ PUSH2 0xC9 JUMPI DUP1 PUSH4 0x410A1D32 EQ PUSH2 0xDF JUMPI DUP1 PUSH4 0x6F9FB98A EQ PUSH2 0x11B JUMPI DUP1 PUSH4 0x715018A6 EQ PUSH2 0x145 JUMPI PUSH2 0x9B JUMP JUMPDEST CALLDATASIZE PUSH2 0x9B JUMPI STOP JUMPDEST PUSH0 DUP1 REVERT JUMPDEST CALLVALUE DUP1 ISZERO PUSH2 0xAA JUMPI PUSH0 DUP1 REVERT JUMPDEST POP PUSH2 0xB3 PUSH2 0x20C JUMP JUMPDEST PUSH1 0x40 MLOAD PUSH2 0xC0 SWAP2 SWAP1 PUSH2 0xA2F JUMP JUMPDEST PUSH1 0x40 MLOAD DUP1 SWAP2 SUB SWAP1 RETURN JUMPDEST CALLVALUE DUP1 ISZERO PUSH2 0xD4 JUMPI PUSH0 DUP1 REVERT JUMPDEST POP PUSH2 0xDD PUSH2 0x230 JUMP JUMPDEST STOP JUMPDEST CALLVALUE DUP1 ISZERO PUSH2 0xEA JUMPI PUSH0 DUP1 REVERT JUMPDEST POP PUSH2 0x105 PUSH1 0x4 DUP1 CALLDATASIZE SUB DUP2 ADD SWAP1 PUSH2 0x100 SWAP2 SWAP1 PUSH2 0xAA6 JUMP JUMPDEST PUSH2 0x2C7 JUMP JUMPDEST PUSH1 0x40 MLOAD PUSH2 0x112 SWAP2 SWAP1 PUSH2 0xA2F JUMP JUMPDEST PUSH1 0x40 MLOAD DUP1 SWAP2 SUB SWAP1 RETURN JUMPDEST CALLVALUE DUP1 ISZERO PUSH2 0x126 JUMPI PUSH0 DUP1 REVERT JUMPDEST POP PUSH2 0x12F PUSH2 0x37B JUMP JUMPDEST PUSH1 0x40 MLOAD PUSH2 0x13C SWAP2 SWAP1 PUSH2 0xA2F JUMP JUMPDEST PUSH1 0x40 MLOAD DUP1 SWAP2 SUB SWAP1 RETURN JUMPDEST CALLVALUE DUP1 ISZERO PUSH2 0x150 JUMPI PUSH0 DUP1 REVERT JUMPDEST POP PUSH2 0x159 PUSH2 0x382 JUMP JUMPDEST STOP JUMPDEST CALLVALUE DUP1 ISZERO PUSH2 0x166 JUMPI PUSH0 DUP1 REVERT JUMPDEST POP PUSH2 0x16F PUSH2 0x395 JUMP JUMPDEST PUSH1 0x40 MLOAD PUSH2 0x17C SWAP2 SWAP1 PUSH2 0xA2F JUMP JUMPDEST PUSH1 0x40 MLOAD DUP1 SWAP2 SUB SWAP1 RETURN JUMPDEST CALLVALUE DUP1 ISZERO PUSH2 0x190 JUMPI PUSH0 DUP1 REVERT JUMPDEST POP PUSH2 0x199 PUSH2 0x3B9 JUMP JUMPDEST PUSH1 0x40 MLOAD PUSH2 0x1A6 SWAP2 SWAP1 PUSH2 0xAE0 JUMP JUMPDEST PUSH1 0x40 MLOAD DUP1 SWAP2 SUB SWAP1 RETURN JUMPDEST CALLVALUE DUP1 ISZERO PUSH2 0x1BA JUMPI PUSH0 DUP1 REVERT JUMPDEST POP PUSH2 0x1C3 PUSH2 0x3E0 JUMP JUMPDEST PUSH1 0x40 MLOAD PUSH2 0x1D1 SWAP3 SWAP2 SWAP1 PUSH2 0xC43 JUMP JUMPDEST PUSH1 0x40 MLOAD DUP1 SWAP2 SUB SWAP1 RETURN JUMPDEST PUSH2 0x1E2 PUSH2 0x4AF JUMP JUMPDEST STOP JUMPDEST CALLVALUE DUP1 ISZERO PUSH2 0x1EF JUMPI PUSH0 DUP1 REVERT JUMPDEST POP PUSH2 0x20A PUSH1 0x4 DUP1 CALLDATASIZE SUB DUP2 ADD SWAP1 PUSH2 0x205 SWAP2 SWAP1 PUSH2 0xAA6 JUMP JUMPDEST PUSH2 0x676 JUMP JUMPDEST STOP JUMPDEST PUSH32 0x0 DUP2 JUMP JUMPDEST PUSH2 0x238 PUSH2 0x6FA JUMP JUMPDEST PUSH0 SELFBALANCE GT PUSH2 0x27A JUMPI PUSH1 0x40 MLOAD PUSH32 0x8C379A000000000000000000000000000000000000000000000000000000000 DUP2 MSTORE PUSH1 0x4 ADD PUSH2 0x271 SWAP1 PUSH2 0xCEA JUMP JUMPDEST PUSH1 0x40 MLOAD DUP1 SWAP2 SUB SWAP1 REVERT JUMPDEST PUSH2 0x282 PUSH2 0x3B9 JUMP JUMPDEST PUSH20 0xFFFFFFFFFFFFFFFFFFFFFFFFFFFFFFFFFFFFFFFF AND PUSH2 0x8FC SELFBALANCE SWAP1 DUP2 ISZERO MUL SWAP1 PUSH1 0x40 MLOAD PUSH0 PUSH1 0x40 MLOAD DUP1 DUP4 SUB DUP2 DUP6 DUP9 DUP9 CALL SWAP4 POP POP POP POP ISZERO DUP1 ISZERO PUSH2 0x2C4 JUMPI RETURNDATASIZE PUSH0 DUP1 RETURNDATACOPY RETURNDATASIZE PUSH0 REVERT JUMPDEST POP JUMP JUMPDEST PUSH0 DUP1 PUSH20 0xFFFFFFFFFFFFFFFFFFFFFFFFFFFFFFFFFFFFFFFF AND DUP3 PUSH20 0xFFFFFFFFFFFFFFFFFFFFFFFFFFFFFFFFFFFFFFFF AND SUB PUSH2 0x336 JUMPI PUSH1 0x40 MLOAD PUSH32 0x8C379A000000000000000000000000000000000000000000000000000000000 DUP2 MSTORE PUSH1 0x4 ADD PUSH2 0x32D SWAP1 PUSH2 0xD78 JUMP JUMPDEST PUSH1 0x40 MLOAD DUP1 SWAP2 SUB SWAP1 REVERT JUMPDEST PUSH1 0x1 PUSH0 DUP4 PUSH20 0xFFFFFFFFFFFFFFFFFFFFFFFFFFFFFFFFFFFFFFFF AND PUSH20 0xFFFFFFFFFFFFFFFFFFFFFFFFFFFFFFFFFFFFFFFF AND DUP2 MSTORE PUSH1 0x20 ADD SWAP1 DUP2 MSTORE PUSH1 0x20 ADD PUSH0 KECCAK256 SLOAD SWAP1 POP SWAP2 SWAP1 POP JUMP JUMPDEST PUSH0 SELFBALANCE SWAP1 POP SWAP1 JUMP JUMPDEST PUSH2 0x38A PUSH2 0x6FA JUMP JUMPDEST PUSH2 0x393 PUSH0 PUSH2 0x781 JUMP JUMPDEST JUMP JUMPDEST PUSH32 0x0 DUP2 JUMP JUMPDEST PUSH0 DUP1 PUSH0 SWAP1 SLOAD SWAP1 PUSH2 0x100 EXP SWAP1 DIV PUSH20 0xFFFFFFFFFFFFFFFFFFFFFFFFFFFFFFFFFFFFFFFF AND SWAP1 POP SWAP1 JUMP JUMPDEST PUSH2 0x3E8 PUSH2 0x9D3 JUMP JUMPDEST PUSH2 0x3F0 PUSH2 0x9F5 JUMP JUMPDEST PUSH1 0x2 PUSH1 0x5 DUP2 PUSH1 0x3 DUP1 PUSH1 0x20 MUL PUSH1 0x40 MLOAD SWAP1 DUP2 ADD PUSH1 0x40 MSTORE DUP1 SWAP3 SWAP2 SWAP1 DUP3 PUSH1 0x3 DUP1 ISZERO PUSH2 0x461 JUMPI PUSH1 0x20 MUL DUP3 ADD SWAP2 JUMPDEST DUP2 PUSH0 SWAP1 SLOAD SWAP1 PUSH2 0x100 EXP SWAP1 DIV PUSH20 0xFFFFFFFFFFFFFFFFFFFFFFFFFFFFFFFFFFFFFFFF AND PUSH20 0xFFFFFFFFFFFFFFFFFFFFFFFFFFFFFFFFFFFFFFFF AND DUP2 MSTORE PUSH1 0x20 ADD SWAP1 PUSH1 0x1 ADD SWAP1 DUP1 DUP4 GT PUSH2 0x418 JUMPI JUMPDEST POP POP POP POP POP SWAP2 POP DUP1 PUSH1 0x3 DUP1 PUSH1 0x20 MUL PUSH1 0x40 MLOAD SWAP1 DUP2 ADD PUSH1 0x40 MSTORE DUP1 SWAP3 SWAP2 SWAP1 DUP3 PUSH1 0x3 DUP1 ISZERO PUSH2 0x4A0 JUMPI PUSH1 0x20 MUL DUP3 ADD SWAP2 JUMPDEST DUP2 SLOAD DUP2 MSTORE PUSH1 0x20 ADD SWAP1 PUSH1 0x1 ADD SWAP1 DUP1 DUP4 GT PUSH2 0x48C JUMPI JUMPDEST POP POP POP POP POP SWAP1 POP SWAP2 POP SWAP2 POP SWAP1 SWAP2 JUMP JUMPDEST PUSH32 0x0 TIMESTAMP LT ISZERO DUP1 ISZERO PUSH2 0x4FF JUMPI POP PUSH32 0x0 TIMESTAMP GT ISZERO JUMPDEST PUSH2 0x53E JUMPI PUSH1 0x40 MLOAD PUSH32 0x8C379A000000000000000000000000000000000000000000000000000000000 DUP2 MSTORE PUSH1 0x4 ADD PUSH2 0x535 SWAP1 PUSH2 0xE06 JUMP JUMPDEST PUSH1 0x40 MLOAD DUP1 SWAP2 SUB SWAP1 REVERT JUMPDEST PUSH0 CALLVALUE GT PUSH2 0x580 JUMPI PUSH1 0x40 MLOAD PUSH32 0x8C379A000000000000000000000000000000000000000000000000000000000 DUP2 MSTORE PUSH1 0x4 ADD PUSH2 0x577 SWAP1 PUSH2 0xE6E JUMP JUMPDEST PUSH1 0x40 MLOAD DUP1 SWAP2 SUB SWAP1 REVERT JUMPDEST PUSH0 CALLER SWAP1 POP PUSH0 CALLVALUE SWAP1 POP DUP1 PUSH1 0x1 PUSH0 DUP5 PUSH20 0xFFFFFFFFFFFFFFFFFFFFFFFFFFFFFFFFFFFFFFFF AND PUSH20 0xFFFFFFFFFFFFFFFFFFFFFFFFFFFFFFFFFFFFFFFF AND DUP2 MSTORE PUSH1 0x20 ADD SWAP1 DUP2 MSTORE PUSH1 0x20 ADD PUSH0 KECCAK256 PUSH0 DUP3 DUP3 SLOAD PUSH2 0x5D4 SWAP2 SWAP1 PUSH2 0xEB9 JUMP JUMPDEST SWAP3 POP POP DUP2 SWAP1 SSTORE POP PUSH2 0x622 DUP3 PUSH1 0x1 PUSH0 DUP6 PUSH20 0xFFFFFFFFFFFFFFFFFFFFFFFFFFFFFFFFFFFFFFFF AND PUSH20 0xFFFFFFFFFFFFFFFFFFFFFFFFFFFFFFFFFFFFFFFF AND DUP2 MSTORE PUSH1 0x20 ADD SWAP1 DUP2 MSTORE PUSH1 0x20 ADD PUSH0 KECCAK256 SLOAD PUSH2 0x842 JUMP JUMPDEST DUP2 PUSH20 0xFFFFFFFFFFFFFFFFFFFFFFFFFFFFFFFFFFFFFFFF AND PUSH32 0x106AAC375BBCF013D1E52338BBF9E740009A1A3A6869F8DAA1B72AA1620F5FEC DUP3 TIMESTAMP PUSH1 0x40 MLOAD PUSH2 0x66A SWAP3 SWAP2 SWAP1 PUSH2 0xEEC JUMP JUMPDEST PUSH1 0x40 MLOAD DUP1 SWAP2 SUB SWAP1 LOG2 POP POP JUMP JUMPDEST PUSH2 0x67E PUSH2 0x6FA JUMP JUMPDEST PUSH0 PUSH20 0xFFFFFFFFFFFFFFFFFFFFFFFFFFFFFFFFFFFFFFFF AND DUP2 PUSH20 0xFFFFFFFFFFFFFFFFFFFFFFFFFFFFFFFFFFFFFFFF AND SUB PUSH2 0x6EE JUMPI PUSH0 PUSH1 0x40 MLOAD PUSH32 0x1E4FBDF700000000000000000000000000000000000000000000000000000000 DUP2 MSTORE PUSH1 0x4 ADD PUSH2 0x6E5 SWAP2 SWAP1 PUSH2 0xAE0 JUMP JUMPDEST PUSH1 0x40 MLOAD DUP1 SWAP2 SUB SWAP1 REVERT JUMPDEST PUSH2 0x6F7 DUP2 PUSH2 0x781 JUMP JUMPDEST POP JUMP JUMPDEST PUSH2 0x702 PUSH2 0x9CC JUMP JUMPDEST PUSH20 0xFFFFFFFFFFFFFFFFFFFFFFFFFFFFFFFFFFFFFFFF AND PUSH2 0x720 PUSH2 0x3B9 JUMP JUMPDEST PUSH20 0xFFFFFFFFFFFFFFFFFFFFFFFFFFFFFFFFFFFFFFFF AND EQ PUSH2 0x77F JUMPI PUSH2 0x743 PUSH2 0x9CC JUMP JUMPDEST PUSH1 0x40 MLOAD PUSH32 0x118CDAA700000000000000000000000000000000000000000000000000000000 DUP2 MSTORE PUSH1 0x4 ADD PUSH2 0x776 SWAP2 SWAP1 PUSH2 0xAE0 JUMP JUMPDEST PUSH1 0x40 MLOAD DUP1 SWAP2 SUB SWAP1 REVERT JUMPDEST JUMP JUMPDEST PUSH0 DUP1 PUSH0 SWAP1 SLOAD SWAP1 PUSH2 0x100 EXP SWAP1 DIV PUSH20 0xFFFFFFFFFFFFFFFFFFFFFFFFFFFFFFFFFFFFFFFF AND SWAP1 POP DUP2 PUSH0 DUP1 PUSH2 0x100 EXP DUP2 SLOAD DUP2 PUSH20 0xFFFFFFFFFFFFFFFFFFFFFFFFFFFFFFFFFFFFFFFF MUL NOT AND SWAP1 DUP4 PUSH20 0xFFFFFFFFFFFFFFFFFFFFFFFFFFFFFFFFFFFFFFFF AND MUL OR SWAP1 SSTORE POP DUP2 PUSH20 0xFFFFFFFFFFFFFFFFFFFFFFFFFFFFFFFFFFFFFFFF AND DUP2 PUSH20 0xFFFFFFFFFFFFFFFFFFFFFFFFFFFFFFFFFFFFFFFF AND PUSH32 0x8BE0079C531659141344CD1FD0A4F28419497F9722A3DAAFE3B4186F6B6457E0 PUSH1 0x40 MLOAD PUSH1 0x40 MLOAD DUP1 SWAP2 SUB SWAP1 LOG3 POP POP JUMP JUMPDEST PUSH0 JUMPDEST PUSH1 0x3 DUP2 LT ISZERO PUSH2 0x9C7 JUMPI PUSH1 0x5 DUP2 PUSH1 0x3 DUP2 LT PUSH2 0x861 JUMPI PUSH2 0x860 PUSH2 0xF13 JUMP JUMPDEST JUMPDEST ADD SLOAD DUP3 GT ISZERO PUSH2 0x9B4 JUMPI PUSH1 0x2 DUP2 LT ISZERO PUSH2 0x942 JUMPI PUSH1 0x2 DUP2 PUSH1 0x3 DUP2 LT PUSH2 0x887 JUMPI PUSH2 0x886 PUSH2 0xF13 JUMP JUMPDEST JUMPDEST ADD PUSH0 SWAP1 SLOAD SWAP1 PUSH2 0x100 EXP SWAP1 DIV PUSH20 0xFFFFFFFFFFFFFFFFFFFFFFFFFFFFFFFFFFFFFFFF AND PUSH1 0x2 PUSH1 0x1 DUP4 PUSH2 0x8B7 SWAP2 SWAP1 PUSH2 0xEB9 JUMP JUMPDEST PUSH1 0x3 DUP2 LT PUSH2 0x8C8 JUMPI PUSH2 0x8C7 PUSH2 0xF13 JUMP JUMPDEST JUMPDEST ADD PUSH0 PUSH2 0x100 EXP DUP2 SLOAD DUP2 PUSH20 0xFFFFFFFFFFFFFFFFFFFFFFFFFFFFFFFFFFFFFFFF MUL NOT AND SWAP1 DUP4 PUSH20 0xFFFFFFFFFFFFFFFFFFFFFFFFFFFFFFFFFFFFFFFF AND MUL OR SWAP1 SSTORE POP PUSH1 0x5 DUP2 PUSH1 0x3 DUP2 LT PUSH2 0x91A JUMPI PUSH2 0x919 PUSH2 0xF13 JUMP JUMPDEST JUMPDEST ADD SLOAD PUSH1 0x5 PUSH1 0x1 DUP4 PUSH2 0x92B SWAP2 SWAP1 PUSH2 0xEB9 JUMP JUMPDEST PUSH1 0x3 DUP2 LT PUSH2 0x93C JUMPI PUSH2 0x93B PUSH2 0xF13 JUMP JUMPDEST JUMPDEST ADD DUP2 SWAP1 SSTORE POP JUMPDEST DUP3 PUSH1 0x2 DUP3 PUSH1 0x3 DUP2 LT PUSH2 0x957 JUMPI PUSH2 0x956 PUSH2 0xF13 JUMP JUMPDEST JUMPDEST ADD PUSH0 PUSH2 0x100 EXP DUP2 SLOAD DUP2 PUSH20 0xFFFFFFFFFFFFFFFFFFFFFFFFFFFFFFFFFFFFFFFF MUL NOT AND SWAP1 DUP4 PUSH20 0xFFFFFFFFFFFFFFFFFFFFFFFFFFFFFFFFFFFFFFFF AND MUL OR SWAP1 SSTORE POP DUP2 PUSH1 0x5 DUP3 PUSH1 0x3 DUP2 LT PUSH2 0x9AA JUMPI PUSH2 0x9A9 PUSH2 0xF13 JUMP JUMPDEST JUMPDEST ADD DUP2 SWAP1 SSTORE POP PUSH2 0x9C7 JUMP JUMPDEST DUP1 DUP1 PUSH2 0x9BF SWAP1 PUSH2 0xF40 JUMP JUMPDEST SWAP2 POP POP PUSH2 0x844 JUMP JUMPDEST POP POP POP JUMP JUMPDEST PUSH0 CALLER SWAP1 POP SWAP1 JUMP JUMPDEST PUSH1 0x40 MLOAD DUP1 PUSH1 0x60 ADD PUSH1 0x40 MSTORE DUP1 PUSH1 0x3 SWAP1 PUSH1 0x20 DUP3 MUL DUP1 CALLDATASIZE DUP4 CALLDATACOPY DUP1 DUP3 ADD SWAP2 POP POP SWAP1 POP POP SWAP1 JUMP JUMPDEST PUSH1 0x40 MLOAD DUP1 PUSH1 0x60 ADD PUSH1 0x40 MSTORE DUP1 PUSH1 0x3 SWAP1 PUSH1 0x20 DUP3 MUL DUP1 CALLDATASIZE DUP4 CALLDATACOPY DUP1 DUP3 ADD SWAP2 POP POP SWAP1 POP POP SWAP1 JUMP JUMPDEST PUSH0 DUP2 SWAP1 POP SWAP2 SWAP1 POP JUMP JUMPDEST PUSH2 0xA29 DUP2 PUSH2 0xA17 JUMP JUMPDEST DUP3 MSTORE POP POP JUMP JUMPDEST PUSH0 PUSH1 0x20 DUP3 ADD SWAP1 POP PUSH2 0xA42 PUSH0 DUP4 ADD DUP5 PUSH2 0xA20 JUMP JUMPDEST SWAP3 SWAP2 POP POP JUMP JUMPDEST PUSH0 DUP1 REVERT JUMPDEST PUSH0 PUSH20 0xFFFFFFFFFFFFFFFFFFFFFFFFFFFFFFFFFFFFFFFF DUP3 AND SWAP1 POP SWAP2 SWAP1 POP JUMP JUMPDEST PUSH0 PUSH2 0xA75 DUP3 PUSH2 0xA4C JUMP JUMPDEST SWAP1 POP SWAP2 SWAP1 POP JUMP JUMPDEST PUSH2 0xA85 DUP2 PUSH2 0xA6B JUMP JUMPDEST DUP2 EQ PUSH2 0xA8F JUMPI PUSH0 DUP1 REVERT JUMPDEST POP JUMP JUMPDEST PUSH0 DUP2 CALLDATALOAD SWAP1 POP PUSH2 0xAA0 DUP2 PUSH2 0xA7C JUMP JUMPDEST SWAP3 SWAP2 POP POP JUMP JUMPDEST PUSH0 PUSH1 0x20 DUP3 DUP5 SUB SLT ISZERO PUSH2 0xABB JUMPI PUSH2 0xABA PUSH2 0xA48 JUMP JUMPDEST JUMPDEST PUSH0 PUSH2 0xAC8 DUP5 DUP3 DUP6 ADD PUSH2 0xA92 JUMP JUMPDEST SWAP2 POP POP SWAP3 SWAP2 POP POP JUMP JUMPDEST PUSH2 0xADA DUP2 PUSH2 0xA6B JUMP JUMPDEST DUP3 MSTORE POP POP JUMP JUMPDEST PUSH0 PUSH1 0x20 DUP3 ADD SWAP1 POP PUSH2 0xAF3 PUSH0 DUP4 ADD DUP5 PUSH2 0xAD1 JUMP JUMPDEST SWAP3 SWAP2 POP POP JUMP JUMPDEST PUSH0 PUSH1 0x3 SWAP1 POP SWAP2 SWAP1 POP JUMP JUMPDEST PUSH0 DUP2 SWAP1 POP SWAP3 SWAP2 POP POP JUMP JUMPDEST PUSH0 DUP2 SWAP1 POP SWAP2 SWAP1 POP JUMP JUMPDEST PUSH2 0xB1F DUP2 PUSH2 0xA6B JUMP JUMPDEST DUP3 MSTORE POP POP JUMP JUMPDEST PUSH0 PUSH2 0xB30 DUP4 DUP4 PUSH2 0xB16 JUMP JUMPDEST PUSH1 0x20 DUP4 ADD SWAP1 POP SWAP3 SWAP2 POP POP JUMP JUMPDEST PUSH0 PUSH1 0x20 DUP3 ADD SWAP1 POP SWAP2 SWAP1 POP JUMP JUMPDEST PUSH2 0xB51 DUP2 PUSH2 0xAF9 JUMP JUMPDEST PUSH2 0xB5B DUP2 DUP5 PUSH2 0xB03 JUMP JUMPDEST SWAP3 POP PUSH2 0xB66 DUP3 PUSH2 0xB0D JUMP JUMPDEST DUP1 PUSH0 JUMPDEST DUP4 DUP2 LT ISZERO PUSH2 0xB96 JUMPI DUP2 MLOAD PUSH2 0xB7D DUP8 DUP3 PUSH2 0xB25 JUMP JUMPDEST SWAP7 POP PUSH2 0xB88 DUP4 PUSH2 0xB3C JUMP JUMPDEST SWAP3 POP POP PUSH1 0x1 DUP2 ADD SWAP1 POP PUSH2 0xB69 JUMP JUMPDEST POP POP POP POP POP POP JUMP JUMPDEST PUSH0 PUSH1 0x3 SWAP1 POP SWAP2 SWAP1 POP JUMP JUMPDEST PUSH0 DUP2 SWAP1 POP SWAP3 SWAP2 POP POP JUMP JUMPDEST PUSH0 DUP2 SWAP1 POP SWAP2 SWAP1 POP JUMP JUMPDEST PUSH2 0xBC4 DUP2 PUSH2 0xA17 JUMP JUMPDEST DUP3 MSTORE POP POP JUMP JUMPDEST PUSH0 PUSH2 0xBD5 DUP4 DUP4 PUSH2 0xBBB JUMP JUMPDEST PUSH1 0x20 DUP4 ADD SWAP1 POP SWAP3 SWAP2 POP POP JUMP JUMPDEST PUSH0 PUSH1 0x20 DUP3 ADD SWAP1 POP SWAP2 SWAP1 POP JUMP JUMPDEST PUSH2 0xBF6 DUP2 PUSH2 0xB9E JUMP JUMPDEST PUSH2 0xC00 DUP2 DUP5 PUSH2 0xBA8 JUMP JUMPDEST SWAP3 POP PUSH2 0xC0B DUP3 PUSH2 0xBB2 JUMP JUMPDEST DUP1 PUSH0 JUMPDEST DUP4 DUP2 LT ISZERO PUSH2 0xC3B JUMPI DUP2 MLOAD PUSH2 0xC22 DUP8 DUP3 PUSH2 0xBCA JUMP JUMPDEST SWAP7 POP PUSH2 0xC2D DUP4 PUSH2 0xBE1 JUMP JUMPDEST SWAP3 POP POP PUSH1 0x1 DUP2 ADD SWAP1 POP PUSH2 0xC0E JUMP JUMPDEST POP POP POP POP POP POP JUMP JUMPDEST PUSH0 PUSH1 0xC0 DUP3 ADD SWAP1 POP PUSH2 0xC56 PUSH0 DUP4 ADD DUP6 PUSH2 0xB48 JUMP JUMPDEST PUSH2 0xC63 PUSH1 0x60 DUP4 ADD DUP5 PUSH2 0xBED JUMP JUMPDEST SWAP4 SWAP3 POP POP POP JUMP JUMPDEST PUSH0 DUP3 DUP3 MSTORE PUSH1 0x20 DUP3 ADD SWAP1 POP SWAP3 SWAP2 POP POP JUMP JUMPDEST PUSH32 0x546865726520617265206E6F20617661696C61626C652066756E647320696E20 PUSH0 DUP3 ADD MSTORE PUSH32 0x74686520636F6E74726163742E00000000000000000000000000000000000000 PUSH1 0x20 DUP3 ADD MSTORE POP JUMP JUMPDEST PUSH0 PUSH2 0xCD4 PUSH1 0x2D DUP4 PUSH2 0xC6A JUMP JUMPDEST SWAP2 POP PUSH2 0xCDF DUP3 PUSH2 0xC7A JUMP JUMPDEST PUSH1 0x40 DUP3 ADD SWAP1 POP SWAP2 SWAP1 POP JUMP JUMPDEST PUSH0 PUSH1 0x20 DUP3 ADD SWAP1 POP DUP2 DUP2 SUB PUSH0 DUP4 ADD MSTORE PUSH2 0xD01 DUP2 PUSH2 0xCC8 JUMP JUMPDEST SWAP1 POP SWAP2 SWAP1 POP JUMP JUMPDEST PUSH32 0x556E61626C6520746F20717565727920646F6E6174696F6E732066726F6D207A PUSH0 DUP3 ADD MSTORE PUSH32 0x65726F2061646472657373657300000000000000000000000000000000000000 PUSH1 0x20 DUP3 ADD MSTORE POP JUMP JUMPDEST PUSH0 PUSH2 0xD62 PUSH1 0x2D DUP4 PUSH2 0xC6A JUMP JUMPDEST SWAP2 POP PUSH2 0xD6D DUP3 PUSH2 0xD08 JUMP JUMPDEST PUSH1 0x40 DUP3 ADD SWAP1 POP SWAP2 SWAP1 POP JUMP JUMPDEST PUSH0 PUSH1 0x20 DUP3 ADD SWAP1 POP DUP2 DUP2 SUB PUSH0 DUP4 ADD MSTORE PUSH2 0xD8F DUP2 PUSH2 0xD56 JUMP JUMPDEST SWAP1 POP SWAP2 SWAP1 POP JUMP JUMPDEST PUSH32 0x43757272656E746C79206F7574736964652074686520646F6E6174696F6E2070 PUSH0 DUP3 ADD MSTORE PUSH32 0x6572696F64000000000000000000000000000000000000000000000000000000 PUSH1 0x20 DUP3 ADD MSTORE POP JUMP JUMPDEST PUSH0 PUSH2 0xDF0 PUSH1 0x25 DUP4 PUSH2 0xC6A JUMP JUMPDEST SWAP2 POP PUSH2 0xDFB DUP3 PUSH2 0xD96 JUMP JUMPDEST PUSH1 0x40 DUP3 ADD SWAP1 POP SWAP2 SWAP1 POP JUMP JUMPDEST PUSH0 PUSH1 0x20 DUP3 ADD SWAP1 POP DUP2 DUP2 SUB PUSH0 DUP4 ADD MSTORE PUSH2 0xE1D DUP2 PUSH2 0xDE4 JUMP JUMPDEST SWAP1 POP SWAP2 SWAP1 POP JUMP JUMPDEST PUSH32 0x54686520646F6E6174696F6E20616D6F756E742063616E6E6F7420626520302E PUSH0 DUP3 ADD MSTORE POP JUMP JUMPDEST PUSH0 PUSH2 0xE58 PUSH1 0x20 DUP4 PUSH2 0xC6A JUMP JUMPDEST SWAP2 POP PUSH2 0xE63 DUP3 PUSH2 0xE24 JUMP JUMPDEST PUSH1 0x20 DUP3 ADD SWAP1 POP SWAP2 SWAP1 POP JUMP JUMPDEST PUSH0 PUSH1 0x20 DUP3 ADD SWAP1 POP DUP2 DUP2 SUB PUSH0 DUP4 ADD MSTORE PUSH2 0xE85 DUP2 PUSH2 0xE4C JUMP JUMPDEST SWAP1 POP SWAP2 SWAP1 POP JUMP JUMPDEST PUSH32 0x4E487B7100000000000000000000000000000000000000000000000000000000 PUSH0 MSTORE PUSH1 0x11 PUSH1 0x4 MSTORE PUSH1 0x24 PUSH0 REVERT JUMPDEST PUSH0 PUSH2 0xEC3 DUP3 PUSH2 0xA17 JUMP JUMPDEST SWAP2 POP PUSH2 0xECE DUP4 PUSH2 0xA17 JUMP JUMPDEST SWAP3 POP DUP3 DUP3 ADD SWAP1 POP DUP1 DUP3 GT ISZERO PUSH2 0xEE6 JUMPI PUSH2 0xEE5 PUSH2 0xE8C JUMP JUMPDEST JUMPDEST SWAP3 SWAP2 POP POP JUMP JUMPDEST PUSH0 PUSH1 0x40 DUP3 ADD SWAP1 POP PUSH2 0xEFF PUSH0 DUP4 ADD DUP6 PUSH2 0xA20 JUMP JUMPDEST PUSH2 0xF0C PUSH1 0x20 DUP4 ADD DUP5 PUSH2 0xA20 JUMP JUMPDEST SWAP4 SWAP3 POP POP POP JUMP JUMPDEST PUSH32 0x4E487B7100000000000000000000000000000000000000000000000000000000 PUSH0 MSTORE PUSH1 0x32 PUSH1 0x4 MSTORE PUSH1 0x24 PUSH0 REVERT JUMPDEST PUSH0 PUSH2 0xF4A DUP3 PUSH2 0xA17 JUMP JUMPDEST SWAP2 POP PUSH32 0xFFFFFFFFFFFFFFFFFFFFFFFFFFFFFFFFFFFFFFFFFFFFFFFFFFFFFFFFFFFFFFFF DUP3 SUB PUSH2 0xF7C JUMPI PUSH2 0xF7B PUSH2 0xE8C JUMP JUMPDEST JUMPDEST PUSH1 0x1 DUP3 ADD SWAP1 POP SWAP2 SWAP1 POP JUMP INVALID LOG2 PUSH5 0x6970667358 0x22 SLT KECCAK256 GT DUP1 SHR 0xF9 SWAP15 DUP14 0x2D 0xF8 CREATE2 GT PUSH6 0x3A82686A225B PUSH4 0x50004FFD 0x2F 0xE DUP2 COINBASE 0xB2 0xE2 EXTCODEHASH 0x24 0xC7 0xBC PUSH5 0x736F6C6343 STOP ADDMOD EQ STOP CALLER "
				},
				"gasEstimates": {
					"creation": {
						"codeDepositCost": "805800",
						"executionCost": "infinite",
						"totalCost": "infinite"
					},
					"external": {
						"donate()": "infinite",
						"endTime()": "infinite",
						"getContractBalance()": "401",
						"getDonation(address)": "2909",
						"getTopDonors()": "infinite",
						"owner()": "2537",
						"renounceOwnership()": "infinite",
						"startTime()": "infinite",
						"transferOwnership(address)": "infinite",
						"withdraw()": "infinite"
					},
					"internal": {
						"updateTopDonors(address,uint256)": "infinite"
					}
				},
				"methodIdentifiers": {
					"donate()": "ed88c68e",
					"endTime()": "3197cbb6",
					"getContractBalance()": "6f9fb98a",
					"getDonation(address)": "410a1d32",
					"getTopDonors()": "d6387ed8",
					"owner()": "8da5cb5b",
					"renounceOwnership()": "715018a6",
					"startTime()": "78e97925",
					"transferOwnership(address)": "f2fde38b",
					"withdraw()": "3ccfd60b"
				}
			},
			"storageLayout": {
				"storage": [
					{
						"astId": 8,
						"contract": "BeggingContract.sol:BeggingContract",
						"label": "_owner",
						"offset": 0,
						"slot": "0",
						"type": "t_address"
					},
					{
						"astId": 186,
						"contract": "BeggingContract.sol:BeggingContract",
						"label": "_donations",
						"offset": 0,
						"slot": "1",
						"type": "t_mapping(t_address,t_uint256)"
					},
					{
						"astId": 190,
						"contract": "BeggingContract.sol:BeggingContract",
						"label": "_topDonors",
						"offset": 0,
						"slot": "2",
						"type": "t_array(t_address)3_storage"
					},
					{
						"astId": 194,
						"contract": "BeggingContract.sol:BeggingContract",
						"label": "_topDonations",
						"offset": 0,
						"slot": "5",
						"type": "t_array(t_uint256)3_storage"
					}
				],
				"types": {
					"t_address": {
						"encoding": "inplace",
						"label": "address",
						"numberOfBytes": "20"
					},
					"t_array(t_address)3_storage": {
						"base": "t_address",
						"encoding": "inplace",
						"label": "address[3]",
						"numberOfBytes": "96"
					},
					"t_array(t_uint256)3_storage": {
						"base": "t_uint256",
						"encoding": "inplace",
						"label": "uint256[3]",
						"numberOfBytes": "96"
					},
					"t_mapping(t_address,t_uint256)": {
						"encoding": "mapping",
						"key": "t_address",
						"label": "mapping(address => uint256)",
						"numberOfBytes": "32",
						"value": "t_uint256"
					},
					"t_uint256": {
						"encoding": "inplace",
						"label": "uint256",
						"numberOfBytes": "32"
					}
				}
			},
			"userdoc": {
				"kind": "user",
				"methods": {},
				"version": 1
			}
		}
	}
}