{
	"data": {
		"bytecode": {
			"linkReferences": {},
			"object": "60c060405234801562000010575f80fd5b50604051620014233803806200142383398181016040528101906200003691906200025b565b335f73ffffffffffffffffffffffffffffffffffffffff168173ffffffffffffffffffffffffffffffffffffffff1603620000aa575f6040517f1e4fbdf7000000000000000000000000000000000000000000000000000000008152600401620000a19190620002e3565b60405180910390fd5b620000bb816200015e60201b60201c565b5042821162000101576040517f08c379a0000000000000000000000000000000000000000000000000000000008152600401620000f89062000382565b60405180910390fd5b81811162000146576040517f08c379a00000000000000000000000000000000000000000000000000000000081526004016200013d9062000416565b60405180910390fd5b81608081815250508060a08181525050505062000436565b5f805f9054906101000a900473ffffffffffffffffffffffffffffffffffffffff169050815f806101000a81548173ffffffffffffffffffffffffffffffffffffffff021916908373ffffffffffffffffffffffffffffffffffffffff1602179055508173ffffffffffffffffffffffffffffffffffffffff168173ffffffffffffffffffffffffffffffffffffffff167f8be0079c531659141344cd1fd0a4f28419497f9722a3daafe3b4186f6b6457e060405160405180910390a35050565b5f80fd5b5f819050919050565b620002378162000223565b811462000242575f80fd5b50565b5f8151905062000255816200022c565b92915050565b5f80604083850312156200027457620002736200021f565b5b5f620002838582860162000245565b9250506020620002968582860162000245565b9150509250929050565b5f73ffffffffffffffffffffffffffffffffffffffff82169050919050565b5f620002cb82620002a0565b9050919050565b620002dd81620002bf565b82525050565b5f602082019050620002f85f830184620002d2565b92915050565b5f82825260208201905092915050565b7f5468652073746172742074696d65206d757374206265206c61746572207468615f8201527f6e207468652063757272656e742074696d652e00000000000000000000000000602082015250565b5f6200036a603383620002fe565b915062000377826200030e565b604082019050919050565b5f6020820190508181035f8301526200039b816200035c565b9050919050565b7f54686520656e642074696d65206d757374206265206c61746572207468616e205f8201527f7468652073746172742074696d652e0000000000000000000000000000000000602082015250565b5f620003fe602f83620002fe565b91506200040b82620003a2565b604082019050919050565b5f6020820190508181035f8301526200042f81620003f0565b9050919050565b60805160a051610fbd620004665f395f818161020e01526104dc01525f818161039701526104b10152610fbd5ff3fe608060405260043610610094575f3560e01c806378e979251161005857806378e979251461015b5780638da5cb5b14610185578063d6387ed8146101af578063ed88c68e146101da578063f2fde38b146101e45761009b565b80633197cbb61461009f5780633ccfd60b146100c9578063410a1d32146100df5780636f9fb98a1461011b578063715018a6146101455761009b565b3661009b57005b5f80fd5b3480156100aa575f80fd5b506100b361020c565b6040516100c09190610a2f565b60405180910390f35b3480156100d4575f80fd5b506100dd610230565b005b3480156100ea575f80fd5b5061010560048036038101906101009190610aa6565b6102c7565b6040516101129190610a2f565b60405180910390f35b348015610126575f80fd5b5061012f61037b565b60405161013c9190610a2f565b60405180910390f35b348015610150575f80fd5b50610159610382565b005b348015610166575f80fd5b5061016f610395565b60405161017c9190610a2f565b60405180910390f35b348015610190575f80fd5b506101996103b9565b6040516101a69190610ae0565b60405180910390f35b3480156101ba575f80fd5b506101c36103e0565b6040516101d1929190610c43565b60405180910390f35b6101e26104af565b005b3480156101ef575f80fd5b5061020a60048036038101906102059190610aa6565b610676565b005b7f000000000000000000000000000000000000000000000000000000000000000081565b6102386106fa565b5f471161027a576040517f08c379a000000000000000000000000000000000000000000000000000000000815260040161027190610cea565b60405180910390fd5b6102826103b9565b73ffffffffffffffffffffffffffffffffffffffff166108fc4790811502906040515f60405180830381858888f193505050501580156102c4573d5f803e3d5ffd5b50565b5f8073ffffffffffffffffffffffffffffffffffffffff168273ffffffffffffffffffffffffffffffffffffffff1603610336576040517f08c379a000000000000000000000000000000000000000000000000000000000815260040161032d90610d78565b60405180910390fd5b60015f8373ffffffffffffffffffffffffffffffffffffffff1673ffffffffffffffffffffffffffffffffffffffff1681526020019081526020015f20549050919050565b5f47905090565b61038a6106fa565b6103935f610781565b565b7f000000000000000000000000000000000000000000000000000000000000000081565b5f805f9054906101000a900473ffffffffffffffffffffffffffffffffffffffff16905090565b6103e86109d3565b6103f06109f5565b6002600581600380602002604051908101604052809291908260038015610461576020028201915b815f9054906101000a900473ffffffffffffffffffffffffffffffffffffffff1673ffffffffffffffffffffffffffffffffffffffff1681526020019060010190808311610418575b50505050509150806003806020026040519081016040528092919082600380156104a0576020028201915b81548152602001906001019080831161048c575b50505050509050915091509091565b7f000000000000000000000000000000000000000000000000000000000000000042101580156104ff57507f00000000000000000000000000000000000000000000000000000000000000004211155b61053e576040517f08c379a000000000000000000000000000000000000000000000000000000000815260040161053590610e06565b60405180910390fd5b5f3411610580576040517f08c379a000000000000000000000000000000000000000000000000000000000815260040161057790610e6e565b60405180910390fd5b5f3390505f3490508060015f8473ffffffffffffffffffffffffffffffffffffffff1673ffffffffffffffffffffffffffffffffffffffff1681526020019081526020015f205f8282546105d49190610eb9565b925050819055506106228260015f8573ffffffffffffffffffffffffffffffffffffffff1673ffffffffffffffffffffffffffffffffffffffff1681526020019081526020015f2054610842565b8173ffffffffffffffffffffffffffffffffffffffff167f106aac375bbcf013d1e52338bbf9e740009a1a3a6869f8daa1b72aa1620f5fec824260405161066a929190610eec565b60405180910390a25050565b61067e6106fa565b5f73ffffffffffffffffffffffffffffffffffffffff168173ffffffffffffffffffffffffffffffffffffffff16036106ee575f6040517f1e4fbdf70000000000000000000000000000000000000000000000000000000081526004016106e59190610ae0565b60405180910390fd5b6106f781610781565b50565b6107026109cc565b73ffffffffffffffffffffffffffffffffffffffff166107206103b9565b73ffffffffffffffffffffffffffffffffffffffff161461077f576107436109cc565b6040517f118cdaa70000000000000000000000000000000000000000000000000000000081526004016107769190610ae0565b60405180910390fd5b565b5f805f9054906101000a900473ffffffffffffffffffffffffffffffffffffffff169050815f806101000a81548173ffffffffffffffffffffffffffffffffffffffff021916908373ffffffffffffffffffffffffffffffffffffffff1602179055508173ffffffffffffffffffffffffffffffffffffffff168173ffffffffffffffffffffffffffffffffffffffff167f8be0079c531659141344cd1fd0a4f28419497f9722a3daafe3b4186f6b6457e060405160405180910390a35050565b5f5b60038110156109c7576005816003811061086157610860610f13565b5b01548211156109b4576002811015610942576002816003811061088757610886610f13565b5b015f9054906101000a900473ffffffffffffffffffffffffffffffffffffffff1660026001836108b79190610eb9565b600381106108c8576108c7610f13565b5b015f6101000a81548173ffffffffffffffffffffffffffffffffffffffff021916908373ffffffffffffffffffffffffffffffffffffffff1602179055506005816003811061091a57610919610f13565b5b0154600560018361092b9190610eb9565b6003811061093c5761093b610f13565b5b01819055505b826002826003811061095757610956610f13565b5b015f6101000a81548173ffffffffffffffffffffffffffffffffffffffff021916908373ffffffffffffffffffffffffffffffffffffffff16021790555081600582600381106109aa576109a9610f13565b5b01819055506109c7565b80806109bf90610f40565b915050610844565b505050565b5f33905090565b6040518060600160405280600390602082028036833780820191505090505090565b6040518060600160405280600390602082028036833780820191505090505090565b5f819050919050565b610a2981610a17565b82525050565b5f602082019050610a425f830184610a20565b92915050565b5f80fd5b5f73ffffffffffffffffffffffffffffffffffffffff82169050919050565b5f610a7582610a4c565b9050919050565b610a8581610a6b565b8114610a8f575f80fd5b50565b5f81359050610aa081610a7c565b92915050565b5f60208284031215610abb57610aba610a48565b5b5f610ac884828501610a92565b91505092915050565b610ada81610a6b565b82525050565b5f602082019050610af35f830184610ad1565b92915050565b5f60039050919050565b5f81905092915050565b5f819050919050565b610b1f81610a6b565b82525050565b5f610b308383610b16565b60208301905092915050565b5f602082019050919050565b610b5181610af9565b610b5b8184610b03565b9250610b6682610b0d565b805f5b83811015610b96578151610b7d8782610b25565b9650610b8883610b3c565b925050600181019050610b69565b505050505050565b5f60039050919050565b5f81905092915050565b5f819050919050565b610bc481610a17565b82525050565b5f610bd58383610bbb565b60208301905092915050565b5f602082019050919050565b610bf681610b9e565b610c008184610ba8565b9250610c0b82610bb2565b805f5b83811015610c3b578151610c228782610bca565b9650610c2d83610be1565b925050600181019050610c0e565b505050505050565b5f60c082019050610c565f830185610b48565b610c636060830184610bed565b9392505050565b5f82825260208201905092915050565b7f546865726520617265206e6f20617661696c61626c652066756e647320696e205f8201527f74686520636f6e74726163742e00000000000000000000000000000000000000602082015250565b5f610cd4602d83610c6a565b9150610cdf82610c7a565b604082019050919050565b5f6020820190508181035f830152610d0181610cc8565b9050919050565b7f556e61626c6520746f20717565727920646f6e6174696f6e732066726f6d207a5f8201527f65726f2061646472657373657300000000000000000000000000000000000000602082015250565b5f610d62602d83610c6a565b9150610d6d82610d08565b604082019050919050565b5f6020820190508181035f830152610d8f81610d56565b9050919050565b7f43757272656e746c79206f7574736964652074686520646f6e6174696f6e20705f8201527f6572696f64000000000000000000000000000000000000000000000000000000602082015250565b5f610df0602583610c6a565b9150610dfb82610d96565b604082019050919050565b5f6020820190508181035f830152610e1d81610de4565b9050919050565b7f54686520646f6e6174696f6e20616d6f756e742063616e6e6f7420626520302e5f82015250565b5f610e58602083610c6a565b9150610e6382610e24565b602082019050919050565b5f6020820190508181035f830152610e8581610e4c565b9050919050565b7f4e487b71000000000000000000000000000000000000000000000000000000005f52601160045260245ffd5b5f610ec382610a17565b9150610ece83610a17565b9250828201905080821115610ee657610ee5610e8c565b5b92915050565b5f604082019050610eff5f830185610a20565b610f0c6020830184610a20565b9392505050565b7f4e487b71000000000000000000000000000000000000000000000000000000005f52603260045260245ffd5b5f610f4a82610a17565b91507fffffffffffffffffffffffffffffffffffffffffffffffffffffffffffffffff8203610f7c57610f7b610e8c565b5b60018201905091905056fea264697066735822122011801cf99e8d2df8f511653a82686a225b6350004ffd2f0e8141b2e23f24c7bc64736f6c63430008140033",
			"opcodes": "PUSH1 0xC0 PUSH1 0x40 MSTORE CALLVALUE DUP1 ISZERO PUSH3 0x10 JUMPI PUSH0 DUP1 REVERT JUMPDEST POP PUSH1 0x40 MLOAD PUSH3 0x1423 CODESIZE SUB DUP1 PUSH3 0x1423 DUP4 CODECOPY DUP2 DUP2 ADD PUSH1 0x40 MSTORE DUP2 ADD SWAP1 PUSH3 0x36 SWAP2 SWAP1 PUSH3 0x25B JUMP JUMPDEST CALLER PUSH0 PUSH20 0xFFFFFFFFFFFFFFFFFFFFFFFFFFFFFFFFFFFFFFFF AND DUP2 PUSH20 0xFFFFFFFFFFFFFFFFFFFFFFFFFFFFFFFFFFFFFFFF AND SUB PUSH3 0xAA JUMPI PUSH0 PUSH1 0x40 MLOAD PUSH32 0x1E4FBDF700000000000000000000000000000000000000000000000000000000 DUP2 MSTORE PUSH1 0x4 ADD PUSH3 0xA1 SWAP2 SWAP1 PUSH3 0x2E3 JUMP JUMPDEST PUSH1 0x40 MLOAD DUP1 SWAP2 SUB SWAP1 REVERT JUMPDEST PUSH3 0xBB DUP2 PUSH3 0x15E PUSH1 0x20 SHL PUSH1 0x20 SHR JUMP JUMPDEST POP TIMESTAMP DUP3 GT PUSH3 0x101 JUMPI PUSH1 0x40 MLOAD PUSH32 0x8C379A000000000000000000000000000000000000000000000000000000000 DUP2 MSTORE PUSH1 0x4 ADD PUSH3 0xF8 SWAP1 PUSH3 0x382 JUMP JUMPDEST PUSH1 0x40 MLOAD DUP1 SWAP2 SUB SWAP1 REVERT JUMPDEST DUP2 DUP2 GT PUSH3 0x146 JUMPI PUSH1 0x40 MLOAD PUSH32 0x8C379A000000000000000000000000000000000000000000000000000000000 DUP2 MSTORE PUSH1 0x4 ADD PUSH3 0x13D SWAP1 PUSH3 0x416 JUMP JUMPDEST PUSH1 0x40 MLOAD DUP1 SWAP2 SUB SWAP1 REVERT JUMPDEST DUP2 PUSH1 0x80 DUP2 DUP2 MSTORE POP POP DUP1 PUSH1 0xA0 DUP2 DUP2 MSTORE POP POP POP POP PUSH3 0x436 JUMP JUMPDEST PUSH0 DUP1 PUSH0 SWAP1 SLOAD SWAP1 PUSH2 0x100 EXP SWAP1 DIV PUSH20 0xFFFFFFFFFFFFFFFFFFFFFFFFFFFFFFFFFFFFFFFF AND SWAP1 POP DUP2 PUSH0 DUP1 PUSH2 0x100 EXP DUP2 SLOAD DUP2 PUSH20 0xFFFFFFFFFFFFFFFFFFFFFFFFFFFFFFFFFFFFFFFF MUL NOT AND SWAP1 DUP4 PUSH20 0xFFFFFFFFFFFFFFFFFFFFFFFFFFFFFFFFFFFFFFFF AND MUL OR SWAP1 SSTORE POP DUP2 PUSH20 0xFFFFFFFFFFFFFFFFFFFFFFFFFFFFFFFFFFFFFFFF AND DUP2 PUSH20 0xFFFFFFFFFFFFFFFFFFFFFFFFFFFFFFFFFFFFFFFF AND PUSH32 0x8BE0079C531659141344CD1FD0A4F28419497F9722A3DAAFE3B4186F6B6457E0 PUSH1 0x40 MLOAD PUSH1 0x40 MLOAD DUP1 SWAP2 SUB SWAP1 LOG3 POP POP JUMP JUMPDEST PUSH0 DUP1 REVERT JUMPDEST PUSH0 DUP2 SWAP1 POP SWAP2 SWAP1 POP JUMP JUMPDEST PUSH3 0x237 DUP2 PUSH3 0x223 JUMP JUMPDEST DUP2 EQ PUSH3 0x242 JUMPI PUSH0 DUP1 REVERT JUMPDEST POP JUMP JUMPDEST PUSH0 DUP2 MLOAD SWAP1 POP PUSH3 0x255 DUP2 PUSH3 0x22C JUMP JUMPDEST SWAP3 SWAP2 POP POP JUMP JUMPDEST PUSH0 DUP1 PUSH1 0x40 DUP4 DUP6 SUB SLT ISZERO PUSH3 0x274 JUMPI PUSH3 0x273 PUSH3 0x21F JUMP JUMPDEST JUMPDEST PUSH0 PUSH3 0x283 DUP6 DUP3 DUP7 ADD PUSH3 0x245 JUMP JUMPDEST SWAP3 POP POP PUSH1 0x20 PUSH3 0x296 DUP6 DUP3 DUP7 ADD PUSH3 0x245 JUMP JUMPDEST SWAP2 POP POP SWAP3 POP SWAP3 SWAP1 POP JUMP JUMPDEST PUSH0 PUSH20 0xFFFFFFFFFFFFFFFFFFFFFFFFFFFFFFFFFFFFFFFF DUP3 AND SWAP1 POP SWAP2 SWAP1 POP JUMP JUMPDEST PUSH0 PUSH3 0x2CB DUP3 PUSH3 0x2A0 JUMP JUMPDEST SWAP1 POP SWAP2 SWAP1 POP JUMP JUMPDEST PUSH3 0x2DD DUP2 PUSH3 0x2BF JUMP JUMPDEST DUP3 MSTORE POP POP JUMP JUMPDEST PUSH0 PUSH1 0x20 DUP3 ADD SWAP1 POP PUSH3 0x2F8 PUSH0 DUP4 ADD DUP5 PUSH3 0x2D2 JUMP JUMPDEST SWAP3 SWAP2 POP POP JUMP JUMPDEST PUSH0 DUP3 DUP3 MSTORE PUSH1 0x20 DUP3 ADD SWAP1 POP SWAP3 SWAP2 POP POP JUMP JUMPDEST PUSH32 0x5468652073746172742074696D65206D757374206265206C6174657220746861 PUSH0 DUP3 ADD MSTORE PUSH32 0x6E207468652063757272656E742074696D652E00000000000000000000000000 PUSH1 0x20 DUP3 ADD MSTORE POP JUMP JUMPDEST PUSH0 PUSH3 0x36A PUSH1 0x33 DUP4 PUSH3 0x2FE JUMP JUMPDEST SWAP2 POP PUSH3 0x377 DUP3 PUSH3 0x30E JUMP JUMPDEST PUSH1 0x40 DUP3 ADD SWAP1 POP SWAP2 SWAP1 POP JUMP JUMPDEST PUSH0 PUSH1 0x20 DUP3 ADD SWAP1 POP DUP2 DUP2 SUB PUSH0 DUP4 ADD MSTORE PUSH3 0x39B DUP2 PUSH3 0x35C JUMP JUMPDEST SWAP1 POP SWAP2 SWAP1 POP JUMP JUMPDEST PUSH32 0x54686520656E642074696D65206D757374206265206C61746572207468616E20 PUSH0 DUP3 ADD MSTORE PUSH32 0x7468652073746172742074696D652E0000000000000000000000000000000000 PUSH1 0x20 DUP3 ADD MSTORE POP JUMP JUMPDEST PUSH0 PUSH3 0x3FE PUSH1 0x2F DUP4 PUSH3 0x2FE JUMP JUMPDEST SWAP2 POP PUSH3 0x40B DUP3 PUSH3 0x3A2 JUMP JUMPDEST PUSH1 0x40 DUP3 ADD SWAP1 POP SWAP2 SWAP1 POP JUMP JUMPDEST PUSH0 PUSH1 0x20 DUP3 ADD SWAP1 POP DUP2 DUP2 SUB PUSH0 DUP4 ADD MSTORE PUSH3 0x42F DUP2 PUSH3 0x3F0 JUMP JUMPDEST SWAP1 POP SWAP2 SWAP1 POP JUMP JUMPDEST PUSH1 0x80 MLOAD PUSH1 0xA0 MLOAD PUSH2 0xFBD PUSH3 0x466 PUSH0 CODECOPY PUSH0 DUP2 DUP2 PUSH2 0x20E ADD MSTORE PUSH2 0x4DC ADD MSTORE PUSH0 DUP2 DUP2 PUSH2 0x397 ADD MSTORE PUSH2 0x4B1 ADD MSTORE PUSH2 0xFBD PUSH0 RETURN INVALID PUSH1 0x80 PUSH1 0x40 MSTORE PUSH1 0x4 CALLDATASIZE LT PUSH2 0x94 JUMPI PUSH0 CALLDATALOAD PUSH1 0xE0 SHR DUP1 PUSH4 0x78E97925 GT PUSH2 0x58 JUMPI DUP1 PUSH4 0x78E97925 EQ PUSH2 0x15B JUMPI DUP1 PUSH4 0x8DA5CB5B EQ PUSH2 0x185 JUMPI DUP1 PUSH4 0xD6387ED8 EQ PUSH2 0x1AF JUMPI DUP1 PUSH4 0xED88C68E EQ PUSH2 0x1DA JUMPI DUP1 PUSH4 0xF2FDE38B EQ PUSH2 0x1E4 JUMPI PUSH2 0x9B JUMP JUMPDEST DUP1 PUSH4 0x3197CBB6 EQ PUSH2 0x9F JUMPI DUP1 PUSH4 0x3CCFD60B EQ PUSH2 0xC9 JUMPI DUP1 PUSH4 0x410A1D32 EQ PUSH2 0xDF JUMPI DUP1 PUSH4 0x6F9FB98A EQ PUSH2 0x11B JUMPI DUP1 PUSH4 0x715018A6 EQ PUSH2 0x145 JUMPI PUSH2 0x9B JUMP JUMPDEST CALLDATASIZE PUSH2 0x9B JUMPI STOP JUMPDEST PUSH0 DUP1 REVERT JUMPDEST CALLVALUE DUP1 ISZERO PUSH2 0xAA JUMPI PUSH0 DUP1 REVERT JUMPDEST POP PUSH2 0xB3 PUSH2 0x20C JUMP JUMPDEST PUSH1 0x40 MLOAD PUSH2 0xC0 SWAP2 SWAP1 PUSH2 0xA2F JUMP JUMPDEST PUSH1 0x40 MLOAD DUP1 SWAP2 SUB SWAP1 RETURN JUMPDEST CALLVALUE DUP1 ISZERO PUSH2 0xD4 JUMPI PUSH0 DUP1 REVERT JUMPDEST POP PUSH2 0xDD PUSH2 0x230 JUMP JUMPDEST STOP JUMPDEST CALLVALUE DUP1 ISZERO PUSH2 0xEA JUMPI PUSH0 DUP1 REVERT JUMPDEST POP PUSH2 0x105 PUSH1 0x4 DUP1 CALLDATASIZE SUB DUP2 ADD SWAP1 PUSH2 0x100 SWAP2 SWAP1 PUSH2 0xAA6 JUMP JUMPDEST PUSH2 0x2C7 JUMP JUMPDEST PUSH1 0x40 MLOAD PUSH2 0x112 SWAP2 SWAP1 PUSH2 0xA2F JUMP JUMPDEST PUSH1 0x40 MLOAD DUP1 SWAP2 SUB SWAP1 RETURN JUMPDEST CALLVALUE DUP1 ISZERO PUSH2 0x126 JUMPI PUSH0 DUP1 REVERT JUMPDEST POP PUSH2 0x12F PUSH2 0x37B JUMP JUMPDEST PUSH1 0x40 MLOAD PUSH2 0x13C SWAP2 SWAP1 PUSH2 0xA2F JUMP JUMPDEST PUSH1 0x40 MLOAD DUP1 SWAP2 SUB SWAP1 RETURN JUMPDEST CALLVALUE DUP1 ISZERO PUSH2 0x150 JUMPI PUSH0 DUP1 REVERT JUMPDEST POP PUSH2 0x159 PUSH2 0x382 JUMP JUMPDEST STOP JUMPDEST CALLVALUE DUP1 ISZERO PUSH2 0x166 JUMPI PUSH0 DUP1 REVERT JUMPDEST POP PUSH2 0x16F PUSH2 0x395 JUMP JUMPDEST PUSH1 0x40 MLOAD PUSH2 0x17C SWAP2 SWAP1 PUSH2 0xA2F JUMP JUMPDEST PUSH1 0x40 MLOAD DUP1 SWAP2 SUB SWAP1 RETURN JUMPDEST CALLVALUE DUP1 ISZERO PUSH2 0x190 JUMPI PUSH0 DUP1 REVERT JUMPDEST POP PUSH2 0x199 PUSH2 0x3B9 JUMP JUMPDEST PUSH1 0x40 MLOAD PUSH2 0x1A6 SWAP2 SWAP1 PUSH2 0xAE0 JUMP JUMPDEST PUSH1 0x40 MLOAD DUP1 SWAP2 SUB SWAP1 RETURN JUMPDEST CALLVALUE DUP1 ISZERO PUSH2 0x1BA JUMPI PUSH0 DUP1 REVERT JUMPDEST POP PUSH2 0x1C3 PUSH2 0x3E0 JUMP JUMPDEST PUSH1 0x40 MLOAD PUSH2 0x1D1 SWAP3 SWAP2 SWAP1 PUSH2 0xC43 JUMP JUMPDEST PUSH1 0x40 MLOAD DUP1 SWAP2 SUB SWAP1 RETURN JUMPDEST PUSH2 0x1E2 PUSH2 0x4AF JUMP JUMPDEST STOP JUMPDEST CALLVALUE DUP1 ISZERO PUSH2 0x1EF JUMPI PUSH0 DUP1 REVERT JUMPDEST POP PUSH2 0x20A PUSH1 0x4 DUP1 CALLDATASIZE SUB DUP2 ADD SWAP1 PUSH2 0x205 SWAP2 SWAP1 PUSH2 0xAA6 JUMP JUMPDEST PUSH2 0x676 JUMP JUMPDEST STOP JUMPDEST PUSH32 0x0 DUP2 JUMP JUMPDEST PUSH2 0x238 PUSH2 0x6FA JUMP JUMPDEST PUSH0 SELFBALANCE GT PUSH2 0x27A JUMPI PUSH1 0x40 MLOAD PUSH32 0x8C379A000000000000000000000000000000000000000000000000000000000 DUP2 MSTORE PUSH1 0x4 ADD PUSH2 0x271 SWAP1 PUSH2 0xCEA JUMP JUMPDEST PUSH1 0x40 MLOAD DUP1 SWAP2 SUB SWAP1 REVERT JUMPDEST PUSH2 0x282 PUSH2 0x3B9 JUMP JUMPDEST PUSH20 0xFFFFFFFFFFFFFFFFFFFFFFFFFFFFFFFFFFFFFFFF AND PUSH2 0x8FC SELFBALANCE SWAP1 DUP2 ISZERO MUL SWAP1 PUSH1 0x40 MLOAD PUSH0 PUSH1 0x40 MLOAD DUP1 DUP4 SUB DUP2 DUP6 DUP9 DUP9 CALL SWAP4 POP POP POP POP ISZERO DUP1 ISZERO PUSH2 0x2C4 JUMPI RETURNDATASIZE PUSH0 DUP1 RETURNDATACOPY RETURNDATASIZE PUSH0 REVERT JUMPDEST POP JUMP JUMPDEST PUSH0 DUP1 PUSH20 0xFFFFFFFFFFFFFFFFFFFFFFFFFFFFFFFFFFFFFFFF AND DUP3 PUSH20 0xFFFFFFFFFFFFFFFFFFFFFFFFFFFFFFFFFFFFFFFF AND SUB PUSH2 0x336 JUMPI PUSH1 0x40 MLOAD PUSH32 0x8C379A000000000000000000000000000000000000000000000000000000000 DUP2 MSTORE PUSH1 0x4 ADD PUSH2 0x32D SWAP1 PUSH2 0xD78 JUMP JUMPDEST PUSH1 0x40 MLOAD DUP1 SWAP2 SUB SWAP1 REVERT JUMPDEST PUSH1 0x1 PUSH0 DUP4 PUSH20 0xFFFFFFFFFFFFFFFFFFFFFFFFFFFFFFFFFFFFFFFF AND PUSH20 0xFFFFFFFFFFFFFFFFFFFFFFFFFFFFFFFFFFFFFFFF AND DUP2 MSTORE PUSH1 0x20 ADD SWAP1 DUP2 MSTORE PUSH1 0x20 ADD PUSH0 KECCAK256 SLOAD SWAP1 POP SWAP2 SWAP1 POP JUMP JUMPDEST PUSH0 SELFBALANCE SWAP1 POP SWAP1 JUMP JUMPDEST PUSH2 0x38A PUSH2 0x6FA JUMP JUMPDEST PUSH2 0x393 PUSH0 PUSH2 0x781 JUMP JUMPDEST JUMP JUMPDEST PUSH32 0x0 DUP2 JUMP JUMPDEST PUSH0 DUP1 PUSH0 SWAP1 SLOAD SWAP1 PUSH2 0x100 EXP SWAP1 DIV PUSH20 0xFFFFFFFFFFFFFFFFFFFFFFFFFFFFFFFFFFFFFFFF AND SWAP1 POP SWAP1 JUMP JUMPDEST PUSH2 0x3E8 PUSH2 0x9D3 JUMP JUMPDEST PUSH2 0x3F0 PUSH2 0x9F5 JUMP JUMPDEST PUSH1 0x2 PUSH1 0x5 DUP2 PUSH1 0x3 DUP1 PUSH1 0x20 MUL PUSH1 0x40 MLOAD SWAP1 DUP2 ADD PUSH1 0x40 MSTORE DUP1 SWAP3 SWAP2 SWAP1 DUP3 PUSH1 0x3 DUP1 ISZERO PUSH2 0x461 JUMPI PUSH1 0x20 MUL DUP3 ADD SWAP2 JUMPDEST DUP2 PUSH0 SWAP1 SLOAD SWAP1 PUSH2 0x100 EXP SWAP1 DIV PUSH20 0xFFFFFFFFFFFFFFFFFFFFFFFFFFFFFFFFFFFFFFFF AND PUSH20 0xFFFFFFFFFFFFFFFFFFFFFFFFFFFFFFFFFFFFFFFF AND DUP2 MSTORE PUSH1 0x20 ADD SWAP1 PUSH1 0x1 ADD SWAP1 DUP1 DUP4 GT PUSH2 0x418 JUMPI JUMPDEST POP POP POP POP POP SWAP2 POP DUP1 PUSH1 0x3 DUP1 PUSH1 0x20 MUL PUSH1 0x40 MLOAD SWAP1 DUP2 ADD PUSH1 0x40 MSTORE DUP1 SWAP3 SWAP2 SWAP1 DUP3 PUSH1 0x3 DUP1 ISZERO PUSH2 0x4A0 JUMPI PUSH1 0x20 MUL DUP3 ADD SWAP2 JUMPDEST DUP2 SLOAD DUP2 MSTORE PUSH1 0x20 ADD SWAP1 PUSH1 0x1 ADD SWAP1 DUP1 DUP4 GT PUSH2 0x48C JUMPI JUMPDEST POP POP POP POP POP SWAP1 POP SWAP2 POP SWAP2 POP SWAP1 SWAP2 JUMP JUMPDEST PUSH32 0x0 TIMESTAMP LT ISZERO DUP1 ISZERO PUSH2 0x4FF JUMPI POP PUSH32 0x0 TIMESTAMP GT ISZERO JUMPDEST PUSH2 0x53E JUMPI PUSH1 0x40 MLOAD PUSH32 0x8C379A000000000000000000000000000000000000000000000000000000000 DUP2 MSTORE PUSH1 0x4 ADD PUSH2 0x535 SWAP1 PUSH2 0xE06 JUMP JUMPDEST PUSH1 0x40 MLOAD DUP1 SWAP2 SUB SWAP1 REVERT JUMPDEST PUSH0 CALLVALUE GT PUSH2 0x580 JUMPI PUSH1 0x40 MLOAD PUSH32 0x8C379A000000000000000000000000000000000000000000000000000000000 DUP2 MSTORE PUSH1 0x4 ADD PUSH2 0x577 SWAP1 PUSH2 0xE6E JUMP JUMPDEST PUSH1 0x40 MLOAD DUP1 SWAP2 SUB SWAP1 REVERT JUMPDEST PUSH0 CALLER SWAP1 POP PUSH0 CALLVALUE SWAP1 POP DUP1 PUSH1 0x1 PUSH0 DUP5 PUSH20 0xFFFFFFFFFFFFFFFFFFFFFFFFFFFFFFFFFFFFFFFF AND PUSH20 0xFFFFFFFFFFFFFFFFFFFFFFFFFFFFFFFFFFFFFFFF AND DUP2 MSTORE PUSH1 0x20 ADD SWAP1 DUP2 MSTORE PUSH1 0x20 ADD PUSH0 KECCAK256 PUSH0 DUP3 DUP3 SLOAD PUSH2 0x5D4 SWAP2 SWAP1 PUSH2 0xEB9 JUMP JUMPDEST SWAP3 POP POP DUP2 SWAP1 SSTORE POP PUSH2 0x622 DUP3 PUSH1 0x1 PUSH0 DUP6 PUSH20 0xFFFFFFFFFFFFFFFFFFFFFFFFFFFFFFFFFFFFFFFF AND PUSH20 0xFFFFFFFFFFFFFFFFFFFFFFFFFFFFFFFFFFFFFFFF AND DUP2 MSTORE PUSH1 0x20 ADD SWAP1 DUP2 MSTORE PUSH1 0x20 ADD PUSH0 KECCAK256 SLOAD PUSH2 0x842 JUMP JUMPDEST DUP2 PUSH20 0xFFFFFFFFFFFFFFFFFFFFFFFFFFFFFFFFFFFFFFFF AND PUSH32 0x106AAC375BBCF013D1E52338BBF9E740009A1A3A6869F8DAA1B72AA1620F5FEC DUP3 TIMESTAMP PUSH1 0x40 MLOAD PUSH2 0x66A SWAP3 SWAP2 SWAP1 PUSH2 0xEEC JUMP JUMPDEST PUSH1 0x40 MLOAD DUP1 SWAP2 SUB SWAP1 LOG2 POP POP JUMP JUMPDEST PUSH2 0x67E PUSH2 0x6FA JUMP JUMPDEST PUSH0 PUSH20 0xFFFFFFFFFFFFFFFFFFFFFFFFFFFFFFFFFFFFFFFF AND DUP2 PUSH20 0xFFFFFFFFFFFFFFFFFFFFFFFFFFFFFFFFFFFFFFFF AND SUB PUSH2 0x6EE JUMPI PUSH0 PUSH1 0x40 MLOAD PUSH32 0x1E4FBDF700000000000000000000000000000000000000000000000000000000 DUP2 MSTORE PUSH1 0x4 ADD PUSH2 0x6E5 SWAP2 SWAP1 PUSH2 0xAE0 JUMP JUMPDEST PUSH1 0x40 MLOAD DUP1 SWAP2 SUB SWAP1 REVERT JUMPDEST PUSH2 0x6F7 DUP2 PUSH2 0x781 JUMP JUMPDEST POP JUMP JUMPDEST PUSH2 0x702 PUSH2 0x9CC JUMP JUMPDEST PUSH20 0xFFFFFFFFFFFFFFFFFFFFFFFFFFFFFFFFFFFFFFFF AND PUSH2 0x720 PUSH2 0x3B9 JUMP JUMPDEST PUSH20 0xFFFFFFFFFFFFFFFFFFFFFFFFFFFFFFFFFFFFFFFF AND EQ PUSH2 0x77F JUMPI PUSH2 0x743 PUSH2 0x9CC JUMP JUMPDEST PUSH1 0x40 MLOAD PUSH32 0x118CDAA700000000000000000000000000000000000000000000000000000000 DUP2 MSTORE PUSH1 0x4 ADD PUSH2 0x776 SWAP2 SWAP1 PUSH2 0xAE0 JUMP JUMPDEST PUSH1 0x40 MLOAD DUP1 SWAP2 SUB SWAP1 REVERT JUMPDEST JUMP JUMPDEST PUSH0 DUP1 PUSH0 SWAP1 SLOAD SWAP1 PUSH2 0x100 EXP SWAP1 DIV PUSH20 0xFFFFFFFFFFFFFFFFFFFFFFFFFFFFFFFFFFFFFFFF AND SWAP1 POP DUP2 PUSH0 DUP1 PUSH2 0x100 EXP DUP2 SLOAD DUP2 PUSH20 0xFFFFFFFFFFFFFFFFFFFFFFFFFFFFFFFFFFFFFFFF MUL NOT AND SWAP1 DUP4 PUSH20 0xFFFFFFFFFFFFFFFFFFFFFFFFFFFFFFFFFFFFFFFF AND MUL OR SWAP1 SSTORE POP DUP2 PUSH20 0xFFFFFFFFFFFFFFFFFFFFFFFFFFFFFFFFFFFFFFFF AND DUP2 PUSH20 0xFFFFFFFFFFFFFFFFFFFFFFFFFFFFFFFFFFFFFFFF AND PUSH32 0x8BE0079C531659141344CD1FD0A4F28419497F9722A3DAAFE3B4186F6B6457E0 PUSH1 0x40 MLOAD PUSH1 0x40 MLOAD DUP1 SWAP2 SUB SWAP1 LOG3 POP POP JUMP JUMPDEST PUSH0 JUMPDEST PUSH1 0x3 DUP2 LT ISZERO PUSH2 0x9C7 JUMPI PUSH1 0x5 DUP2 PUSH1 0x3 DUP2 LT PUSH2 0x861 JUMPI PUSH2 0x860 PUSH2 0xF13 JUMP JUMPDEST JUMPDEST ADD SLOAD DUP3 GT ISZERO PUSH2 0x9B4 JUMPI PUSH1 0x2 DUP2 LT ISZERO PUSH2 0x942 JUMPI PUSH1 0x2 DUP2 PUSH1 0x3 DUP2 LT PUSH2 0x887 JUMPI PUSH2 0x886 PUSH2 0xF13 JUMP JUMPDEST JUMPDEST ADD PUSH0 SWAP1 SLOAD SWAP1 PUSH2 0x100 EXP SWAP1 DIV PUSH20 0xFFFFFFFFFFFFFFFFFFFFFFFFFFFFFFFFFFFFFFFF AND PUSH1 0x2 PUSH1 0x1 DUP4 PUSH2 0x8B7 SWAP2 SWAP1 PUSH2 0xEB9 JUMP JUMPDEST PUSH1 0x3 DUP2 LT PUSH2 0x8C8 JUMPI PUSH2 0x8C7 PUSH2 0xF13 JUMP JUMPDEST JUMPDEST ADD PUSH0 PUSH2 0x100 EXP DUP2 SLOAD DUP2 PUSH20 0xFFFFFFFFFFFFFFFFFFFFFFFFFFFFFFFFFFFFFFFF MUL NOT AND SWAP1 DUP4 PUSH20 0xFFFFFFFFFFFFFFFFFFFFFFFFFFFFFFFFFFFFFFFF AND MUL OR SWAP1 SSTORE POP PUSH1 0x5 DUP2 PUSH1 0x3 DUP2 LT PUSH2 0x91A JUMPI PUSH2 0x919 PUSH2 0xF13 JUMP JUMPDEST JUMPDEST ADD SLOAD PUSH1 0x5 PUSH1 0x1 DUP4 PUSH2 0x92B SWAP2 SWAP1 PUSH2 0xEB9 JUMP JUMPDEST PUSH1 0x3 DUP2 LT PUSH2 0x93C JUMPI PUSH2 0x93B PUSH2 0xF13 JUMP JUMPDEST JUMPDEST ADD DUP2 SWAP1 SSTORE POP JUMPDEST DUP3 PUSH1 0x2 DUP3 PUSH1 0x3 DUP2 LT PUSH2 0x957 JUMPI PUSH2 0x956 PUSH2 0xF13 JUMP JUMPDEST JUMPDEST ADD PUSH0 PUSH2 0x100 EXP DUP2 SLOAD DUP2 PUSH20 0xFFFFFFFFFFFFFFFFFFFFFFFFFFFFFFFFFFFFFFFF MUL NOT AND SWAP1 DUP4 PUSH20 0xFFFFFFFFFFFFFFFFFFFFFFFFFFFFFFFFFFFFFFFF AND MUL OR SWAP1 SSTORE POP DUP2 PUSH1 0x5 DUP3 PUSH1 0x3 DUP2 LT PUSH2 0x9AA JUMPI PUSH2 0x9A9 PUSH2 0xF13 JUMP JUMPDEST JUMPDEST ADD DUP2 SWAP1 SSTORE POP PUSH2 0x9C7 JUMP JUMPDEST DUP1 DUP1 PUSH2 0x9BF SWAP1 PUSH2 0xF40 JUMP JUMPDEST SWAP2 POP POP PUSH2 0x844 JUMP JUMPDEST POP POP POP JUMP JUMPDEST PUSH0 CALLER SWAP1 POP SWAP1 JUMP JUMPDEST PUSH1 0x40 MLOAD DUP1 PUSH1 0x60 ADD PUSH1 0x40 MSTORE DUP1 PUSH1 0x3 SWAP1 PUSH1 0x20 DUP3 MUL DUP1 CALLDATASIZE DUP4 CALLDATACOPY DUP1 DUP3 ADD SWAP2 POP POP SWAP1 POP POP SWAP1 JUMP JUMPDEST PUSH1 0x40 MLOAD DUP1 PUSH1 0x60 ADD PUSH1 0x40 MSTORE DUP1 PUSH1 0x3 SWAP1 PUSH1 0x20 DUP3 MUL DUP1 CALLDATASIZE DUP4 CALLDATACOPY DUP1 DUP3 ADD SWAP2 POP POP SWAP1 POP POP SWAP1 JUMP JUMPDEST PUSH0 DUP2 SWAP1 POP SWAP2 SWAP1 POP JUMP JUMPDEST PUSH2 0xA29 DUP2 PUSH2 0xA17 JUMP JUMPDEST DUP3 MSTORE POP POP JUMP JUMPDEST PUSH0 PUSH1 0x20 DUP3 ADD SWAP1 POP PUSH2 0xA42 PUSH0 DUP4 ADD DUP5 PUSH2 0xA20 JUMP JUMPDEST SWAP3 SWAP2 POP POP JUMP JUMPDEST PUSH0 DUP1 REVERT JUMPDEST PUSH0 PUSH20 0xFFFFFFFFFFFFFFFFFFFFFFFFFFFFFFFFFFFFFFFF DUP3 AND SWAP1 POP SWAP2 SWAP1 POP JUMP JUMPDEST PUSH0 PUSH2 0xA75 DUP3 PUSH2 0xA4C JUMP JUMPDEST SWAP1 POP SWAP2 SWAP1 POP JUMP JUMPDEST PUSH2 0xA85 DUP2 PUSH2 0xA6B JUMP JUMPDEST DUP2 EQ PUSH2 0xA8F JUMPI PUSH0 DUP1 REVERT JUMPDEST POP JUMP JUMPDEST PUSH0 DUP2 CALLDATALOAD SWAP1 POP PUSH2 0xAA0 DUP2 PUSH2 0xA7C JUMP JUMPDEST SWAP3 SWAP2 POP POP JUMP JUMPDEST PUSH0 PUSH1 0x20 DUP3 DUP5 SUB SLT ISZERO PUSH2 0xABB JUMPI PUSH2 0xABA PUSH2 0xA48 JUMP JUMPDEST JUMPDEST PUSH0 PUSH2 0xAC8 DUP5 DUP3 DUP6 ADD PUSH2 0xA92 JUMP JUMPDEST SWAP2 POP POP SWAP3 SWAP2 POP POP JUMP JUMPDEST PUSH2 0xADA DUP2 PUSH2 0xA6B JUMP JUMPDEST DUP3 MSTORE POP POP JUMP JUMPDEST PUSH0 PUSH1 0x20 DUP3 ADD SWAP1 POP PUSH2 0xAF3 PUSH0 DUP4 ADD DUP5 PUSH2 0xAD1 JUMP JUMPDEST SWAP3 SWAP2 POP POP JUMP JUMPDEST PUSH0 PUSH1 0x3 SWAP1 POP SWAP2 SWAP1 POP JUMP JUMPDEST PUSH0 DUP2 SWAP1 POP SWAP3 SWAP2 POP POP JUMP JUMPDEST PUSH0 DUP2 SWAP1 POP SWAP2 SWAP1 POP JUMP JUMPDEST PUSH2 0xB1F DUP2 PUSH2 0xA6B JUMP JUMPDEST DUP3 MSTORE POP POP JUMP JUMPDEST PUSH0 PUSH2 0xB30 DUP4 DUP4 PUSH2 0xB16 JUMP JUMPDEST PUSH1 0x20 DUP4 ADD SWAP1 POP SWAP3 SWAP2 POP POP JUMP JUMPDEST PUSH0 PUSH1 0x20 DUP3 ADD SWAP1 POP SWAP2 SWAP1 POP JUMP JUMPDEST PUSH2 0xB51 DUP2 PUSH2 0xAF9 JUMP JUMPDEST PUSH2 0xB5B DUP2 DUP5 PUSH2 0xB03 JUMP JUMPDEST SWAP3 POP PUSH2 0xB66 DUP3 PUSH2 0xB0D JUMP JUMPDEST DUP1 PUSH0 JUMPDEST DUP4 DUP2 LT ISZERO PUSH2 0xB96 JUMPI DUP2 MLOAD PUSH2 0xB7D DUP8 DUP3 PUSH2 0xB25 JUMP JUMPDEST SWAP7 POP PUSH2 0xB88 DUP4 PUSH2 0xB3C JUMP JUMPDEST SWAP3 POP POP PUSH1 0x1 DUP2 ADD SWAP1 POP PUSH2 0xB69 JUMP JUMPDEST POP POP POP POP POP POP JUMP JUMPDEST PUSH0 PUSH1 0x3 SWAP1 POP SWAP2 SWAP1 POP JUMP JUMPDEST PUSH0 DUP2 SWAP1 POP SWAP3 SWAP2 POP POP JUMP JUMPDEST PUSH0 DUP2 SWAP1 POP SWAP2 SWAP1 POP JUMP JUMPDEST PUSH2 0xBC4 DUP2 PUSH2 0xA17 JUMP JUMPDEST DUP3 MSTORE POP POP JUMP JUMPDEST PUSH0 PUSH2 0xBD5 DUP4 DUP4 PUSH2 0xBBB JUMP JUMPDEST PUSH1 0x20 DUP4 ADD SWAP1 POP SWAP3 SWAP2 POP POP JUMP JUMPDEST PUSH0 PUSH1 0x20 DUP3 ADD SWAP1 POP SWAP2 SWAP1 POP JUMP JUMPDEST PUSH2 0xBF6 DUP2 PUSH2 0xB9E JUMP JUMPDEST PUSH2 0xC00 DUP2 DUP5 PUSH2 0xBA8 JUMP JUMPDEST SWAP3 POP PUSH2 0xC0B DUP3 PUSH2 0xBB2 JUMP JUMPDEST DUP1 PUSH0 JUMPDEST DUP4 DUP2 LT ISZERO PUSH2 0xC3B JUMPI DUP2 MLOAD PUSH2 0xC22 DUP8 DUP3 PUSH2 0xBCA JUMP JUMPDEST SWAP7 POP PUSH2 0xC2D DUP4 PUSH2 0xBE1 JUMP JUMPDEST SWAP3 POP POP PUSH1 0x1 DUP2 ADD SWAP1 POP PUSH2 0xC0E JUMP JUMPDEST POP POP POP POP POP POP JUMP JUMPDEST PUSH0 PUSH1 0xC0 DUP3 ADD SWAP1 POP PUSH2 0xC56 PUSH0 DUP4 ADD DUP6 PUSH2 0xB48 JUMP JUMPDEST PUSH2 0xC63 PUSH1 0x60 DUP4 ADD DUP5 PUSH2 0xBED JUMP JUMPDEST SWAP4 SWAP3 POP POP POP JUMP JUMPDEST PUSH0 DUP3 DUP3 MSTORE PUSH1 0x20 DUP3 ADD SWAP1 POP SWAP3 SWAP2 POP POP JUMP JUMPDEST PUSH32 0x546865726520617265206E6F20617661696C61626C652066756E647320696E20 PUSH0 DUP3 ADD MSTORE PUSH32 0x74686520636F6E74726163742E00000000000000000000000000000000000000 PUSH1 0x20 DUP3 ADD MSTORE POP JUMP JUMPDEST PUSH0 PUSH2 0xCD4 PUSH1 0x2D DUP4 PUSH2 0xC6A JUMP JUMPDEST SWAP2 POP PUSH2 0xCDF DUP3 PUSH2 0xC7A JUMP JUMPDEST PUSH1 0x40 DUP3 ADD SWAP1 POP SWAP2 SWAP1 POP JUMP JUMPDEST PUSH0 PUSH1 0x20 DUP3 ADD SWAP1 POP DUP2 DUP2 SUB PUSH0 DUP4 ADD MSTORE PUSH2 0xD01 DUP2 PUSH2 0xCC8 JUMP JUMPDEST SWAP1 POP SWAP2 SWAP1 POP JUMP JUMPDEST PUSH32 0x556E61626C6520746F20717565727920646F6E6174696F6E732066726F6D207A PUSH0 DUP3 ADD MSTORE PUSH32 0x65726F2061646472657373657300000000000000000000000000000000000000 PUSH1 0x20 DUP3 ADD MSTORE POP JUMP JUMPDEST PUSH0 PUSH2 0xD62 PUSH1 0x2D DUP4 PUSH2 0xC6A JUMP JUMPDEST SWAP2 POP PUSH2 0xD6D DUP3 PUSH2 0xD08 JUMP JUMPDEST PUSH1 0x40 DUP3 ADD SWAP1 POP SWAP2 SWAP1 POP JUMP JUMPDEST PUSH0 PUSH1 0x20 DUP3 ADD SWAP1 POP DUP2 DUP2 SUB PUSH0 DUP4 ADD MSTORE PUSH2 0xD8F DUP2 PUSH2 0xD56 JUMP JUMPDEST SWAP1 POP SWAP2 SWAP1 POP JUMP JUMPDEST PUSH32 0x43757272656E746C79206F7574736964652074686520646F6E6174696F6E2070 PUSH0 DUP3 ADD MSTORE PUSH32 0x6572696F64000000000000000000000000000000000000000000000000000000 PUSH1 0x20 DUP3 ADD MSTORE POP JUMP JUMPDEST PUSH0 PUSH2 0xDF0 PUSH1 0x25 DUP4 PUSH2 0xC6A JUMP JUMPDEST SWAP2 POP PUSH2 0xDFB DUP3 PUSH2 0xD96 JUMP JUMPDEST PUSH1 0x40 DUP3 ADD SWAP1 POP SWAP2 SWAP1 POP JUMP JUMPDEST PUSH0 PUSH1 0x20 DUP3 ADD SWAP1 POP DUP2 DUP2 SUB PUSH0 DUP4 ADD MSTORE PUSH2 0xE1D DUP2 PUSH2 0xDE4 JUMP JUMPDEST SWAP1 POP SWAP2 SWAP1 POP JUMP JUMPDEST PUSH32 0x54686520646F6E6174696F6E20616D6F756E742063616E6E6F7420626520302E PUSH0 DUP3 ADD MSTORE POP JUMP JUMPDEST PUSH0 PUSH2 0xE58 PUSH1 0x20 DUP4 PUSH2 0xC6A JUMP JUMPDEST SWAP2 POP PUSH2 0xE63 DUP3 PUSH2 0xE24 JUMP JUMPDEST PUSH1 0x20 DUP3 ADD SWAP1 POP SWAP2 SWAP1 POP JUMP JUMPDEST PUSH0 PUSH1 0x20 DUP3 ADD SWAP1 POP DUP2 DUP2 SUB PUSH0 DUP4 ADD MSTORE PUSH2 0xE85 DUP2 PUSH2 0xE4C JUMP JUMPDEST SWAP1 POP SWAP2 SWAP1 POP JUMP JUMPDEST PUSH32 0x4E487B7100000000000000000000000000000000000000000000000000000000 PUSH0 MSTORE PUSH1 0x11 PUSH1 0x4 MSTORE PUSH1 0x24 PUSH0 REVERT JUMPDEST PUSH0 PUSH2 0xEC3 DUP3 PUSH2 0xA17 JUMP JUMPDEST SWAP2 POP PUSH2 0xECE DUP4 PUSH2 0xA17 JUMP JUMPDEST SWAP3 POP DUP3 DUP3 ADD SWAP1 POP DUP1 DUP3 GT ISZERO PUSH2 0xEE6 JUMPI PUSH2 0xEE5 PUSH2 0xE8C JUMP JUMPDEST JUMPDEST SWAP3 SWAP2 POP POP JUMP JUMPDEST PUSH0 PUSH1 0x40 DUP3 ADD SWAP1 POP PUSH2 0xEFF PUSH0 DUP4 ADD DUP6 PUSH2 0xA20 JUMP JUMPDEST PUSH2 0xF0C PUSH1 0x20 DUP4 ADD DUP5 PUSH2 0xA20 JUMP JUMPDEST SWAP4 SWAP3 POP POP POP JUMP JUMPDEST PUSH32 0x4E487B7100000000000000000000000000000000000000000000000000000000 PUSH0 MSTORE PUSH1 0x32 PUSH1 0x4 MSTORE PUSH1 0x24 PUSH0 REVERT JUMPDEST PUSH0 PUSH2 0xF4A DUP3 PUSH2 0xA17 JUMP JUMPDEST SWAP2 POP PUSH32 0xFFFFFFFFFFFFFFFFFFFFFFFFFFFFFFFFFFFFFFFFFFFFFFFFFFFFFFFFFFFFFFFF DUP3 SUB PUSH2 0xF7C JUMPI PUSH2 0xF7B PUSH2 0xE8C JUMP JUMPDEST JUMPDEST PUSH1 0x1 DUP3 ADD SWAP1 POP SWAP2 SWAP1 POP JUMP INVALID LOG2 PUSH5 0x6970667358 0x22 SLT KECCAK256 GT DUP1 SHR 0xF9 SWAP15 DUP14 0x2D 0xF8 CREATE2 GT PUSH6 0x3A82686A225B PUSH4 0x50004FFD 0x2F 0xE DUP2 COINBASE 0xB2 0xE2 EXTCODEHASH 0x24 0xC7 0xBC PUSH5 0x736F6C6343 STOP ADDMOD EQ STOP CALLER "
		},
		"gasEstimates": {
			"creation": {
				"codeDepositCost": "805800",
				"executionCost": "infinite",
				"totalCost": "infinite"
			},
			"external": {
				"donate()": "infinite",
				"endTime()": "infinite",
				"getContractBalance()": "401",
				"getDonation(address)": "2909",
				"getTopDonors()": "infinite",
				"owner()": "2537",
				"renounceOwnership()": "infinite",
				"startTime()": "infinite",
				"transferOwnership(address)": "infinite",
				"withdraw()": "infinite"
			},
			"internal": {
				"updateTopDonors(address,uint256)": "infinite"
			}
		},
		"methodIdentifiers": {
			"donate()": "ed88c68e",
			"endTime()": "3197cbb6",
			"getContractBalance()": "6f9fb98a",
			"getDonation(address)": "410a1d32",
			"getTopDonors()": "d6387ed8",
			"owner()": "8da5cb5b",
			"renounceOwnership()": "715018a6",
			"startTime()": "78e97925",
			"transferOwnership(address)": "f2fde38b",
			"withdraw()": "3ccfd60b"
		}
	},
	"abi": [
		{
			"inputs": [
				{
					"internalType": "uint256",
					"name": "_startTime",
					"type": "uint256"
				},
				{
					"internalType": "uint256",
					"name": "_endTime",
					"type": "uint256"
				}
			],
			"stateMutability": "nonpayable",
			"type": "constructor"
		},
		{
			"inputs": [
				{
					"internalType": "address",
					"name": "owner",
					"type": "address"
				}
			],
			"name": "OwnableInvalidOwner",
			"type": "error"
		},
		{
			"inputs": [
				{
					"internalType": "address",
					"name": "account",
					"type": "address"
				}
			],
			"name": "OwnableUnauthorizedAccount",
			"type": "error"
		},
		{
			"anonymous": false,
			"inputs": [
				{
					"indexed": true,
					"internalType": "address",
					"name": "donor",
					"type": "address"
				},
				{
					"indexed": false,
					"internalType": "uint256",
					"name": "amount",
					"type": "uint256"
				},
				{
					"indexed": false,
					"internalType": "uint256",
					"name": "timestamp",
					"type": "uint256"
				}
			],
			"name": "Donation",
			"type": "event"
		},
		{
			"anonymous": false,
			"inputs": [
				{
					"indexed": true,
					"internalType": "address",
					"name": "previousOwner",
					"type": "address"
				},
				{
					"indexed": true,
					"internalType": "address",
					"name": "newOwner",
					"type": "address"
				}
			],
			"name": "OwnershipTransferred",
			"type": "event"
		},
		{
			"inputs": [],
			"name": "donate",
			"outputs": [],
			"stateMutability": "payable",
			"type": "function"
		},
		{
			"inputs": [],
			"name": "endTime",
			"outputs": [
				{
					"internalType": "uint256",
					"name": "",
					"type": "uint256"
				}
			],
			"stateMutability": "view",
			"type": "function"
		},
		{
			"inputs": [],
			"name": "getContractBalance",
			"outputs": [
				{
					"internalType": "uint256",
					"name": "",
					"type": "uint256"
				}
			],
			"stateMutability": "view",
			"type": "function"
		},
		{
			"inputs": [
				{
					"internalType": "address",
					"name": "donor",
					"type": "address"
				}
			],
			"name": "getDonation",
			"outputs": [
				{
					"internalType": "uint256",
					"name": "",
					"type": "uint256"
				}
			],
			"stateMutability": "view",
			"type": "function"
		},
		{
			"inputs": [],
			"name": "getTopDonors",
			"outputs": [
				{
					"internalType": "address[3]",
					"name": "",
					"type": "address[3]"
				},
				{
					"internalType": "uint256[3]",
					"name": "",
					"type": "uint256[3]"
				}
			],
			"stateMutability": "view",
			"type": "function"
		},
		{
			"inputs": [],
			"name": "owner",
			"outputs": [
				{
					"internalType": "address",
					"name": "",
					"type": "address"
				}
			],
			"stateMutability": "view",
			"type": "function"
		},
		{
			"inputs": [],
			"name": "renounceOwnership",
			"outputs": [],
			"stateMutability": "nonpayable",
			"type": "function"
		},
		{
			"inputs": [],
			"name": "startTime",
			"outputs": [
				{
					"internalType": "uint256",
					"name": "",
					"type": "uint256"
				}
			],
			"stateMutability": "view",
			"type": "function"
		},
		{
			"inputs": [
				{
					"internalType": "address",
					"name": "newOwner",
					"type": "address"
				}
			],
			"name": "transferOwnership",
			"outputs": [],
			"stateMutability": "nonpayable",
			"type": "function"
		},
		{
			"inputs": [],
			"name": "withdraw",
			"outputs": [],
			"stateMutability": "nonpayable",
			"type": "function"
		},
		{
			"stateMutability": "payable",
			"type": "receive"
		}
	]
}